:020000040800F2
:1000000048290020A9010008B10100082132000898
:10001000B5010008B7010008B901000800000000A0
:10002000000000000000000000000000BB0100080C
:10003000BD01000800000000BF010008713F00087A
:10004000C3010008C3010008C3010008C301000880
:10005000C3010008C3010008C3010008C301000870
:10006000C3010008C3010008C3010008C301000860
:10007000C3010008C3010008552A0008C301000895
:10008000C3010008C3010008C3010008C301000840
:10009000C3010008C3010008C3010008C301000830
:1000A000C301000855400008C3010008C30100084F
:1000B000C301000859400008C3010008C30100083B
:1000C000C3010008C3010008C3010008C301000800
:1000D000C3010008E5450008C3010008C30100088A
:1000E000C3010008C3010008C301000800F002F8C2
:1000F00000F04AF80AA090E8000C82448344AAF178
:100100000107DA4501D100F03FF8AFF2090EBAE875
:100110000F0013F0010F18BFFB1A43F0010318473B
:100120003467000054670000103A24BF78C878C1D3
:10013000FAD8520724BF30C830C144BF04680C60ED
:10014000704700000023002400250026103A28BF35
:1001500078C1FBD8520728BF30C148BF0B60704739
:10016000662906F06580642900F0CA800020704787
:100170001FB500F0B7FC04000020002105F0C8FA0C
:10018000E0601FBD10B510BD00F0B0FD1146FFF7D7
:10019000EFFF04F01FFF00F0CEFD03B4FFF7F2FF06
:1001A00003BC00F011FE00000948804709480047E1
:1001B000FEE7FEE7FEE7FEE7FEE7FEE7FEE7FEE717
:1001C000FEE7FEE704480549054A064B7047000074
:1001D000813F0008ED000008482300204829002046
:1001E000482500204825002053EA020C00F06980D1
:1001F0002DE9F04B4FF00006002B1FBFB3FA83F53B
:1002000003FA05F424FA05F65E4012BF1643B2FA6B
:1002100082F502FA05F4C5F120051EBF22FA05FC9D
:1002200044EA0C04203556EA044C4FEA144418BF43
:10023000641C4FF000084FF00009904271EB030C72
:1002400039D3002919BFB1FA81F701FA07F6B0FADC
:1002500080F700FA07F6C7F120071EBF20FA07FC57
:1002600046EA0C062037B6FBF4FCA7EB0507103F67
:1002700007F01F0BCBF120060CFA0BFB2CFA06F64D
:1002800044BFB3460026202FA4BF5E464FF0000BAC
:100290005BEA060C08BF4FF0010B19EB0B09ABFB37
:1002A000027C48EB0608C01B06FB02CC0BFB03CC10
:1002B00071EB0C01C1E70B46024641464846BDE8DA
:1002C000F08B13B54FF000004FF00001AFF300804A
:1002D000BDE81C40704700000FB41CB5074B06AAD0
:1002E0007B4469460090059800F0E3FB00206946D6
:1002F00000F0F2FB1CBC5DF814FB0000F5070000E9
:100300002DE9F0410646002410687529314616A5EE
:1003100010D0AFF30080002802DA404213A507E0B6
:1003200031688A0701D512A502E0490704D511A555
:10033000012401E0AFF3008000210A2206F1240726
:1003400009E0B0FBF2FCB0FBF2F302FB1C00303022
:1003500078541846491C0028F3D123462A463046D3
:10036000BDE8F04100F037B9000000002D000000AA
:100370002B000000200000002DE9F0474FF0000A9C
:1003800089460446C0F820A02046E1688847002836
:1003900076D0252806D0D4E901219047206A401C58
:1003A0002062F1E7E168204600258847C4F81CA0D8
:1003B00006460027C4F818A02A2E09D0304604F0BB
:1003C0006AFA38B304EB8708303EC8F8186019E0C1
:1003D00059F8041B204604EB87029161E1688847C5
:1003E000012F064618D1E069002820DA25F0200503
:1003F0001DE0D8F8180000EB800006EB4000303814
:10040000C8F818002046E1688847064604F043FA19
:100410000028EED1012F0AD02E2E08D12046E16807
:1004200088477F1C0646022F45F02005C4DBA069E3
:10043000002803DA404245F00105A061E80701D039
:1004400025F01005B6B1A6F14100192802D82036D2
:1004500045F400654A463146204625604D46FFF783
:100460007FFE58B1012806D0ED1D25F0070000F1F0
:10047000080989E704E005F1040985E730468AE7C1
:10048000206ABDE8F08710B5431C02E010F8011B9C
:1004900071B18107FAD14FF0013202C88C1A8C4336
:1004A00014EAC211F9D0C01A0A0603D0C01E10BD4A
:1004B000C01A10BD0A0401D0801E10BD0902FCD074
:1004C000401E10BD10B5203AC0F00B80B1E81850A6
:1004D000203AA0E81850B1E81850A0E81850BFF42E
:1004E000F5AF5FEA027C24BFB1E81850A0E81850CD
:1004F00044BF18C918C0BDE810405FEA827C24BF21
:1005000051F8043B40F8043B08BF7047D20728BFAE
:1005100031F8023B48BF11F8012B28BF20F8023BFD
:1005200048BF00F8012B70474FF000020429C0F0CB
:10053000128010F0030C00F01B80CCF1040CBCF115
:10054000020F18BF00F8012BA8BF20F8022BA1EB67
:100550000C0100F00DB85FEAC17C24BF00F8012B4C
:1005600000F8012B48BF00F8012B70474FF0000244
:1005700000B5134694469646203922BFA0E80C5099
:10058000A0E80C50B1F12001BFF4F7AF090728BF74
:10059000A0E80C5048BF0CC05DF804EB890028BFF0
:1005A00040F8042B08BF704748BF20F8022B11F019
:1005B000804F18BF00F8012B704770477047704795
:1005C00010B500F093FA006810BD10B5044600F0B5
:1005D0008DFA046010BD2DE9F0470D46994692460C
:1005E000044600F124080168880604D5E06921F07A
:1005F0001001216000E00120A84201DD471B00E05E
:100600000027A1697A1902EB0900081AA061207875
:10061000C00602D42046AFF30080002608E0D4E9EB
:1006200001211AF806009047206A401C761C2062BF
:100630004E45F4DB2078C0060AD52046AFF3008093
:1006400006E0D4E9012130209047206A401C206256
:10065000381EA7F10107F4DC07E0D4E9012118F8FE
:1006600005009047206A401C2062281EA5F1010564
:10067000F3DC2046AFF300802078000602D502208C
:10068000BDE8F0870120FBE770472DE9FF4F0C46DE
:100690001E464FF0FF378BB0D2E90001DDF86080D5
:1006A0000A908A46C1F30A5505B93D46002108461D
:1006B0004FF00000BAF1000F00F4400005DA00EB43
:1006C00080004FF4400101EA50004FEA9059B9F11F
:1006D000010F00DDB9460A9850EA4A000ED044F6F0
:1006E0001050A5F2FF3545432F14B8F1000F1ED06E
:1006F0007542291E1EDDC9F100021CE0B8F1010F90
:100700004FF0000001D0302103E0F24305E0215416
:10071000401CB042FBDB30460022002121540B99E3
:10072000C1F80880C1E900200FB0BDE8F08FBD1B03
:100730006D1CDEE74A4600DA694206A800F060FA5E
:1007400006AB93E8070003AB83E8070050460A991D
:1007500000F041FB8DE80700A0F500501F38009025
:100760000398002D0ADD42F21F014A460844002387
:1007700003A90390684600F0AAFD09E0A0F5005027
:100780004A461F38002303A90390684600F0B4FDD1
:100790008DE807000004000C03D04FF0FF30410843
:1007A00000E01046B8F1000F03D000220092154679
:1007B0001EE0751E05D400F09DF9303262556D1EA5
:1007C000F9D5B3460122084302D000227F1C04E081
:1007D0002078302801D100227F1E002A099784D07A
:1007E0001DE0112D07DA00F085F9303262556D1CDD
:1007F00050EA0102F5D1084302D00098C8B10EE0DA
:100800000021681E05E0235C625C63542254401E94
:10081000491C8142F7DBAB46A81B401E0990002013
:1008200004F80B000B98099AC0F80880C0E9002B67
:100830007AE711264FF0000857E72DE9F04F884678
:100840000446D21D22F0070191B0D1E90001CDE9A3
:100850000A0103F0A5FF02460B98C00F01D02D201E
:1008600007E02068810701D52B2002E0202101EA62
:10087000C000032A099001D0072A05DB0346414640
:10088000204600F07DF90BE12078800601D5E06973
:1008900000E00620B8F1650F814606D0B8F1660F7A
:1008A00018D0B8F1670F70D131E00020B9F1110F05
:1008B000009001DB112301E009F101030AAA01A95B
:1008C0000CA8FFF7E2FEDDE90C70002609F1010536
:1008D000834647E001204B4600904FF000470AAAAC
:1008E00001A90CA8FFF7D1FEDDE90DB00C995D461A
:1008F000002610B909F101000D18B9EB050003D469
:10090000C0F1FF3609F10105A5EB09002BE0B9F1B3
:10091000010F01DA4FF001090020B9F1110F009029
:10092000484601DD112300E003460AAA01A90CA8EC
:10093000FFF7ABFEDDE90C704D46002683462078BC
:1009400000070AD4AB4500DA5D4601A8012D04DD9D
:10095000411911F8011C302907D04F4502DA17F16F
:10096000040F04DA012082460FE06D1EEEE7002F2F
:1009700002DCED1B3E4403E0781CA84200DD7D1C38
:10098000B81B00F1010A4FF000472078000703D49C
:10099000AA4501DB4FF0FF3A0021B7F1004F0DF1FE
:1009A00043088DF8431024D002202B23002F01DAB6
:1009B0007F422D230A21021EA0F1010000DC5FB15D
:1009C00097FBF1FC97FBF1F201FB1C7C17460CF145
:1009D000300C08F801CDEEE7A8F101000370218882
:1009E000090501D5452100E06521A0F1010800F8C5
:1009F000011C09980FA9A1EB0807FF1D00B10120F8
:100A0000411901EBEA70A1693844081A401EA0613F
:100A10002078C00602D42046AFF30080099828B1A0
:100A2000D4E901219047206A401C20622078C0064A
:100A300022D52046AFF300801EE0002E04DBB34534
:100A400002DD01A8805D00E03020D4E9012190475B
:100A5000206A401C2062761CAAF101005FEA000AAD
:100A60000AD100F03FF8C0680168405CD4E9012178
:100A70009047206A401C2062281EA5F10105DCDC9D
:100A800007E0D4E9012118F8010B9047206A401CC7
:100A90002062381EA7F10107F3DC2046AFF3008087
:100AA000032011B041E6000001694A1C0261087888
:100AB000704700B58FB0CDE901310021059105499E
:100AC0007944CDE9031011466846FFF755FC0FB095
:100AD00000BD0000E5FFFFFF0A6802F8010B0A6095
:100AE000704700000048704704230020004870470A
:100AF000E422002030B5B0F10A024FEA900E71F105
:100B000000034EEA817EB0EB0E0061EB91014FEAEB
:100B1000101E4EEA017E10EB0E0041EB11114FEA60
:100B2000102E4EEA016E10EB0E0041EB11214FEA40
:100B3000104E4EEA014E10EB0E0041EB11414018F1
:100B400041F100014FEAD00040EA41704FEAD10183
:100B500010EB80054FEA810444EA907444EB0104F1
:100B60006D1944EB0404521BA3414FF0000348BF2E
:100B70000A3200D530BD401C41F1000130BD0000FB
:100B80002DE9F0411F46044603260168072A01F4B7
:100B9000006004DB08B116A505E016A503E008B166
:100BA00015A500E015A521F010002060A069C01E69
:100BB000A0610FB1401EA0612046AFF300804FB18D
:100BC000D4E9012138469047206A401C2062C01CAD
:100BD000206206E0206AFAE7D4E9012115F8010B4A
:100BE0009047761EF8D22046AFF30080BDE8F08132
:100BF0004E414E006E616E00494E4600696E6600C1
:100C00002DE9F047814616468AB0354878440DC82C
:100C10008DE80D0032487844801C03AC0DC884E890
:100C20000D0041F69B300844372190FBF1F290FB18
:100C3000F1F5A5F1800501FB12041B3C02D56442CD
:100C4000012000E00020DFF898A080460027FA4449
:100C5000AAF1BE0A0EE0E0070AD03246684607EB6A
:100C6000470101230AEB810100F046FB8DE80700F4
:100C700064107F1C002CEED1194F7F44AE3F19E069
:100C8000E80715D007EB04100DF1180A90E80E00E4
:100C90008AE80E00C068F04201D1981908903246E7
:100CA000012306A903A800F027FB03AB83E8070094
:100CB0006D10641C002DE3D14FF0010332466946EC
:100CC000B8F1000F03A802D000F001FB01E000F032
:100CD00013FBC9E90001C9F808200AB0BDE8F08794
:100CE000BC5A000000487047E42200207546FFF718
:100CF000F9FFAE4605006946534620F007008546D9
:100D000018B020B5FFF75EFABDE820404FF00006AE
:100D10004FF000074FF000084FF0000B21F00701E3
:100D2000AC46ACE8C009ACE8C009ACE8C009ACE826
:100D3000C0098D46704710B50446AFF300802046C9
:100D4000BDE81040FFF729BA4FF0013C50F8042BE2
:100D500051F8043B9A4221D1A2EB0C03934313EACE
:100D6000CC1317D150F8042B51F8043B9A4215D1FB
:100D7000A2EB0C03934313EACC130BD150F8042BD2
:100D800051F8043B9A4209D1A2EB0C03934313EAB6
:100D9000CC13DBD04FF00000704700BFD01A01BA6F
:100DA000B1FA81F101F0180122FA01F0CB40C1F152
:100DB0002001DBB2C0B2C01A2CFA01F3D11A914360
:100DC00011EAC311E6D1704701491820ABBEFEE716
:100DD0002600020070475FEA400C08BF91F0000F48
:100DE0004FEA8C234FEAC12243EA51514FEA1C508B
:100DF00018BF00F5F0404FEA300018BF41F0004145
:100E00005FEA6C5C00F02980BCF1FF3F08BF40F056
:100E100080407047130C06BF12044FF0100C4FF0C7
:100E2000000C130E04BF12020CF1080C130F04BFC8
:100E300012010CF1040C930F04BF92000CF1020C90
:100E4000D30F04BF52000CF1010C11464FF0000209
:100E5000A0F11F00A0EB0C00704711F0004F08BF7D
:100E6000704731F000413FF4D5AF0B0C06BF0904C9
:100E70004FF0100C4FF0000C0B0E04BF09020CF1E8
:100E8000080C0B0F04BF09010CF1040C8B0F04BFFD
:100E900089000CF1020CCB0F04BF49000CF1010CCE
:100EA000CCF12003A0EB0C0022FA03F302FA0CF2BF
:100EB00041EA030100F10100704720F07F4C80EA15
:100EC000030023F07F47ACEB070303F57C5300F0EE
:100ED000004003F1FF032DE980494FEA154B09B4A7
:100EE0004FEA144325EA0B4E24EA03480FF2042686
:100EF00006EB132749083E785FEA320203FB0667D8
:100F0000C7F5000707FB06F64FEA54374FEAD64607
:100F100006F1020607FB066CCCF1005C4FEA1C47A9
:100F20002CEA074C07FB06F40CFB06F504EB154610
:100F30004FEA961634BF00204FF000404FEAD137F9
:100F400006FB07FC4FEA1C4C0CFB0BF7D21B03FB08
:100F50000CF761EB07010CFB0EF7B0EB074072EBEF
:100F600017420CFB08F734BFA2EB0742B2EB074273
:100F700061EB17414FEA0C444FEA910706FB07FC6F
:100F80004FEA1C4C0CFB0BF7B0EBC74072EB57322F
:100F900003FB0CF734BFA2EBC742B2EBC74261EBD5
:100FA00057310CFB0EF7B0EBC70072EB57720CFB1E
:100FB00008F734BFA2EBC702B2EBC70261EB57716F
:100FC000039F4FEA816141EA921104EBCC044FEA9E
:100FD000D1374FEA826206FB07FC42EA90124FEAE1
:100FE00080604FEA1C4C0CFB0BF7D21B03FB0CF789
:100FF00061EB07010CFB0EF7B0EB074072EB1742F9
:101000000CFB08F734BFA2EB0742B2EB074261EBDF
:1010100017414FEA8C554FEA910704EB9C2406FBDD
:1010200007FC4FEA1C4C0CFB0BF7B0EBC74072EB14
:10103000573203FB0CF734BFA2EBC742B2EBC742F7
:1010400061EB57310CFB0EF7B0EBC70072EB577238
:101050000CFB08F734BFA2EBC702B2EBC70261EB8F
:10106000577115EB4C254FEA816141EA92114FEA25
:1010700082624FEAD13742EA901206FB07FC44F144
:1010800000044FEA80604FEA1C4C0CFB0BF7D21BAC
:1010900003FB0CF761EB07010CFB0EF7B0EB07400D
:1010A00072EB17420CFB08F734BFA2EB0742B2EB1E
:1010B000074261EB174115EB1C154FEA813141EAFC
:1010C00092414FEA823242EA90424FEA80304FEA40
:1010D0000C7644F1000448EA03434EEA0B484FF013
:1010E000000EB2EB080C71EB030724BF62463946D1
:1010F0004EEB0E0E4FF0000B0018524149414BEBE6
:101100000B0BB2EB080C71EB03077BF1000B24BF58
:10111000624639464EEB0E0E4FF0000B001852415E
:1011200049414BEB0B0BB2EB080C71EB03077BF166
:10113000000B24BF624639464EEB0E0E51EA020701
:1011400018BF46F0010616EB0E7655F1000254F179
:10115000000103D5BDE88901BDE80088BDE889012B
:10116000BDE80048B619524141EB0101A3F101036A
:10117000704780807F7E7D7C7B7A79787776767504
:101180007473727171706F6E6E6D6C6C6B6A6A697C
:101190006868676666656464636362616160605F16
:1011A0005F5E5E5D5D5C5C5B5B5A5A59595858578F
:1011B00057565655555554545353525252515150F7
:1011C00050504F4F4F4E4E4D4D4D4C4C4C4B4B4B4A
:1011D0004A4A4A4949494848484747474746464690
:1011E00045454544444444434343434242424241CB
:1011F0004141002B9C4630D477002BD01CB54FEAE0
:10120000370703B44FF010004FF01001BAF1000F90
:1012100006D0BCF1000FDCBF40F0080040F0080130
:101220004FF000000FBCBDE810400BF1010BBBF10B
:10123000010F08BF5FEA170722BF12F1010211F187
:1012400001014FF0004143F1000300F0004043EA88
:1012500000007047F9D35708D0E746EA064613F175
:10126000400F4FEA16461FDD13F1200FDFBF164374
:101270000A46002120335B42BED0C3F1200746EA74
:10128000064602FA07F74FEA164646EA0706C3F192
:10129000200722FA03F201FA07F721FA03F14FF0CF
:1012A000000342EA0702A7E746EA020646EA0646C4
:1012B0004FEA164646EA0106BCBF46EA0646360C29
:1012C0004FF000034FF000024FF0000194E72DE9CA
:1012D000804C9A46934670B491E8380007C831EACA
:1012E000400C48BF34EA430C03D5FFF7E6FDFFF797
:1012F00080FFF0BCBDE8008C2DE9804C9A469346F7
:1013000070B491E8380007C810F0804F08BF13F0A0
:10131000804F03D100F005F8FFF76BFFF0BCBDE88C
:10132000008C20F07F4780EA030023F07F4C07EB1E
:101330000C03A3F57C5300F00040A3F1FE0392F0F0
:10134000000F00F0B38095F0000F00F077802DE9DA
:1013500001494FEA11404FEA144621EA004800FBD8
:1013600006FC24EA064708FB06F607FB08F800FB24
:1013700007F718EB06484CEB164C4FEA124B18EBEC
:1013800007484FEA15464CEB174022EA0B4E0BFB81
:1013900006FC25EA06470EFB06F607FB0EFE0BFBD6
:1013A00007F71EEB064E4CEB164C4FF000061EEBFB
:1013B000074E4CEB174B18EB0B0840F1000018EBF5
:1013C0000E0B58EB000840F100008F1A4FF000019F
:1013D0003CBFC943661B14BFB5EB040C00213CBFE6
:1013E000C943F61B4FEA17444EEA8E0E27EA04451E
:1013F0004FEA1C4704FB07622CEA074C05FB07F782
:101400000CFB05F604FB0CFC16EB074642EB1742FF
:1014100016EB0C4642EB1C421BEB060658EB020295
:10142000414146EA9E0601D5BDE80189B6195241FF
:1014300041EB0101A3F10103BDE801894FEA144525
:101440004FEA114724EA054621EA074C05FB07F459
:1014500006FB07F70CFB06F105FB0CFC11EB074143
:1014600044EB17444FEA124711EB0C4144EB1C4488
:1014700022EA074C05FB07F206FB07F70CFB06F612
:1014800005FB0CFC16EB074642EB174216EB0C462D
:1014900042EB1C456A1854F1000148BF7047B61969
:1014A000524141EB0101A3F10103704795F0000F98
:1014B00037D04FEA11424FEA144721EA024624EAA4
:1014C000074C02FB07F106FB07F70CFB06F402FBD7
:1014D0000CFC14EB074441EB17414FEA154714EBA2
:1014E0000C4441EB1C4125EA074C02FB07F506FBC7
:1014F00007F70CFB06F602FB0CFC16EB074645EB68
:10150000174516EB0C4645EB1C42121951F1000130
:1015100048BF7047B619524141EB0101A3F10103E5
:1015200070474FEA14454FEA114724EA054621EA7D
:10153000074C05FB07F106FB07F70CFB06F24FF023
:10154000000605FB0CFC12EB074241EB174112EBC6
:101550000C4251EB1C4148BF7047921841EB01010E
:10156000A3F10103704700002DE9F0410146124844
:10157000182202250560114F4615114C07F1040889
:10158000AB036361080201D53E6001E0C8F800606A
:1015900001F0D6FB2361490001F0D2FB521E12F08C
:1015A000FF02EED1636101F0CBFB0348001D056033
:1015B000BDE8F04101F0C4BB10140140100C014023
:1015C000001001400029816802D041F0010101E0D2
:1015D00021F00101816070470029816802D041F447
:1015E000807101E021F48071816070470146002024
:1015F0008968490700D501207047014600208968A5
:10160000090700D50120704710B542680E4B0C79D0
:101610001A400B6842EA04221343436083680B4A72
:101620001340D1E9024222434C7943EA44031A436E
:101630008260C26A097C22F47002491EC9B242EA81
:101640000151C16210BD0000FFFEF0FFFDF7F1FF88
:1016500070B5072409290AD9C568A1F10A0606EB65
:101660004606B440A543B3401D43C56007E0056985
:1016700001EB4106B440A543B3401D4305611F2360
:10168000072A09D2446B521E02EB820293409C430C
:1016900091400C43446370BD0D2A09D2046BD21FE4
:1016A00002EB820293409C4391400C43046370BD63
:1016B000C46A0D3A02EB820293409C4391400C4372
:1016C000C46270BD816841F00801816070470029E3
:1016D000816802D041F4A00101E021F4A001816001
:1016E0007047816841F004018160704770B540F235
:1016F000DC5401F003FF424D40F6E441414368826F
:10170000090B6983AB784FF4FA72A3B1011B00D5C2
:10171000494289B2322918D3914201D9142100E0FB
:101720000221A04201D9484200E0084603F07CFFB4
:101730002883002070BD2B8B03B92A83A0F5A060FD
:10174000DC3800D54042642801DA012070BD08462B
:1017500004F0BCFA00222B4B04F0DEF803F0B2FBDD
:101760000022294B04F0C6FA04F06AFA298B081A01
:1017700004B200210120A12C0DDA6A7912B1AA79F4
:101780001AB103E0A024A97115E0A871AA79521E2C
:10179000AA716E340EE04FF4347294420BDB6B7915
:1017A000022B0FD0AA79012A00D9A871AA79521C5C
:1017B000AA716E3C24B2AA7942B1012A0CD0022A45
:1017C00016D10EE014460222AA71F4E7B4F5167F92
:1017D0000EDDA8716E3C0AE0B4F5EB7F08DAA97162
:1017E00004E040F253218C4202DAA8716E3424B234
:1017F000A87902F02DFBA0B203F0D6FE2883A4E75F
:101800000000002000C0924000406F4010B5002052
:1018100001F078FC00EBC00101EB0010044901EB82
:1018200080007721B0FBF1F002494863C0B210BDDF
:1018300060DDFEFF0000002010B501F019FF01205F
:1018400001F0A8FF212001F07BFF0028FAD0002042
:1018500001F096FF002001F0ADFF4FF4806001F031
:101860009FFF4FF4004001F0BDFE022001F0E2FABC
:10187000102001F0B9FA00210422084601F0F0FA24
:101880004FF46011002001F0A5FF012001F09CFF42
:10189000392001F055FF0028FAD0022001F0A4FF02
:1018A00001F066FF0828FBD110BD000038B501210A
:1018B0003D2001F0C5FE01211F4801F0F3FB01218D
:1018C000C80301F0EFFB03248DF8024010208DF8CF
:1018D000030048F21C70194DADF800006946284617
:1018E00001F08EFB41F63B70ADF8000069461448EC
:1018F00001F086FB4FF46040ADF8000069461148E6
:1019000001F07EFBADF8004069460F4801F078FB1E
:1019100048208DF80300A814ADF800006946284659
:1019200001F06EFB00208DF80300ADF80040694621
:10193000284601F065FB38BD000230000008014078
:10194000000C0140001001400014014010B586B0A9
:10195000A020ADF8140003208DF8160018201C4CB0
:101960008DF8170005A9204601F04AFB4020ADF88C
:10197000140004208DF8170005A9204601F040FB53
:101980000121080301F05CFE0020ADF800004FF4D7
:101990008271ADF802100121ADF808104902ADF8CE
:1019A0000A101021ADF80C10ADF80400ADF80600D7
:1019B000ADF80E000720074CADF810006946204630
:1019C00001F036FF0121204601F028FF06B010BDCE
:1019D000000801400030014030B587B04FF420408E
:1019E000ADF8140003208DF8160018201D4D8DF859
:1019F000170005A9284601F003FB4FF48044ADF819
:101A0000144004208DF8170005A9284601F0F8FAC3
:101A10000121204601F0FCFD4FF44040ADF80000EC
:101A20004FF48270ADF802000020ADF804000221EE
:101A3000ADF80610ADF808000902ADF80A10102143
:101A4000ADF80C10ADF80E000720074CADF81000F3
:101A50006946204601F0ECFE0121204601F0DEFE41
:101A600007B030BD000C01400038004070B50121C6
:101A700005468C0386B0204601F0E2FD0121204698
:101A800001F0EAFD0021204601F0E6FD01210420DD
:101A900001F008FB8020ADF810000420244E8DF8E2
:101AA000130004A9304601F0ABFA4020ADF8100055
:101AB00018208DF8130003248DF8124004A9304635
:101AC00001F09EFA0020ADF804000095ADF8060084
:101AD000ADF80800ADF80C000C20164DADF80A006A
:101AE0006946284602F0E6FDE021284602F084FD22
:101AF000114A01212020C2F8800225208DF814000F
:101B00008DF815408DF816108DF8171005A801F006
:101B10003FFC012240F22551284602F0B3FD01218D
:101B2000284602F06CFD054800F00AF806B070BDCA
:101B3000000C01400038014004E000E00C200020CF
:101B400030B5164D04468BB0284600F0B5FF14485A
:101B5000CDE900041020029019200390002080217C
:101B6000CDE904014FF44051CDE9080106900790FA
:101B70000A906946284601F029F8094C0122241FE1
:101B80008021204602F076FD0121284600F088FFE2
:101B90000121204602F033FD0BB030BD440002406D
:101BA0000438014070B51D4DA878002834D000F0ED
:101BB00007FE1B4C4FF48770E18A61B1618B61B104
:101BC000A18B61B1E18B49F6404021B1218C21B15B
:101BD000618C21B108E0002102E0012100E0022136
:101BE00000F008FE608CB8B10120207602F024F9E4
:101BF0000020A8706870E872E88102F029F942F2CA
:101C00001074204602F086FE06A003F0CDF92046AF
:101C100002F080FE01F0F8FB012070BD0000002002
:101C2000BC1F00203D3D3D3D3D3D3D3D3D3D3D3DDD
:101C30003D3D3D3D3DB1EAB6A8B3C9B9A63D3D3DE8
:101C40003D3D3D3D3D3D3D3D3D3D3D3D3D3D0A0A2A
:101C5000000000000649012804D0002081F8380067
:101C600002F0EAB8012081F8380002200876F7E790
:101C7000BC1F00200248C18802A003F095B90000F3
:101C8000BC1F002025640A000EB502A801F058FA16
:101C90000F489DF80A109DF8083090F83A004FF070
:101CA000020201289DF80900CDE900014FF003016F
:101CB0000CD008A003F5FA6303F076F90CA003F04A
:101CC00073F942F2107002F025FE0EBD11A0F1E78B
:101CD000BC1F002056657273696F6E3A4825642DEB
:101CE0005325642D25642F25642F25640A000000E8
:101CF000474D505F56312E312E302847656E657244
:101D0000616C50756C73654D6561737572696E6752
:101D1000290D0A00B0E6B1BED0C5CFA23A4825646D
:101D20002D5325642D25642F25642F25640A00007A
:101D3000012000F083BE002000F080BE024890F831
:101D4000391002A003F030B9BC1F002025640A003E
:101D500070B542F21075284602F0DCFD4F4C94F845
:101D60003A0001287ED04EA003F01EF9284602F06A
:101D7000D1FDE18956A003F017F9284602F0CAFD0B
:101D8000218A59A003F010F9284602F0C3FD618AA8
:101D90005BA003F009F9284602F0BCFDB4F9161067
:101DA0005DA003F001F9284602F0B4FDB4F91A1061
:101DB0005EA003F0F9F8284602F0ACFDB4F91C105F
:101DC0005FA003F0F1F8284602F0A4FDB4F91E105C
:101DD00060A003F0E9F8284602F09CFDB4F9201059
:101DE00061A003F0E1F8284602F094FDB4F9221056
:101DF00062A003F0D9F8284602F08CFDA18D64A002
:101E000003F0D2F8284602F085FDE18D65A003F0CD
:101E1000CBF8284602F07EFD218E67A003F0C4F8BF
:101E2000284602F077FD618E68A003F0BDF82846D1
:101E300002F070FDA18E6AA003F0B6F8284602F009
:101E400069FDE18E6BA003F0AFF8284602F062FD59
:101E5000A18C6DA003F0A8F8284602F05BFDE08B92
:101E6000002800E006E094F83A0007D0012803D0EB
:101E700069A006E06EA077E779A002E001280AD009
:101E80007AA003F091F8284602F044FDBDE87040C6
:101E90007CA003F089B887A0F3E70000BC1F0020F6
:101EA0003D3D3D3D3D3D3D3D3D3D3D3D43616C69DD
:101EB00062726174696F6E20696E666F726D6174B3
:101EC000696F6E3D3D3D3D3D3D3D3D3D3D3D0A0023
:101ED000537973536574696E672E415044565F4C55
:101EE0004F573A25640A0000537973536574696E3D
:101EF000672E415044565F4D49443A25640A00001C
:101F0000537973536574696E672E415044565F4828
:101F100049473A25640A0000344B687A43616C5F94
:101F20004C4F573A2564434D0A000000344B687A01
:101F300043616C5F4D444C3A2564434D0A000000F8
:101F4000344B687A43616C5F4849473A2564434D96
:101F50000A00000032304B687A43616C5F4C4F5787
:101F60003A2564434D0A000032304B687A43616C75
:101F70005F4D444C3A2564434D0A000032304B68B3
:101F80007A43616C5F4849473A2564434D0A000033
:101F9000344B687A4761696E5F4C4F573A25640A43
:101FA00000000000344B687A4761696E5F4D444C15
:101FB0003A25640A00000000344B687A4761696E74
:101FC0005F4849473A25640A0000000032304B68F8
:101FD0007A4761696E5F4C4F573A25640A000000EA
:101FE00032304B687A4761696E5F4D444C3A2564E4
:101FF0000A00000032304B687A4761696E5F4849D9
:10200000473A25640A00000054656D7043616C3ADC
:10201000256631A1E60A000043616C696272617451
:10202000696F6E2073756363657373A3A10A000003
:102030003D3D3D3D3D3D3D3D3D3D3D3D3D3D3D3DD0
:102040003DB1EAB6A8D0C5CFA23D3D3D3D3D3D3DA9
:102050003D3D3D3D3D3D3D3D3D3D3D3D3D0A00005D
:10206000B1EAB6A8B3C9B9A6A3A10A0043616C69D5
:1020700062726174696F6E206661696C757265A3C6
:10208000A10A00003D3D3D3D3D3D3D3D3D3D3D3DC9
:102090003D3D3D3D3D3D3D3D3D3D3D3D3D3D3D3D70
:1020A0003D3D3D3D3D3D3D3D3D3D3D3D3D3D3D3D60
:1020B0005C6E0A00B1EAB6A8CAA7B0DCA3A10A0008
:1020C000044910B50120087000F022FEBDE8104060
:1020D00001F024BC44000020094890F8281090F832
:1020E0003A0029B1012801D006A004E00BA002E0CB
:1020F000012802D00DA002F057BF11A0FBE700009D
:10210000BC1F00204E6F772069732066726F6E745B
:102110002062617365A3A10A00000000CFD6D4DA63
:10212000CAC7C7B0BBF9D7BCA3A10A004E6F7720BE
:102130006973206261636B2062617365A3A10A0009
:10214000CFD6D4DACAC7BAF3BBF9D7BCA3A10A0069
:102150000548054990F83A008989012802D003A072
:1021600002F022BF08A0FBE7BC1F00205377697470
:102170006368207468726573686F6C642069733A71
:10218000202564636D0A0000BFAAB9D8C3C5CFDE9D
:10219000CEAA3A202564636D0A00000010B50446FB
:1021A000401EFF2802D309A002F0FEFE0B4800F8F3
:1021B000394F4078012807D009A000BF02F0F4FE93
:1021C000BDE8104001F038BE08A0F7E75365742061
:1021D0004661696C6420210A00000000BC1F0020D9
:1021E000536574206F6B210A00000000C9E8D6C354
:1021F000B3C9B9A6210A000070B5204D044642F2C9
:102200001076B0F5965F1DD0B4F5165F1AD0B4F510
:10221000164F17D0B4F5E13F14D0B4F57A3F11D082
:10222000B4F5E12F0ED0B4F5612F0BD0304602F09B
:1022300071FB95F83A0001281CD011A0BDE8704050
:1022400002F0B2BE2868A04216D02C6095F83A0081
:1022500001280DD00DA000BF02F0A6FE304602F00E
:1022600059FB01F0E9FD2046BDE87040FFF7FEBBD9
:1022700009A0F1E70BA0E1E770BD0000BC1F002042
:10228000536574206572726F72210A005365742061
:102290006F6B210A00000000C9E8D6C3B3C9B9A614
:1022A000210A0000C9E8D6C3CAA7B0DC210A000091
:1022B00000EBC00101EB00114FF6FF7202EA810151
:1022C000094A10B51180094991F83A1001290146CF
:1022D00007D007A002F068FEBDE810400D4802F0EC
:1022E00019BB0DA0F6E700001E000020BC1F002057
:1022F000536574207468652063616C6962726174EF
:10230000696F6E2064697374616E63652025646D06
:102310003A0A0000A0860100B1EAB6A8BEE0C0EB10
:10232000C9E8B6A8CEAA25646D3A0A0030B50446BD
:102330001A4899B00078002808D14CB14FF47A704F
:10234000844207DD16A000BF02F02EFE19B030BD9A
:1023500019A0F9E71C491D4D91FBF4F2521E0F2CF8
:1023600004DC90FBF4F040F2E73200E000206880EB
:102370003F21174802F0D6FB64216846FEF7F6F8C5
:102380006B88224613A16846FDF7A6FF684602F057
:102390000BFE1648848001F04FFDD7E70B000020AC
:1023A000B3ACB9FDBFC9C9E8D6C3CAE4B3F6C6B574
:1023B000C2CA210D0A000000C9E8D6C3B1D8D0EBCB
:1023C000B4F3D3DA310D0A0040420F007800002048
:1023D00000040040C9E8D6C3CAE4B3F6C6B5C2CA11
:1023E0002564485A2025640D0A000000BC1F002007
:1023F000114910B50F4A4B8938B149F64040C824FD
:10240000834200D04881148006E04FF48774322064
:10241000A34200D04C81108091F83A00012807D0E7
:1024200006A000BF02F0C0FDBDE8104001F004BDF1
:1024300005A0F7E714000020BC1F0020536574209E
:102440006F6B210A00000000C9E8D6C3B3C9B9A662
:10245000210A00000E4A10B5431E92F83A10B3F557
:10246000C87F0BD2D080012906D00AA002F09CFDC3
:10247000BDE8104001F0E0BC09A0F7E7012904D055
:102480000AA0BDE8104002F08FBD0BA0F9E70000E4
:10249000BC1F0020536574206F6B210A00000000F0
:1024A000C9E8D6C3B3C9B9A6210A00005365742090
:1024B0006572726F72210A00C9E8D6C3CAA7B0DC80
:1024C000210A00000B4910B581F8280091F83A1054
:1024D00028B1012901D008A004E00DA002E00129E3
:1024E00006D010A002F060FDBDE8104001F0A4BCD1
:1024F00011A0F7E7BC1F002046726F6E7420626166
:10250000736520736574206F6BA3A10A000000003F
:10251000C7B0BBF9D7BCC9E8D6C3B3C9B9A6A3A194
:102520000A0000004261636B20626173652073657D
:1025300074206F6BA3A10A00BAF3BBF9D7BCC9E83A
:10254000D6C3B3C9B9A6A3A10A000000074910B5B4
:10255000888191F83A00012806D005A002F024FDF8
:10256000BDE8104001F068BC0AA0F7E7BC1F0020DE
:10257000537769746368207468726573686F6C64FC
:102580002073657474696E67206973206F6BA3A1F3
:102590000A000000BFAAB9D8C1BFC3C5CFDEC9E8D1
:1025A000D6C3B3C9B9A6A3A10A00000003490220FB
:1025B000087003490020087000F040BA0B000020AA
:1025C0000100002070B500F0A3FB01F0A7F9184C42
:1025D000E08A08B9E08B68B194F83A00012825D068
:1025E00014A000BF02F0E0FCBDE8704042F21070A1
:1025F00002F090B944F62065284602F08BF994F871
:102600003A00012810D018A002F0CEFC284602F0B3
:1026100081F91E49012008701D4908701D49087084
:102620001D490A20088070BD1CA0EDE724A0D9E751
:10263000BC1F00204572726F723A20746865206D6D
:10264000616368696E652063616C69627261746957
:102650006F6E20686173206265656E2066696E69C1
:1026600073686564A3A10A003D3D3D3D3D3D3D3D90
:102670003D3D73746172742063616C696272617450
:10268000696F6E3D3D3D3D3D3D3D0A00020000202D
:10269000010000200B000020140000203D3D3D3DC6
:1026A0003D3D3D3D3D3D3D3D3DBFAACABCB1EAB6C5
:1026B000A83D3D3D3D3D3D3D3D3D3D3D3D3D0A004F
:1026C000B4EDCEF3A3BAB8C3BBFAC6F7D2D1B1EA20
:1026D000B6A8CDEAB3C9A3A10A00000003490120AE
:1026E000087003490020087000F0A8B90B00002012
:1026F0000100002010B500F0B1FA094890F83A0046
:1027000001280BD007A000BF02F04EFC01F094FBA3
:10271000BDE8104044F6206002F0FCB804A0F3E7E6
:10272000BC1F0020536574206F6B210A000000005D
:10273000C9E8D6C3B3C9B9A6210A0000074910B534
:102740000020087006490870012000F077F9BDE804
:1027500010400821034800F0D1BC00000B0000200D
:1027600004000020000C01400249012008700249C9
:1027700008707047010000200B0000200349002072
:102780000870034901200870704700000100002014
:102790000B00002070B5094DFF231A4605F5807621
:1027A00006E000BF10F8014B54402A5D5A40335DEB
:1027B000491E89B2F6D242EA032070BD14640008B3
:1027C0000A48017D00290FD18C21C1814FF482710B
:1027D00001824FF4BE71418201210175044900203C
:1027E0004883012001F034BB70470000BC1F00206B
:1027F000000000202DE9F0474C4D80460F466881CF
:10280000084601F025FB4A4C002642F2107AE08986
:10281000401C81B2E181B1F5FA7F73D9608AA0F5DD
:10282000A060DC3800D5404232286BDA208EE18B84
:1028300044F62069401A6085484602F06BF895F826
:102840003A00B4F92A1001280BD03AA002F0ACFBF0
:10285000484602F05FF8B4F92A00002803DB01467D
:1028600002E03CA0F2E74142B1F5967F15DD6685B6
:102870004D46484602F04EF841463BA002F094FB1C
:10288000284602F047F840A002F08EFB284602F0EE
:1028900041F8A6706670E67230E0B8F5877F05D023
:1028A000B7B1012F18D0022F1DD119E027B1012F88
:1028B00006D0022F17D107E0E882208BA88512E00E
:1028C0006883208BE8850EE0A883208B28860AE0A9
:1028D000E883208B688606E02884208BA88602E0A7
:1028E0006884208BE886504602F014F8414632A0F6
:1028F00002F05AFBA08EA88401F09EFAE681BDE8A2
:10290000F087FFE7B1F5487FF9D966855446504610
:1029100002F000F841462CA002F046FB204601F0F0
:10292000F9FF19A002F040FB00F06EFDBC1F002073
:10293000000000200A43616C6962726174696F6E05
:1029400020646966666572656E6365A3BA25644333
:102950004D0A00000AB1EAB6A8B2EED6B5A3BA2570
:1029600064434D0A000000002564485AB1EAB6A845
:10297000CAA7B0DC3A20BEE0C0EBCEF3B2EEB9FDA0
:10298000B4F3A3A10A0000003D3D3D3D3D3D3D3D6A
:102990003D3D3D3D3D3DB1EAB6A8CAA7B0DC3D3D59
:1029A0003D3D3D3D3D3D3D3D3D3D3D3D3D3D3D3D57
:1029B0003D3D3D3D0A0A00002564485AB1EAB6A8EB
:1029C000CDEAB3C9210A00002564485AB1EAB6A885
:1029D000CAA7B0DC3A20D0C5BAC5B2BBD5FDB3A3F7
:1029E000A3A10A0070B5054610488088400803F08E
:1029F0006DF906460C46284603F0BCFB03F06EFB5F
:102A00006FF00F0203F048FC3246234603F072F9E0
:102A1000074A084B03F06EF90022074B03F074FAE3
:102A200002F08CFEBDE8704003F084BB5200002031
:102A3000D0BE4DDAAFFA3D4000E07A404FF48061FD
:102A400008B1034801E00248001D01607047000022
:102A5000100C014010B54FF40054204600F09EF8D1
:102A600000280CD00649012081F8CA00010205485F
:102A700000F044FB2046BDE8104000F005B810BD52
:102A800016220020000C0140C10002D50249086056
:102A90007047024948607047040402400000024049
:102AA0000029016802D041F0010102E04FF6FE72F8
:102AB000114001607047000001684FF6FE7211403E
:102AC00001600021016041608160C1603149314A8B
:102AD0000839904203D1486840F00F0006E02D4AC3
:102AE0001432904204D1486840F0F00048607047CA
:102AF000284A2832904203D1486840F47060F5E7D4
:102B0000244A3C32904203D1486840F47040EDE7DB
:102B1000204A5032904203D1486840F47020E5E7E3
:102B20001C4A6432904203D1486840F47000DDE7EB
:102B3000184A7832904203D1486840F07060D5E777
:102B4000154A111F904203D1086840F00F0006E0BB
:102B5000114A1432904204D1086840F0F000086035
:102B600070470D4A2832904203D1086840F47060E3
:102B7000F5E7094A3C32904203D1086840F47040BE
:102B8000EDE7054A50329042EAD1086840F47020DF
:102B9000E5E700000800024008040240014600206A
:102BA000CA0001D5034A00E0034A12680A4200D075
:102BB000012070470004024000000240002A026821
:102BC00001D00A4300E08A430260704730B50368D1
:102BD00047F6F07293430C6A8A682243D1E90445B0
:102BE0002C4322438C692243CC6922434C6A224302
:102BF0008C6A22431A430260CA6842600A68826093
:102C00004968C16030BDF0B50F46054601218BB063
:102C10001E461446084600F0EFFC3046FFF74CFF16
:102C20001020CDE9020400218020CDE904108001AC
:102C30000691CDE908100A91CDE900570791694640
:102C40003046FFF7C3FF01213046FFF729FF01227D
:102C500002213046FFF7B2FF0BB0F0BD10B523489C
:102C60004FF4E1314FF49672016064218180C2809B
:102C7000012303814FF48774448181815F21C181E5
:102C8000962101824FF4AF71418200210175C1820A
:102C900041838183C183018441848185C18501860B
:102CA00041868186C18601768284C822C28480F8EA
:102CB0002810142480F82940042480F82A4080F841
:102CC000381080F8393080F83A10C26343F6982201
:102CD000026480F84410A0F84610A0F84810A0F84C
:102CE0004A10A0F84C10A0F84E1010BDBC1F0020D8
:102CF00070B5064D0324284600F0CFFA641EA4B236
:102D0000012801D0002CF6D170BD000000FC0008A5
:102D100040220249024800F0D3BA000014210020EA
:102D200000FC000810B5FFF7E3FFBDE810404022AB
:102D30000149024800F0D2BA1421002000FC00082A
:102D40003C20401E10F0FF00FBD1704700B5064844
:102D5000FEF70AFC4FF00210FEF706FC4FF48070FD
:102D600000F004F8012000BD0730550040F4803029
:102D7000FEF7FABB70B505464FF43026304600F03A
:102D80009FF8042811D1094C206940F0020020610D
:102D90006561206940F040002061304600F090F805
:102DA000216941F6FD721140216170BD0020024091
:102DB00008490420CA68D20701D001207047CA68B8
:102DC000520701D502207047C968C906FBD5032008
:102DD00070470000002002400248016941F0800174
:102DE000016170470020024004490A6822F0100285
:102DF0000A600A6802430A6070470000002002402F
:102E0000F0B506464FF400570D46384600F058F826
:102E100004280CD1064C206940F001002061358067
:102E2000384600F04DF82169BA1E11402161F0BD0D
:102E300000200240034A116801F03801014311608B
:102E400070470000002002400348024941600349E6
:102E5000416070472301674500200240AB89EFCDF8
:102E60002DE9F041134C0746114816460D46A06067
:102E70001148A0604FF40058404600F021F80428A3
:102E800013D1206940F01000206135430B493D43C8
:102E900045F0F8000880404600F012F8052804D0FC
:102EA000216941F6EF7211402161BDE8F081000017
:102EB0002301674500200240AB89EFCD02F8FF1FD8
:102EC00000B50346FFF774FF03E000BFFFF770FF94
:102ED0005B1E012803D0002B00D1052000BD002B74
:102EE000F4D1FAE72DE9F05F07460A004FF0000041
:102EF00001460DD02F4CDFF8B8800023268898F8C3
:102F00000C50921B4FF47A7B9A46561EC14623E022
:102F10000020BDE8F09F00BF07EB830537F8238052
:102F2000AD88A5EB08052DB2C846A9F824505D452B
:102F300003DD89F80830012510E0002D08DA6D4224
:102F40005D4505DD88F8083089F80930022505E07F
:102F5000002589F808A05B1C9E42DDD889F80C503A
:102F600025B1012D14D0022D10D111E000235546BA
:102F700005E000BF57F82360301869415B1C9A4296
:102F8000F8D80023FDF730F9844625806046C0E775
:102F900099F808605546731C06E000BF57F823C037
:102FA0001CEB000069415B1C9A42F7D8921BE8E7D2
:102FB0000000002058000020074B10B503440020FB
:102FC00005E000BF13F8014B01F8014B401C904293
:102FD000F8D3012010BD000014210020074B10B5CC
:102FE0000344002005E000BF11F8014B03F8014B3A
:102FF000401C9042F8D3012010BD00001421002095
:10300000F0B5CA78002502F00F03D20601D58A7800
:1030100013430A784FF00F0E12F0FF0F4FF001022A
:103020001CD004680F8802FA05F63740B74211D168
:103030004FEA850C0EFA0CF724EA070703FA0CF4A2
:103040003C43CF78282F02D0482F02D002E04661BF
:1030500000E006616D1C082DE4D304600C88FF2C91
:103060001ED944685FF0000606F1080702FA07F56A
:103070000F882F40AF420FD14FEA860C0EFA0CF7A3
:10308000BC4303FA0CF73C43CF78282F00D14561AD
:10309000CF78482F00D10561761C082EE4D3446018
:1030A000F0BD0000F0B5144C002801DAE36900E03F
:1030B0006368420D120185B2C0F301579540C0F319
:1030C0000346032F05D0C2020AD50322B240934320
:1030D00007E023F07062636823F07063636002E0CE
:1030E000AB4343F0706201B12A43002801DAE26188
:1030F000F0BD6260F0BD000000000140416170471A
:103100000161704700210D4A00284FF00A000DD0E0
:1031100032F82030401C19442828F9D31E20B1FB76
:10312000F0F04CF640614843000C704702EB80031E
:10313000401C5B8828281944F8D3EFE74C20002076
:10314000F0B589B005461BA424221D496846FDF749
:10315000B9F922780C216B46491E01EB4100184455
:103160000678964209D146786778BE4205D18078C4
:10317000A678B04201D1491C01E00029ECD1607A67
:10318000A37A303800EB80006FF02F0202EB400092
:1031900018442870697020796179202808D0303867
:1031A00000EB800002EB40000844A87009B0F0BDBD
:1031B0000020F5E744656320313520323031380096
:1031C000F0630008F0B507460024094E094D07E0FA
:1031D00056F83400394600F087FE012806D0641CFA
:1031E00028788442F4DB4FF0FF30F0BD2046F0BD7C
:1031F00024630008EC63000810B50C4604E02D2B96
:1032000007D05AB1401C521E0378A3F130010A299D
:10321000F5D200F051FE2060012010BD002010BD4D
:10322000FEE7000038B51D208DF8000003208DF862
:10323000010002258DF8025001248DF803406846F4
:1032400000F0A6F80E204FF0E022A103C2F8801291
:103250008DF800008DF801508DF802408DF8034084
:10326000684600F095F80121014800F068FF38BD7C
:10327000000400400EE0CB7800F8013B8B7800F8AA
:10328000013B4B7800F8023B11F8043B521E00F85A
:10329000013C92B2002AEED1704770B50446FFF7A8
:1032A000D3FD2046FFF766FD0546FFF795FD042D8B
:1032B00002D12068401C01D0002070BD012070BDEB
:1032C00010B5002305E000BF30F8134021F8024B91
:1032D0005B1C9342F8D3012010BD00002DE9F041A2
:1032E00016460D460746FFF7AFFD00240EE000BF6F
:1032F00035F8021B07EB4400FFF782FD042804D0D9
:10330000FFF76AFD0020BDE8F081641CB442EFD3F2
:10331000FFF762FD0120F6E770B5174C174D661CEC
:1033200001284FF050001FD001F0CEFB144980203F
:1033300001F0DAFB1349812001F0D6FB21468320FE
:1033400001F0D2FB2946822001F0CEFB31468420D9
:1033500001F0CAFB2921852001F0C6FBBDE87040C1
:103360003821862001F0C0BB01F0AEFB0649802069
:1033700001F0BAFB0549DEE741000020570000A03C
:10338000122F1400230042211227240023004101A0
:1033900070B50F23C47801780122F4B1144C24686D
:1033A000457804F4E064C4F5E064240AC4F104063A
:1033B000E3408478B5401C402C4301F1E021230117
:1033C00081F80034007800F01F018A404009800035
:1033D00000F1E020C0F8002170BD01F01F00824024
:1033E0004809800000F1E020C0F8802170BD000095
:1033F0000CED00E0024908430249086070470000F4
:103400000000FA050CED00E0BFF34F8F044801689F
:10341000044A01F4E06111430160BFF34F8FFEE7FE
:103420000CED00E00400FA0510B501F0E1FAFFF739
:103430008DFC02F023F90E48012101600221016098
:10344000C11401600120FFF7F9FA0A48B0F90E0033
:1034500000F014F84FF4FA7002F0A6F840F2AA5007
:1034600002F0ACF8BDE81040034801F053BA000088
:10347000140C0140BC1F0020A086010007490A88E7
:10348000904201DD4A8003E0002800DA00204880F5
:1034900049884FF0804000F067BF00005A000020CC
:1034A00010B500280CD00022026019B105A1FCF76C
:1034B00013FF04E00022134604A1FCF70DFF0620D1
:1034C00010BD00002D2D2D0D0A000000252E3166A7
:1034D0000D0A000010B5702001F0F6FA052001F089
:1034E0007FFA05490120086000BF00BF00BF024904
:1034F000091D086010BD0000100C014070B50120CE
:10350000FFF700FE05460A2001F004FA05484FF4D3
:1035100000640460322001F0FDF90248001D0460DF
:10352000284670BD100C014030B589B00121032040
:1035300000F06EF801210C2000F082F80820ADF8B0
:103540001C0018208DF81F0003208DF81E0007A90D
:103550002248FFF755FD002440F2CF70ADF814006B
:10356000ADF810404FF08045ADF81240ADF8164070
:103570008DF8184004A9284600F0FAFE6020ADF846
:1035800000000120ADF802000420ADF80400800125
:10359000ADF80C00ADF80840ADF80640ADF80A40B3
:1035A000ADF80E406946284600F0A2FE08212846E4
:1035B00000F0D0FE0121284600F0B4FD012128468C
:1035C00000F0C0FD0121284600F0C6FD04484FF47C
:1035D000FA7144808480018009B030BD0008014048
:1035E0005A000020034A516821F4404101435160D0
:1035F0007047000000100240044A0029516901D0C0
:10360000014300E081435161704700000010024017
:10361000044A0029D16901D0014300E08143D1610E
:103620007047000000100240044A0029116901D0CF
:10363000014300E081431161704700000010024027
:10364000044A0029916901D0014300E0814391615E
:103650007047000000100240044A0029D16801D0E0
:10366000014300E08143D160704700000010024038
:103670000C48016841F00101016041680A4A1140AB
:1036800041600168094A11400160016821F480210C
:103690000160416821F4FE0141604FF41F01816027
:1036A00070470000001002400000FFF8FFFFF6FE28
:1036B00030B51F494A6812F00C031E4A03D0042B90
:1036C00001D0082B21D002604A680F231A4C03EA6C
:1036D0001212A35C0268DA4042604B68072505EAD3
:1036E0001323E35C22FA03F383604B6805EAD323D8
:1036F000E35CDA40C2604968032303EA9131231F87
:10370000595CB2FBF1F1016130BD4A684B6802F4CB
:1037100070124FF0020413F4803F04EB924202D087
:103720004B689B0301D5054B00E0024B5A43CAE7A7
:103730000010024000127A006400002000093D00E1
:103740000246002053090949012B0BD0022B0BD054
:10375000D1F8241002F01F02012393400B4200D045
:10376000012070470968F5E7096AF3E70010024095
:103770000248406800F00C00704700000010024052
:10378000034A516821F0F001014351607047000085
:1037900000100240014908607047000000004242EA
:1037A000034A516821F4E061014351607047000011
:1037B0000010024003494A6822F4605242EAC00005
:1037C00048607047001002400149086670470000D9
:1037D00000004242034A5368084323F47C13184311
:1037E0005060704700100240034A516821F0030105
:1037F00001435160704700000010024010B50024E2
:10380000B42001F045F90449000C10F4C06F0860C1
:1038100000D00124204610BD40000020002901886E
:1038200002D041F0400101E021F0400101807047E9
:1038300030B502884C8802F441530A88CD8822436F
:103840008C882C4322430C8922434C8922438C8947
:103850002243CC8922431A430280828B22F40062E5
:103860008283098A018230BD2DE9F04391B006467A
:1038700001208DF8300000248DF831000B944FF4B6
:103880006020CDE90D040220224F0D468DF83C004A
:10389000994690460BA93846FDF7B6FEF1B20323D0
:1038A00001223846FDF7D4FEE9B20323012238464F
:1038B000FDF7CEFE184D2846FFF7FEF81548CDF867
:1038C0000C904C300090CDE901848020CDE904407B
:1038D0004000069080000790202008904FF4405050
:1038E000CDE9090469462846FFF770F90121284609
:1038F000FFF7D6F801213846FDF76EFE0121384664
:10390000FDF760FE01213846FDF7E1FE11B0BDE88C
:10391000F0830000002401400800024070B55022EE
:1039200071490020FFF748FB70486F4C017800296F
:103930002AD094F83A2000214FF4877642F210758D
:10394000012A017025D06AA001F02EFB284600F064
:10395000E1FF75A0216801F027FB284600F0DAFF9F
:10396000A18875A001F020FB284600F0D3FFE28873
:10397000218977A001F018FB284600F0CBFF608971
:10398000B04277D176A076E07B4994F83800087091
:1039900070BD7AA001F008FB284600F0BBFF84A0B0
:1039A000216801F001FB284600F0B4FFA18883A044
:1039B00001F0FAFA284600F0ADFFE288218983A0E1
:1039C00001F0F2FA284600F0A5FF6089B04201D16B
:1039D00082A000E086A001F0E7FA284600F09AFFF6
:1039E000618988A001F0E0FA284600F093FFA189E0
:1039F00089A001F0D9FA284600F08CFFA18C8AA09A
:103A000001F0D2FA284600F085FF94F8292094F8B6
:103A10002A1089A001F0C8FA284600F07BFFE08A4E
:103A200008B18BA000E08FA001F0BEFA284600F09C
:103A300071FF94F8280008B190A000E094A001F074
:103A4000B3FA284600F066FF94F8380008B195A054
:103A500000E09AA001F0A8FA284600F05BFF0020E1
:103A6000FEF712F999A001F09FFA2846BDE87040D0
:103A700000F050BFA2A001F097FA284600F04AFFDC
:103A8000A189A6A001F090FA284600F043FFA18C7E
:103A9000A8A001F089FA284600F03CFF94F82920FC
:103AA00094F82A10ABA001F07FFA284600F032FF0C
:103AB000E08A08B1AFA000E0B5A001F075FA284691
:103AC00000F028FF94F8280008B1B8A000E0BFA0DB
:103AD00001F06AFA284600F01DFF94F8380008B19A
:103AE000C1A0B7E7CCA0B5E7BC1F00204400002070
:103AF0003D3D3D3D3D3D3D3D3D3D3D3D3D3D3D3DF6
:103B0000466163746F72792056657273696F6E3D9A
:103B10003D3D3D3D3D3D3D3D3D3D3D3D3D3D3D3DD5
:103B20003D3D3D0A000000004261756420726174F1
:103B3000653A25640A0000004D6561737572652061
:103B40006672657175656E63793A2564485A0A0034
:103B500052616E67653A25646D7E25646D0A0000CA
:103B600050756C7365206672657175656E63793A20
:103B700034303030485A0A00040000203D3D3D3DBD
:103B80003D3D3D3D3D3D3D3D3D3D3D3D3D3D3DB3EF
:103B9000F6B3A7D0C5CFA23D3D3D3D3D3D3D3D3DAA
:103BA0003D3D3D3D3D3D3D3D3D3D3D3D3D3D0A00B5
:103BB000B2A8CCD8C2CA3A25640A0000B2E2C1BF9A
:103BC000C6B5C2CA3A2564485A0A0000C1BFB3CC80
:103BD0003A25646D7E25646D0A000000C2F6B3E5E7
:103BE000C6B5C2CA3A34303030485A0A0000000024
:103BF000C2F6B3E5C6B5C2CA3A3230303030485AA0
:103C00000A000000C2F6B3E5D6D8B8B4C6B5C2CA39
:103C10003A25640A00000000BFAAB9D8C1BFC3C5D5
:103C2000CFDE3A25646D0A00B1EAB6A8CEC2B6C8A6
:103C30003A256631A1E60A00B5E7C1F7BBB7C1BFB7
:103C4000B3CC3A25646D417E25646D410A000000C5
:103C5000B1EAB6A8BDE1B9FB3AB1EAB6A8CDA8B9B8
:103C6000FD0A0000B1EAB6A8BDE1B9FB3AB1EAB677
:103C7000A8CEB4CDA8B9FD0A00000000B1EAB6A8EC
:103C8000BBF9D7BC3AC7B0BBF9D7BC0A00000000EB
:103C9000B1EAB6A8BBF9D7BC3ABAF3BBF9D7BC0AAC
:103CA00000000000BFAABBFAD7D4B6AFD4CBD0D0A7
:103CB000C1ACD0F8B2E2C1BF0A000000BFAABBFA93
:103CC000B2BBD7D4B6AFD4CBD0D00A003D3D3D3D3A
:103CD0003D3D3D3D3D3D3D3D3D3D3D3D3D3D3D3D14
:103CE0003D3D3D3D3D3D3D3D3D3D3D3D3D3D3D3D04
:103CF0003D3D3D3D3D3D3D3D3D3D3D3D3D0A0000A1
:103D000050756C7365206672657175656E63793A7E
:103D10003230303030485A0A00000000537769745E
:103D20006368207468726573686F6C643A25646DAB
:103D30000A00000043616C6962726174696F6E20F1
:103D400074656D70657261747572653A256631A12E
:103D5000E60A000043757272656E74206C6F6F70B6
:103D60002072616E67653A25646D417E25646D4100
:103D70000A00000043616C6962726174696F6E20B1
:103D8000726573756C743A506173730A00000000B9
:103D900043616C6962726174696F6E2072657375DC
:103DA0006C743A4661696C0A0000000043616C69FA
:103DB00062726174696F6E20626173653A46726FF8
:103DC0006E7420626173650A0000000043616C69D3
:103DD00062726174696F6E20626173653A426163F9
:103DE0006B20626173650A00426F6F7420617574A5
:103DF0006F6D61746963616C6C792072756E20639C
:103E00006F6E74696E756F7573206D656173757211
:103E1000656D656E740A0000426F6F7420646F6593
:103E200073206E6F74206175746F6D617469636166
:103E30006C6C790A0000000010B550220349002084
:103E4000FFF7CCF8BDE81040FEF76CBFBC1F0020A8
:103E5000134910B50A78824201D1002010BD0870C4
:103E6000104920B1012809D002280FD110E0B1F982
:103E70000E00FFF703FB40F2AA5005E0B1F9100075
:103E8000FFF7FCFA40F2325001F098FB012010BD20
:103E9000B1F91200FFF7F2FA40F2CE40F4E7000069
:103EA00005000020BC1F002064230121014A0020DE
:103EB000FFF7DABC4C20002010B5002103780A4639
:103EC0002D2B07D1012204E001EB8101490030399B
:103ED0001944401C0378A3F13004092CF4D90AB129
:103EE000484210BD084610BD05E09A4201D00020AE
:103EF0007047401C491C027812B10B78002BF4D19A
:103F00000120704710B5FEF703FFFFF707FD134CC4
:103F10002068B0F5165F12D0B0F5164F0FD0B0F58F
:103F2000E13F0CD0B0F57A3F09D0B0F5E12F06D0D3
:103F3000B0F5612F03D0FEF791FEFFF77DFF628998
:103F40000748A2F51C41403906D032210180206883
:103F5000BDE81040FDF78ABDC821F7E7BC1F00206F
:103F6000140000204FF0E0200021816101617047C2
:103F700002480188491C018070470000760000203B
:103F8000704700001FB5FDF757FCFDF78FFC4FF49D
:103F90008060FFF72FFA0121CC022046FFF750FB8B
:103FA00001212046FFF758FB00212046FFF754FB74
:103FB00019208DF80C0002208DF80D0001208DF8DD
:103FC0000E008DF80F0003A8FFF7E2F93B20ADF8D3
:103FD00004003F20ADF8000000201C4CADF80600A6
:103FE000ADF802006946204600F0C2F901212046E2
:103FF00000F0A2F801214802FFF722FB144C012136
:104000002046FDF7DFFA2046FDF75CFB2046FDF772
:10401000F4FA0028FAD12046FDF763FB2046FDF7AD
:10402000E5FA0028FAD101210846FFF7E5FAFDF785
:104030008DFCFDF7D1FCFFF777FAFFF793FF04B093
:104040004FF4E130BDE81040FDF710BD002C0140F9
:104050000024014000F0AABA10B52448018809B133
:10406000491E01802249234A0978127811432CD035
:104070002149097849BB214C94F8CA1029B3018819
:1040800019BB418801801E48007EF0B14FF4807159
:104090001C48FFF735F81C48006808B301F016FE0D
:1040A00000221A4B01F038FC02460B4618A12046AC
:1040B000FCF712F91148FCF7E6F981B224F8C81FA1
:1040C0000020A0700D4800F04BFB134C012120464E
:1040D00000F032F82046BDE81040012100F02FB872
:1040E0000EA10648FCF7F8F8E4E70000780000208D
:1040F0000B000020040000200200002016220020F7
:10410000BC1F0020000C01402C0000200000594082
:10411000252E32666D0D0A00000400402D2D2D0D58
:104120000A0000000029018802D041F0800101E06E
:1041300021F0800101807047C94301827047C94363
:10414000018270470029018802D041F0010101E09D
:1041500021F0010101807047002930F8441F02D08E
:1041600041F4004101E0C1F30E01018070470000FD
:104170004B4910B5884202D10121C41486E0B0F148
:10418000804F09D0474988420DD101210220FFF715
:104190004BFA0021022064E001210846FFF744FAAF
:1041A000002101205DE04049884206D10121042020
:1041B000FFF73AFA0021042053E03C49884206D137
:1041C00001210820FFF730FA0021082049E0384992
:1041D000884206D101211020FFF726FA0021102085
:1041E0003FE03449884206D101212020FFF71CFA24
:1041F0000021202035E03049884202D101214414B9
:1042000044E02E49884202D10121CC043EE02C49F1
:10421000884202D101210C0538E02A49884202D1A6
:1042200001214C0532E02849884206D10121402075
:10423000FFF7FAF90021402013E02449884206D113
:1042400001218020FFF7F0F90021802009E02049BA
:1042500088420AD1841501212046FFF7E5F90021A3
:104260002046BDE81040FFF7DFB91A49884202D165
:1042700001210C040AE01849884202D101214C04B2
:1042800004E0164988420AD101218C042046FFF738
:10429000E3F92046BDE810400021FFF7DDB910BD6D
:1042A000002C01400004004000080040000C0040C9
:1042B000001000400014004000340140004C014058
:1042C000005001400054014000180040001C004014
:1042D00000200040004001400044014000480140EF
:1042E000002A828901D00A4300E08A438281704714
:1042F00070B5028C22F480520284048C8288838BF5
:104300000D8823F4E6464FF6FF7303EA052535438F
:1043100024F400560C8903EA043434434E8803EA3B
:1043200006362643094CA04202D0094CA04205D1D2
:1043300022F480448A8903EA8212224382808583A0
:10434000C988A0F84010068470BD0000002C014010
:1043500000340140828B4FF6FF7322F4006203EABF
:104360000121114381837047A0F84010704700007D
:1043700030B502881B4B1C4C98420DD0A0420BD08C
:10438000B0F1804F08D0194DA84205D0184DA84271
:1043900002D0184DA84203D122F070054A882A4362
:1043A000154DA84206D0154DA84203D022F4407501
:1043B000CA882A4302808A8882850A8802859842B0
:1043C0000AD0A04208D00E4A904205D00D4A904231
:1043D00002D00D4A904201D1097A018601218182E1
:1043E00030BD0000002C01400034014000040040BA
:1043F00000080040000C0040001000400014004085
:1044000000400140004401400048014070B50121D6
:104410000220FFF7FDF82F4D40F2E73632463F21EC
:10442000284600F07FFBFEF7FDFE2B4900222B4CB7
:10443000087EFF280DD0012815D002283ED028A0E4
:1044400000F0B2FDB4F8C810BDE87040234800F099
:1044500087B90A76FEF702FCFFF7EEFC20A11F48A1
:10446000FBF73AFF30E00220087688884FF47A7331
:10447000984202D98B8032460DE020490F2804D89B
:10448000B3FBF0F03246488005E04A801C49B1FB9E
:10449000F0F0401E82B23F21284600F043FB01208D
:1044A00084F8CA0000210D48C834FEF7F9FF2080C7
:1044B0000A48FBF7E8FF24F8C809C3E700210748CA
:1044C000FEF7EEFFA4F8C8000448FBF7DCFFA4F8F1
:1044D000C800B7E700040040BC1F002016220020DF
:1044E000B5B1C7B0CEAAB1EAB6A8C4A3CABDA3AC41
:1044F000C7EBB1EAB6A8210D0A0000007800002041
:1045000040420F0070B521480088C1B2204890F8A1
:104510008120002A2DD190F8802000251D4B815448
:1045200090F880101B4A491CC9B20C3A80F88010E0
:1045300080290DD24478032C02D0102C03D019E02E
:10454000082905D016E08679A1F10904A64211D107
:10455000104E4FF6FE74361D34801C8824F0010482
:104560001C80138823F001031380012280F881202E
:10457000455470BD074818300580188840F0010088
:104580001880108840F00100108070BD0438014090
:10459000942100200C2C01400348002180F8811058
:1045A00080F8801070470000942100200B494FF6DE
:1045B000FE700880081F018821F001010180074872
:1045C0001038018821F0010101800548012180F89F
:1045D000811090F88020002181547047102C0140F8
:1045E0009421002003480088800601D5FFF78ABF88
:1045F0007047000000380140C9430180704700291E
:10460000818902D041F4005101E021F400518181FF
:1046100070470000F8B5144C00202646009096F82C
:10462000811001291FD121784D291AD16178532990
:1046300017D10E4908702046FEF7C4FD05000BD4C3
:1046400096F880206946601DFEF7D6FD084800EB0D
:10465000C50041680098884796F880102046FBF70F
:1046600063FFFFF799FFF8BD942100205000002060
:1046700024630008002A828A01D00A4300E08A43AA
:104680008282704710B5C1F3421301F01F0401216B
:10469000A140012B07D0022B07D01430002A02685A
:1046A00005D00A4304E00C30F8E71030F6E78A43FF
:1046B000026010BD30B50446008A85B00D464CF648
:1046C000FF710840E98801432182A1894EF6F31069
:1046D0000140A8882A8910436A890A431043A081AF
:1046E000A08A4FF6FF410840A9890143A18268468C
:1046F000FEF7DEFF1948844201D1039800E00298DA
:10470000A189090400EBC00101EB0010296801D563
:10471000490000E08900B0FBF1F06422B0FBF2F147
:1047200009010B096FF018056B4300EB8300A389A7
:104730001D044FF0320306D503EBC000B0FBF2F0CE
:1047400000F0070005E003EB0010B0FBF2F000F012
:104750000F000843208105B030BD00000038014043
:1047600070B5002917D08AB20B4C014623460B487E
:10477000FEF749FA094D01222D1F80212846FFF737
:1047800079FF01212046FEF78BF92846BDE87040ED
:104790000121FFF734BF70BD4400024004380140DE
:1047A000490050EAC12018BF04204A0D18BF40F04C
:1047B000010040F2FF72B2EB515F08BF40F002000F
:1047C000012808BF052070472DE9F0414F1E00EB7E
:1047D000C7010446D1E9000115461E4637F006021E
:1047E0000DD02A46334601F085FA7F1E04EBC7033D
:1047F000D3E9002300F0D4FF37F00602F1D1022FF5
:1048000025D0042F13D0062F18BFBDE8F0812A460B
:10481000334601F06FFAD4E90A2300F0C1FF2A46BB
:10482000334601F067FAD4E9082300F0B9FF2A46BD
:10483000334601F05FFAD4E9062300F0B1FF2A46BF
:10484000334601F057FAD4E9042300F0A9FF2A46C1
:10485000334601F04FFAD4E9022300F0A1FF2A46C3
:10486000334601F047FAD4E90023BDE8F04100F0F7
:1048700097BF0000002213461046014901F04CB8D2
:104880000000F03F012201F007BD00221346104650
:10489000114601F041B830380A2801D20120704792
:1048A0000020704770B515460C4600262BE02529E0
:1048B00003D000BF00F8011B24E014F8011F662993
:1048C0000AD004DC632922D064291BD107E07329B4
:1048D0000FD0782916D108E014F8016F303E02CDD0
:1048E000324600F0D9FD00260CE002CD00F000FEBB
:1048F00008E002CD03E000BF00F8012B491C0A7854
:10490000002AF9D1641C21780029D0D170BD15F896
:10491000041BCFE73CE000BF00BF00BF00BF00BFEB
:1049200000BF00BF00BF00BF00BF00BF00BF00BF8F
:1049300000BF00BF00BF00BF00BF00BF00BF00BF7F
:1049400000BF00BF00BF00BF00BF00BF00BF00BF6F
:1049500000BF00BF00BF00BF00BF00BF00BF00BF5F
:1049600000BF00BF00BF00BF00BF00BF00BF00BF4F
:1049700000BF00BF00BF00BF00BF00BF00BF00BF3F
:1049800000BF00BF00BF00BF00BF00BF00BF00BF2F
:10499000401EC0D2704700000A4930B4D1E90E234E
:1049A00053EA020403D0984203D2C86304E0C86308
:1049B00001E0904200D98863CA6B896B30BC02A0C9
:1049C00000F0F2BA000000204D61783A2566326DA1
:1049D0002C204D696E3A2566326D0D0A00000000EC
:1049E00002E000BF00BF00BF401EFAD270470000C7
:1049F00010B52048102404606420FFF78BFF1E4B85
:104A000062021A616420FFF785FF5A616420FFF794
:104A100081FF1A616420FFF77DFF184820210160A3
:104A20000460502000F050F84FF42F70FFF772FF31
:104A30001349802000F058F81249812000F054F802
:104A40001149822000F050F84121832000F04CF8F9
:104A50000E49842000F048F82921852000F044F810
:104A60003821862000F040F8BDE810406420FFF7B0
:104A700051BF00001008014000100140100C01401F
:104A80001227240023004202570000A04200002009
:104A900070B50C4910250D6000BF00BF00F098FDF7
:104AA000FF2000F095FD01240602FF2000F090FD9C
:104AB0003043641C042CF7D300BF0249091F0D606A
:104AC00070BD00001408014010B5064910240C60A8
:104AD00000BF00BF00F07CFD00BF0248001F046063
:104AE00010BD00001408014070B50C460C4910259B
:104AF0000D6000BF00BF00F06BFD200E00F068FDF0
:104B0000C4F3074000F064FDC4F3072000F060FD2B
:104B1000E0B200F05DFD00BF0148001F056070BD00
:104B200014080140FEB514460D460646FFF720FB6B
:104B30000021ADF80440ADF80050ADF80610ADF816
:104B4000021069463046FFF713FC01213046FFF79B
:104B5000F3FA012211463046FFF7C2FB012130462D
:104B6000FFF7F0FAFEBD00002DE9F04DC84A002421
:104B700090B0914205DA21F00043934201D805D16B
:104B800020B110B0BDE8F04DFFF77CBEB1F5801F3D
:104B90001BDA53EA000209D0002911DA0120FBF7E1
:104BA00014FD10B0BDE8F04DFFF76FBE0220FBF71B
:104BB0000CFDFFF75FFE10B081F00041BDE8F08D05
:104BC0006FF03504362201F067FB04EB2152C1F38C
:104BD0001308B049A2F2FF33414401F4801282F07D
:104BE0007F6103EB225281F04051009241EA0801BB
:104BF0000022A94B01F088F9044608F10200A74EF3
:104C0000C0F313000D467E44032867D2D6E9002383
:104C1000204600F0D9FF1ED10098002802BFD6E937
:104C2000000110B0BDE8F08D01F039F807460C46E0
:104C30009B4A9C4B01F05EF806460D469A4A9B4BF8
:104C40003846214601F056F810B032462B46BDE8F2
:104C5000F04D00F0A5BD4FF05532954B204629464A
:104C600001F048F80022934B01F042F906460F4646
:104C700022462B461046194601F03CF832463B4688
:104C800001F038F8064600980F46F0B101F007F839
:104C900080468A46824A834B01F02CF832463B46D6
:104CA00001F026F922462B4601F02EF905460C4666
:104CB0007D4A7E4B4046514601F01CF810B02A4612
:104CC0002346BDE8F04D01F01FB90B4610B0324647
:104CD00020462946BDE8F04D01F016B900224FF0FC
:104CE0008043204600F05CFD02460B4620462946E4
:104CF00000F012FE06460F46009800F0D0FFCDE906
:104D0000040132463B461046394600F0F3FF0C9052
:104D100069480C9A4044019009910B46104600F0F6
:104D2000E9FF8246024665488B46C8F151080B46AA
:104D300008F5D72803217844FFF746FD52465B4625
:104D400000F0D8FF0A905E480D9152465B46042160
:104D50007844FFF739FD099B0C9A00F0CBFF84469D
:104D600001980D9B40EA080860460A9A00F018FD79
:104D700083460891B8F1000F4EDD4FF0FF32204618
:104D8000294601F089FA22462B4600F0B3FF8046FF
:104D900000988A4660B3DDE90401414A414B00F0C6
:104DA000A9FF099100905A4640465146089B00F0E1
:104DB000F7FC32463B4600F09DFF099B009A00F04D
:104DC000EFFC4246534601F093F822462B4601F091
:104DD0009BF804460D46DDE90401334A334B00F0ED
:104DE00089FF10B022462B46BDE8F04D01F08CB88B
:104DF0005A464046089B00F0D3FC32463B4600F042
:104E000079FF4246534601F073F810B022462B4614
:104E1000BDE8F04D01F06CB8009840B3DDE9040145
:104E20001F4A204B00F066FF80468A465A462046BD
:104E30002946089B01F068F832463B4600F05AFFCD
:104E40004246534601F060F822462B4601F05CF8DA
:104E500004460D46DDE90401134A144B00F04AFFF5
:104E600010B022462B46BDE8F04D01F04DB80B4680
:104E70005A462046294601F047F832463B4600F0A4
:104E800039FF10B022462B46BDE8F04D01F030B896
:104E90000000F07F645F09000000F03FDE1A0000B0
:104EA000763C7935EF39EA3D0000E0FE422EE63FE0
:104EB0005555D53F0000E03F86EBF9FFDE180000B6
:104EC000DC1800002DE9F0410446304800258142FD
:104ED00005DA21F00042824201D805D124B12046F2
:104EE000BDE8F041FFF7CEBCB1F5801F1BDA52EAF6
:104EF000040008D000290FDA0120FBF766FBBDE8AB
:104F0000F041FFF7C2BC0220FBF75FFBFFF7B2FCEA
:104F100081F00041BDE8F0816FF035053622204672
:104F200001F0BAF9044605EB2150A0F2FF32D00F90
:104F300040F2FF331B1A0D4663F31F55104400F077
:104F4000AEFE06460F4629462046FFF70DFE104AE4
:104F5000104B00F0CFFE04460D460F4A0F4B304673
:104F6000394600F0C7FE22462B4600F019FC0546E4
:104F70000C460B4A0B4B3046394600F0BBFE2A4626
:104F80002346BDE8F04100F00BBC00000000F07FBC
:104F90000EE526157BCBDB3F362BF111F3FE593D99
:104FA00000609F501344D33F0FB410B5A0B023AAA4
:104FB00068462299FFF776FC6946441A802C00DD8A
:104FC00080242146684600F0ADFA20B0204610BC8F
:104FD0005DF814FB00263546FEF7D4FFFEF792FF7E
:104FE000FEF722FAFEF760FF0120FDF727FDFFF72D
:104FF0000DFADFF85480154C4FF47A7A4FF0010B1C
:105000004CF250390027E07A2179084318D0E07932
:1050100038B92782761CE782564502D9002684F8E3
:1050200007B000F015F86D1C062D02D90025FCF71D
:105030005DFBB8F80A10B9FBF1F0FFF76BFC00E07C
:10504000E771FFF7E7FADEE7BC1F00200000002051
:105050002DE9F0418AB04FF000084646CDF80880AF
:10506000CDF80C80142105A8CDF81080FBF77EFA4E
:105070009F4800F00BFB9E4C9E4A303CE08A216B1F
:1050800042F82010401CE082208A401C80B220821E
:10509000A18A88427ED3FCF7B9FBE18A9548FDF7E7
:1050A00021FFFDF79FFC206300F04EFA924D206334
:1050B00095F8281009B10C382063D72802D1A17ABD
:1050C000491CA172E98801EBC10202EB01128B4974
:1050D000B0EB820F7DD200287BD0E062E27A032A17
:1050E00008D0277802AB032277B3097829B10129C8
:1050F00009D027E0FFF750FCB6E00146424680A009
:10510000FFF752FF1EE095F839008DF808008DF882
:10511000092006208DF80A0001227549D81CFEF7E7
:10512000A9F88DF80F608DF81060072102A8FDF72F
:1051300031FB8DF81100000A8DF812000B2102A836
:1051400000F0F0F926708FE067789FB1A28B521CB7
:1051500092B2A2830A2ACFD9097849B96279218B00
:10516000CDE900120146628B68A0636BFFF71CFF5C
:10517000A68379E0E77877B1618C44F62067491C13
:1051800089B26184642958D24FF487726A81632995
:105190002CD069E0A9E0097811B1012908D063E0B9
:1051A000297E022960D001465FA0FFF7FDFE5BE08B
:1051B00095F839008DF808008DF8092004208DF845
:1051C0000A0001224A49D81CFEF754F8072102A818
:1051D00000E075E0FDF7DEFA8DF80F00000A8DF8AB
:1051E0001000092102A800F09DF93DE0218C401A31
:1051F00000D54042E084E88A08B9E88B88B195F888
:105200003A00012815D04AA0FFF7CEFE3846FFF736
:1052100081FB95F83A00E28C216B01280BD04AA063
:1052200020E095F83A00012801D04EA0ECE753A009
:10523000EAE756A0E8E758A014E0A1F16402642A66
:1052400018D249F640426A81C7290DD1218C411AF2
:1052500000D549428AB2228595F83A1001290146C3
:1052600006D053A0FFF7A0FEE07A022823D038E052
:1052700056A0F7E73846FFF74DFBE08C0A280AD224
:10528000208D0A2807D295F83A00012801D056A0AF
:1052900006E05FA004E095F83A00012809D066A076
:1052A000FFF782FE3846FFF735FBE6706684E6724C
:1052B00017E06BA0F4E7E6720120FDF7BFFB10E0FA
:1052C000E662E07A022800D1E672087828B9287EE2
:1052D000022802D06DA0FFF767FE08216D48FDF798
:1052E0000DFFFCF75FFCE68226820AB0BDE8F08184
:1052F000300000207C000020BC1F00205000002057
:105300002566326D207C2025640D0A002566326DED
:105310002C25646D762C256631A1E62C25642C2580
:10532000646C760D0A0000002566326D0D0A0000DF
:1053300043616C6962726174696F6E207375636337
:10534000657373A3A10A0000344B485AA3BA2566BB
:10535000326D20646576696174696F6EA3BA2564E5
:10536000636D0A0043616C6962726174696F6E20DB
:105370006661696C757265A3A10A0000B1EAB6A8FE
:10538000CEB4CDA8B9FDA3A10A000000B1EAB6A829
:10539000CDA8B9FDA3A10A00344B485AA3BA25668B
:1053A000326D20C6ABB2EEA3BA2564636D0A00006D
:1053B00032304B485AA3BA2566326D206572726F3F
:1053C00072A3BA2564636D0A0000000032304B48B6
:1053D0005AA3BA2566326D20C6ABB2EEA3BA2564D5
:1053E000636D0D0A000000003D3D3D3D3D3D3D3DEE
:1053F0003D3D3D3D3D3D51432050415353A3A13DD3
:105400003D3D3D3D3D3D3D3D3D3D3D0A0A000000E9
:105410003D3D3D3D3D3D3D3D3D3D3D3D3D3DC6B7B9
:10542000BCECCDA8B9FDA3A13D3D3D3D3D3D3D3D7D
:105430003D3D3D3D0A0A00003D3D3D3D3D3D3D3D7C
:105440003D3D3D3D3D3D5143204641494CA3A13D9D
:105450003D3D3D3D3D3D3D3D3D3D3D0A0A00000099
:105460003D3D3D3D3D3D3D3D3D3D3D3D3D3DC6B769
:10547000BCECCEB4CDA8B9FDA3A13D3D3D3D3D3D25
:105480003D3D3D3D3D3D0A0A000000002D2D2D0D06
:105490000A000000000C0140FEB50023002903DAD9
:1054A00049422D2400F8014B0A262E274FEA0D040D
:1054B00091FBF6F5C5F1000C0CEB8C0C01EB4C01EB
:1054C0003031E15429465B1C32B1934203D1E75499
:1054D00003F10103ECE7EBD90029E9D105E000BFB6
:1054E000A3F10103E15C00F8011B002BF8D1FEBD24
:1054F0003EB500224FEA0D0401F00F03092B01D93C
:10550000372500E030252B44A354521CD2B20909A0
:10551000F2D104E0521ED2B2A15C00F8011B002AB5
:10552000F8D13EBD30B5074B02781C1D06E01D8842
:105530006D06FCD5228010F8012F491E0029F6D1F6
:1055400030BD000000380140154A10B50146927880
:1055500000200AB1084610BD124A114B54895B79EC
:10556000B4F5877F07D0ABB1012B16D0022BF2D157
:10557000B2F922000CE033B1012B07D0022BEAD1A3
:10558000B2F91C0004E0B2F9160001E0B2F91A0009
:10559000081A10BDB2F91E00FAE7B2F92000F7E7C9
:1055A00000000020BC1F002010B5034C01462088DD
:1055B00000F052F8608810BD5200002010B5034C76
:1055C000618800F049F8208810BD000052000020DA
:1055D00005490A899207FCD588810889C007FCD053
:1055E0008889C0B270470000003001400C4910B5F6
:1055F0004FF480520A600B490B889B07FCD5094B7E
:10560000040A1B1D1C800C88A407FCD5C0B218809E
:1056100008880006FCD40248001F0260002010BD6C
:10562000140C01400838004010B50A4C6188084449
:1056300080B26080A02802D2A020608004E04FF4F5
:105640003471884200D961806188208800F004F8B4
:10565000608810BD5200002070B5074C05462080C0
:10566000618041F48050FFF7C1FF45F40040FFF72F
:10567000BDFF608870BD00005200002002494FF459
:105680008050086070470000100C014070B505465E
:105690000120FDF741FEFDF71DFF18480068FEF7E9
:1056A000ADF8174C20B1E088401CE080012070BDAF
:1056B000B020FFF7EDF9B0F5202F13D290B128609C
:1056C000FDF790F9FFF740FF0E490F4A89898142A3
:1056D0004FF00801104602D9FDF712FD05E0FDF775
:1056E0000DFD02E0E088401CE0804FF44870A0808F
:1056F000064928688842D9D2002070BD08080140B8
:1057000052000020BC1F0020000C01405821010065
:1057100010B500290AD00878002807D00548784439
:10572000FBF712FB002801D0002010BD024878448E
:1057300010BD0000561100004E11000021F0004283
:10574000A2F16052B2F5801F01F0004328BFD2F1F0
:105750007F6C0BD95FEA001C43EAC20242EB507037
:1057600018BF704728BF20F001007047B2F5801FB6
:10577000BCBF184670474FEA410C1CF5001F02D20F
:10578000084600F050BD70B500F05EFB00000089D7
:10579000FFF7F6BF4FF00040A0F580007047000013
:1057A00010B591EA030F48BF83F0004300F1B483C2
:1057B000841A71EB030C05D2121943EB0C03001B86
:1057C00061EB0C01DFF824E14FEA1154A4EB135C08
:1057D0001EEA430F18BF9EEA445F73D023EA0E030C
:1057E000DCF1200E21EA045143F4801332D322FA73
:1057F0000CFE10EB0E0023FA0CFE41EB0E01CCF177
:10580000200E03FA0EFE10EB0E0051F10001B1F56F
:10581000801FCCF1200E32D201EB045112FA0EF2AD
:10582000BDE8104058BF7047401C38BF5FEA4202D5
:1058300018BF7047002814BF20F0010041F100019B
:105840004FEA410313F5001F38BF7047A1F1C04173
:1058500000F048BB012A43EB0302ACF1200CDCF161
:105860001F0E32BF4FF0000E23FA0CF310EB0300B3
:1058700041EB0451B4EB115FD0D0A1EB045101F521
:10588000801149085FEA300001EB04510ED350F15A
:10589000000038BF12FA0EFE08D1BDE81040C9E77B
:1058A000401C38BF5FEA4202CAD1C3E7BDE81040DE
:1058B0004FEA410313F5001F38BF7047A1F1C04103
:1058C00000F010BB9EEA445F08D011EA5E0FBDE80D
:1058D000104004BF01F0004100207047BDE81040B7
:1058E00070B500F0B1FA00BF64FBBE3E0000E0FFFF
:1058F00002494FF0000000F09DBC00BF0000F87F9F
:10590000491058BFC1F140415B1058BFC3F140433B
:105910008B42EFF3008070472DE9C04130B4DFF8CF
:10592000A0C23CEA111418BF3CEA131400F0EC804A
:1059300081EA03051CEA111444EAD57418BF1CEA75
:10594000131500F0C780A4EB05044FF0004545EAAD
:10595000C12145EAC32341EA505143EA525304F1BD
:105960007F74994204F500344FEAC0204FEAC22206
:1059700008BF904200F09C804FEA13650FF240167A
:10598000765D4FEA134506FB05F7C7F1807706FB06
:1059900007F74FEAD737A7FB03687642C8F5803888
:1059A000A7FB06CE38BFA8F1010807FB08E64FF0B9
:1059B000000EA6FB028CE6FB03CEDCF1000CCEF160
:1059C000004E38BFAEF1010EA6FB0C584FF0000799
:1059D0004FF00005E6FB0E87A1FB08C6A0FB07CE33
:1059E00016EB0E0645F10005E1FB076515F1E04EEB
:1059F0007EBFA4F580345FEA46066D4116F180074C
:105A000045F100054FEA17274FEA066647EA0567A2
:105A1000A6F1DE46B6F1805F4FEA15251FD938465C
:105A200024F0010C05EBC471BCF1FE6F01EB0C110D
:105A300002D8F0BCBDE8008124425CBF01F5801EA5
:105A40009EEAC47F02D4F0BCBDE80081244238D471
:105A5000F0BCA1F1C041BDE8004100F043BA4FEAFB
:105A6000D22242EA43524FEAD323A7FB02864FEAEF
:105A7000D02040EA415007FB03661EEA0E0F4FEAB2
:105A8000D12105FB026658BFA6EB0056B6EB0056C7
:105A90004FEA520E4EEAC37E18EB0E0E56EB530E33
:105AA000BDD518EB02085E417F1C55F10005B6E735
:105AB0004FF480154FF000074FF000064FF000083C
:105AC000ADE7F0BC4FF0000001F1C04101F0004132
:105AD000BDE8008111EA0C1F0CEA131500D00CE0A0
