:020000040800F2
:10000000D8290020A9010008B101000831330008F7
:10001000B5010008B7010008B901000800000000A0
:10002000000000000000000000000000BB0100080C
:10003000BD01000800000000BF0100089D4000084D
:10004000C3010008C3010008C3010008C301000880
:10005000C3010008C3010008C3010008C301000870
:10006000C3010008C3010008C3010008C301000860
:10007000C3010008C3010008D52B0008C301000814
:10008000C3010008C3010008C3010008C301000840
:10009000C3010008C3010008C3010008C301000830
:1000A000C301000885410008C3010008C30100081E
:1000B000C301000889410008C3010008C30100080A
:1000C000C3010008C3010008C3010008C301000800
:1000D000C3010008ED460008C3010008C301000881
:1000E000C3010008C3010008C301000800F002F8C2
:1000F00000F04AF80AA090E8000C82448344AAF178
:100100000107DA4501D100F03FF8AFF2090EBAE875
:100110000F0013F0010F18BFFB1A43F0010318473B
:10012000786A0000986A0000103A24BF78C878C145
:10013000FAD8520724BF30C830C144BF04680C60ED
:10014000704700000023002400250026103A28BF35
:1001500078C1FBD8520728BF30C148BF0B60704739
:10016000662906F0E381642900F0CA800020704708
:100170001FB500F0B7FC04000020002105F046FC8C
:10018000E0601FBD10B510BD00F0B0FD1146FFF7D7
:10019000EFFF05F05FF800F0CEFD03B4FFF7F2FFCC
:1001A00003BC00F011FE00000948804709480047E1
:1001B000FEE7FEE7FEE7FEE7FEE7FEE7FEE7FEE717
:1001C000FEE7FEE704480549054A064B7047000074
:1001D000AD400008ED000008D8230020D8290020F9
:1001E000D8250020D825002053EA020C00F06980B1
:1001F0002DE9F04B4FF00006002B1FBFB3FA83F53B
:1002000003FA05F424FA05F65E4012BF1643B2FA6B
:1002100082F502FA05F4C5F120051EBF22FA05FC9D
:1002200044EA0C04203556EA044C4FEA144418BF43
:10023000641C4FF000084FF00009904271EB030C72
:1002400039D3002919BFB1FA81F701FA07F6B0FADC
:1002500080F700FA07F6C7F120071EBF20FA07FC57
:1002600046EA0C062037B6FBF4FCA7EB0507103F67
:1002700007F01F0BCBF120060CFA0BFB2CFA06F64D
:1002800044BFB3460026202FA4BF5E464FF0000BAC
:100290005BEA060C08BF4FF0010B19EB0B09ABFB37
:1002A000027C48EB0608C01B06FB02CC0BFB03CC10
:1002B00071EB0C01C1E70B46024641464846BDE8DA
:1002C000F08B13B54FF000004FF00001AFF300804A
:1002D000BDE81C40704700000FB41CB5074B06AAD0
:1002E0007B4469460090059800F0E3FB00206946D6
:1002F00000F0F2FB1CBC5DF814FB0000F5070000E9
:100300002DE9F0410646002410687529314616A5EE
:1003100010D0AFF30080002802DA404213A507E0B6
:1003200031688A0701D512A502E0490704D511A555
:10033000012401E0AFF3008000210A2206F1240726
:1003400009E0B0FBF2FCB0FBF2F302FB1C00303022
:1003500078541846491C0028F3D123462A463046D3
:10036000BDE8F04100F037B9000000002D000000AA
:100370002B000000200000002DE9F0474FF0000A9C
:1003800089460446C0F820A02046E1688847002836
:1003900076D0252806D0D4E901219047206A401C58
:1003A0002062F1E7E168204600258847C4F81CA0D8
:1003B00006460027C4F818A02A2E09D0304604F0BB
:1003C000ACFB38B304EB8708303EC8F8186019E07E
:1003D00059F8041B204604EB87029161E1688847C5
:1003E000012F064618D1E069002820DA25F0200503
:1003F0001DE0D8F8180000EB800006EB4000303814
:10040000C8F818002046E1688847064604F085FBD6
:100410000028EED1012F0AD02E2E08D12046E16807
:1004200088477F1C0646022F45F02005C4DBA069E3
:10043000002803DA404245F00105A061E80701D039
:1004400025F01005B6B1A6F14100192802D82036D2
:1004500045F400654A463146204625604D46FFF783
:100460007FFE58B1012806D0ED1D25F0070000F1F0
:10047000080989E704E005F1040985E730468AE7C1
:10048000206ABDE8F08710B5431C02E010F8011B9C
:1004900071B18107FAD14FF0013202C88C1A8C4336
:1004A00014EAC211F9D0C01A0A0603D0C01E10BD4A
:1004B000C01A10BD0A0401D0801E10BD0902FCD074
:1004C000401E10BD10B5203AC0F00B80B1E81850A6
:1004D000203AA0E81850B1E81850A0E81850BFF42E
:1004E000F5AF5FEA027C24BFB1E81850A0E81850CD
:1004F00044BF18C918C0BDE810405FEA827C24BF21
:1005000051F8043B40F8043B08BF7047D20728BFAE
:1005100031F8023B48BF11F8012B28BF20F8023BFD
:1005200048BF00F8012B70474FF000020429C0F0CB
:10053000128010F0030C00F01B80CCF1040CBCF115
:10054000020F18BF00F8012BA8BF20F8022BA1EB67
:100550000C0100F00DB85FEAC17C24BF00F8012B4C
:1005600000F8012B48BF00F8012B70474FF0000244
:1005700000B5134694469646203922BFA0E80C5099
:10058000A0E80C50B1F12001BFF4F7AF090728BF74
:10059000A0E80C5048BF0CC05DF804EB890028BFF0
:1005A00040F8042B08BF704748BF20F8022B11F019
:1005B000804F18BF00F8012B704770477047704795
:1005C00010B500F093FA006810BD10B5044600F0B5
:1005D0008DFA046010BD2DE9F0470D46994692460C
:1005E000044600F124080168880604D5E06921F07A
:1005F0001001216000E00120A84201DD471B00E05E
:100600000027A1697A1902EB0900081AA061207875
:10061000C00602D42046AFF30080002608E0D4E9EB
:1006200001211AF806009047206A401C761C2062BF
:100630004E45F4DB2078C0060AD52046AFF3008093
:1006400006E0D4E9012130209047206A401C206256
:10065000381EA7F10107F4DC07E0D4E9012118F8FE
:1006600005009047206A401C2062281EA5F1010564
:10067000F3DC2046AFF300802078000602D502208C
:10068000BDE8F0870120FBE770472DE9FF4F0C46DE
:100690001E464FF0FF378BB0D2E90001DDF86080D5
:1006A0000A908A46C1F30A5505B93D46002108461D
:1006B0004FF00000BAF1000F00F4400005DA00EB43
:1006C00080004FF4400101EA50004FEA9059B9F11F
:1006D000010F00DDB9460A9850EA4A000ED044F6F0
:1006E0001050A5F2FF3545432F14B8F1000F1ED06E
:1006F0007542291E1EDDC9F100021CE0B8F1010F90
:100700004FF0000001D0302103E0F24305E0215416
:10071000401CB042FBDB30460022002121540B99E3
:10072000C1F80880C1E900200FB0BDE8F08FBD1B03
:100730006D1CDEE74A4600DA694206A800F060FA5E
:1007400006AB93E8070003AB83E8070050460A991D
:1007500000F041FB8DE80700A0F500501F38009025
:100760000398002D0ADD42F21F014A460844002387
:1007700003A90390684600F0AAFD09E0A0F5005027
:100780004A461F38002303A90390684600F0B4FDD1
:100790008DE807000004000C03D04FF0FF30410843
:1007A00000E01046B8F1000F03D000220092154679
:1007B0001EE0751E05D400F09DF9303262556D1EA5
:1007C000F9D5B3460122084302D000227F1C04E081
:1007D0002078302801D100227F1E002A099784D07A
:1007E0001DE0112D07DA00F085F9303262556D1CDD
:1007F00050EA0102F5D1084302D00098C8B10EE0DA
:100800000021681E05E0235C625C63542254401E94
:10081000491C8142F7DBAB46A81B401E0990002013
:1008200004F80B000B98099AC0F80880C0E9002B67
:100830007AE711264FF0000857E72DE9F04F884678
:100840000446D21D22F0070191B0D1E90001CDE9A3
:100850000A0104F0E7F802460B98C00F01D02D20E2
:1008600007E02068810701D52B2002E0202101EA62
:10087000C000032A099001D0072A05DB0346414640
:10088000204600F07DF90BE12078800601D5E06973
:1008900000E00620B8F1650F814606D0B8F1660F7A
:1008A00018D0B8F1670F70D131E00020B9F1110F05
:1008B000009001DB112301E009F101030AAA01A95B
:1008C0000CA8FFF7E2FEDDE90C70002609F1010536
:1008D000834647E001204B4600904FF000470AAAAC
:1008E00001A90CA8FFF7D1FEDDE90DB00C995D461A
:1008F000002610B909F101000D18B9EB050003D469
:10090000C0F1FF3609F10105A5EB09002BE0B9F1B3
:10091000010F01DA4FF001090020B9F1110F009029
:10092000484601DD112300E003460AAA01A90CA8EC
:10093000FFF7ABFEDDE90C704D46002683462078BC
:1009400000070AD4AB4500DA5D4601A8012D04DD9D
:10095000411911F8011C302907D04F4502DA17F16F
:10096000040F04DA012082460FE06D1EEEE7002F2F
:1009700002DCED1B3E4403E0781CA84200DD7D1C38
:10098000B81B00F1010A4FF000472078000703D49C
:10099000AA4501DB4FF0FF3A0021B7F1004F0DF1FE
:1009A00043088DF8431024D002202B23002F01DAB6
:1009B0007F422D230A21021EA0F1010000DC5FB15D
:1009C00097FBF1FC97FBF1F201FB1C7C17460CF145
:1009D000300C08F801CDEEE7A8F101000370218882
:1009E000090501D5452100E06521A0F1010800F8C5
:1009F000011C09980FA9A1EB0807FF1D00B10120F8
:100A0000411901EBEA70A1693844081A401EA0613F
:100A10002078C00602D42046AFF30080099828B1A0
:100A2000D4E901219047206A401C20622078C0064A
:100A300022D52046AFF300801EE0002E04DBB34534
:100A400002DD01A8805D00E03020D4E9012190475B
:100A5000206A401C2062761CAAF101005FEA000AAD
:100A60000AD100F03FF8C0680168405CD4E9012178
:100A70009047206A401C2062281EA5F10105DCDC9D
:100A800007E0D4E9012118F8010B9047206A401CC7
:100A90002062381EA7F10107F3DC2046AFF3008087
:100AA000032011B041E6000001694A1C0261087888
:100AB000704700B58FB0CDE901310021059105499E
:100AC0007944CDE9031011466846FFF755FC0FB095
:100AD00000BD0000E5FFFFFF0A6802F8010B0A6095
:100AE000704700000048704794230020004870477A
:100AF0007423002030B5B0F10A024FEA900E71F174
:100B000000034EEA817EB0EB0E0061EB91014FEAEB
:100B1000101E4EEA017E10EB0E0041EB11114FEA60
:100B2000102E4EEA016E10EB0E0041EB11214FEA40
:100B3000104E4EEA014E10EB0E0041EB11414018F1
:100B400041F100014FEAD00040EA41704FEAD10183
:100B500010EB80054FEA810444EA907444EB0104F1
:100B60006D1944EB0404521BA3414FF0000348BF2E
:100B70000A3200D530BD401C41F1000130BD0000FB
:100B80002DE9F0411F46044603260168072A01F4B7
:100B9000006004DB08B116A505E016A503E008B166
:100BA00015A500E015A521F010002060A069C01E69
:100BB000A0610FB1401EA0612046AFF300804FB18D
:100BC000D4E9012138469047206A401C2062C01CAD
:100BD000206206E0206AFAE7D4E9012115F8010B4A
:100BE0009047761EF8D22046AFF30080BDE8F08132
:100BF0004E414E006E616E00494E4600696E6600C1
:100C00002DE9F047814616468AB0354878440DC82C
:100C10008DE80D0032487844801C03AC0DC884E890
:100C20000D0041F69B300844372190FBF1F290FB18
:100C3000F1F5A5F1800501FB12041B3C02D56442CD
:100C4000012000E00020DFF898A080460027FA4449
:100C5000AAF1BE0A0EE0E0070AD03246684607EB6A
:100C6000470101230AEB810100F046FB8DE80700F4
:100C700064107F1C002CEED1194F7F44AE3F19E069
:100C8000E80715D007EB04100DF1180A90E80E00E4
:100C90008AE80E00C068F04201D1981908903246E7
:100CA000012306A903A800F027FB03AB83E8070094
:100CB0006D10641C002DE3D14FF0010332466946EC
:100CC000B8F1000F03A802D000F001FB01E000F032
:100CD00013FBC9E90001C9F808200AB0BDE8F08794
:100CE000245E000000487047742300207546FFF71B
:100CF000F9FFAE4605006946534620F007008546D9
:100D000018B020B5FFF75EFABDE820404FF00006AE
:100D10004FF000074FF000084FF0000B21F00701E3
:100D2000AC46ACE8C009ACE8C009ACE8C009ACE826
:100D3000C0098D46704710B50446AFF300802046C9
:100D4000BDE81040FFF729BA4FF0013C50F8042BE2
:100D500051F8043B9A4221D1A2EB0C03934313EACE
:100D6000CC1317D150F8042B51F8043B9A4215D1FB
:100D7000A2EB0C03934313EACC130BD150F8042BD2
:100D800051F8043B9A4209D1A2EB0C03934313EAB6
:100D9000CC13DBD04FF00000704700BFD01A01BA6F
:100DA000B1FA81F101F0180122FA01F0CB40C1F152
:100DB0002001DBB2C0B2C01A2CFA01F3D11A914360
:100DC00011EAC311E6D1704701491820ABBEFEE716
:100DD0002600020070475FEA400C08BF91F0000F48
:100DE0004FEA8C234FEAC12243EA51514FEA1C508B
:100DF00018BF00F5F0404FEA300018BF41F0004145
:100E00005FEA6C5C00F02980BCF1FF3F08BF40F056
:100E100080407047130C06BF12044FF0100C4FF0C7
:100E2000000C130E04BF12020CF1080C130F04BFC8
:100E300012010CF1040C930F04BF92000CF1020C90
:100E4000D30F04BF52000CF1010C11464FF0000209
:100E5000A0F11F00A0EB0C00704711F0004F08BF7D
:100E6000704731F000413FF4D5AF0B0C06BF0904C9
:100E70004FF0100C4FF0000C0B0E04BF09020CF1E8
:100E8000080C0B0F04BF09010CF1040C8B0F04BFFD
:100E900089000CF1020CCB0F04BF49000CF1010CCE
:100EA000CCF12003A0EB0C0022FA03F302FA0CF2BF
:100EB00041EA030100F10100704720F07F4C80EA15
:100EC000030023F07F47ACEB070303F57C5300F0EE
:100ED000004003F1FF032DE980494FEA154B09B4A7
:100EE0004FEA144325EA0B4E24EA03480FF2042686
:100EF00006EB132749083E785FEA320203FB0667D8
:100F0000C7F5000707FB06F64FEA54374FEAD64607
:100F100006F1020607FB066CCCF1005C4FEA1C47A9
:100F20002CEA074C07FB06F40CFB06F504EB154610
:100F30004FEA961634BF00204FF000404FEAD137F9
:100F400006FB07FC4FEA1C4C0CFB0BF7D21B03FB08
:100F50000CF761EB07010CFB0EF7B0EB074072EBEF
:100F600017420CFB08F734BFA2EB0742B2EB074273
:100F700061EB17414FEA0C444FEA910706FB07FC6F
:100F80004FEA1C4C0CFB0BF7B0EBC74072EB57322F
:100F900003FB0CF734BFA2EBC742B2EBC74261EBD5
:100FA00057310CFB0EF7B0EBC70072EB57720CFB1E
:100FB00008F734BFA2EBC702B2EBC70261EB57716F
:100FC000039F4FEA816141EA921104EBCC044FEA9E
:100FD000D1374FEA826206FB07FC42EA90124FEAE1
:100FE00080604FEA1C4C0CFB0BF7D21B03FB0CF789
:100FF00061EB07010CFB0EF7B0EB074072EB1742F9
:101000000CFB08F734BFA2EB0742B2EB074261EBDF
:1010100017414FEA8C554FEA910704EB9C2406FBDD
:1010200007FC4FEA1C4C0CFB0BF7B0EBC74072EB14
:10103000573203FB0CF734BFA2EBC742B2EBC742F7
:1010400061EB57310CFB0EF7B0EBC70072EB577238
:101050000CFB08F734BFA2EBC702B2EBC70261EB8F
:10106000577115EB4C254FEA816141EA92114FEA25
:1010700082624FEAD13742EA901206FB07FC44F144
:1010800000044FEA80604FEA1C4C0CFB0BF7D21BAC
:1010900003FB0CF761EB07010CFB0EF7B0EB07400D
:1010A00072EB17420CFB08F734BFA2EB0742B2EB1E
:1010B000074261EB174115EB1C154FEA813141EAFC
:1010C00092414FEA823242EA90424FEA80304FEA40
:1010D0000C7644F1000448EA03434EEA0B484FF013
:1010E000000EB2EB080C71EB030724BF62463946D1
:1010F0004EEB0E0E4FF0000B0018524149414BEBE6
:101100000B0BB2EB080C71EB03077BF1000B24BF58
:10111000624639464EEB0E0E4FF0000B001852415E
:1011200049414BEB0B0BB2EB080C71EB03077BF166
:10113000000B24BF624639464EEB0E0E51EA020701
:1011400018BF46F0010616EB0E7655F1000254F179
:10115000000103D5BDE88901BDE80088BDE889012B
:10116000BDE80048B619524141EB0101A3F101036A
:10117000704780807F7E7D7C7B7A79787776767504
:101180007473727171706F6E6E6D6C6C6B6A6A697C
:101190006868676666656464636362616160605F16
:1011A0005F5E5E5D5D5C5C5B5B5A5A59595858578F
:1011B00057565655555554545353525252515150F7
:1011C00050504F4F4F4E4E4D4D4D4C4C4C4B4B4B4A
:1011D0004A4A4A4949494848484747474746464690
:1011E00045454544444444434343434242424241CB
:1011F0004141002B9C4630D477002BD01CB54FEAE0
:10120000370703B44FF010004FF01001BAF1000F90
:1012100006D0BCF1000FDCBF40F0080040F0080130
:101220004FF000000FBCBDE810400BF1010BBBF10B
:10123000010F08BF5FEA170722BF12F1010211F187
:1012400001014FF0004143F1000300F0004043EA88
:1012500000007047F9D35708D0E746EA064613F175
:10126000400F4FEA16461FDD13F1200FDFBF164374
:101270000A46002120335B42BED0C3F1200746EA74
:10128000064602FA07F74FEA164646EA0706C3F192
:10129000200722FA03F201FA07F721FA03F14FF0CF
:1012A000000342EA0702A7E746EA020646EA0646C4
:1012B0004FEA164646EA0106BCBF46EA0646360C29
:1012C0004FF000034FF000024FF0000194E72DE9CA
:1012D000804C9A46934670B491E8380007C831EACA
:1012E000400C48BF34EA430C03D5FFF7E6FDFFF797
:1012F00080FFF0BCBDE8008C2DE9804C9A469346F7
:1013000070B491E8380007C810F0804F08BF13F0A0
:10131000804F03D100F005F8FFF76BFFF0BCBDE88C
:10132000008C20F07F4780EA030023F07F4C07EB1E
:101330000C03A3F57C5300F00040A3F1FE0392F0F0
:10134000000F00F0B38095F0000F00F077802DE9DA
:1013500001494FEA11404FEA144621EA004800FBD8
:1013600006FC24EA064708FB06F607FB08F800FB24
:1013700007F718EB06484CEB164C4FEA124B18EBEC
:1013800007484FEA15464CEB174022EA0B4E0BFB81
:1013900006FC25EA06470EFB06F607FB0EFE0BFBD6
:1013A00007F71EEB064E4CEB164C4FF000061EEBFB
:1013B000074E4CEB174B18EB0B0840F1000018EBF5
:1013C0000E0B58EB000840F100008F1A4FF000019F
:1013D0003CBFC943661B14BFB5EB040C00213CBFE6
:1013E000C943F61B4FEA17444EEA8E0E27EA04451E
:1013F0004FEA1C4704FB07622CEA074C05FB07F782
:101400000CFB05F604FB0CFC16EB074642EB1742FF
:1014100016EB0C4642EB1C421BEB060658EB020295
:10142000414146EA9E0601D5BDE80189B6195241FF
:1014300041EB0101A3F10103BDE801894FEA144525
:101440004FEA114724EA054621EA074C05FB07F459
:1014500006FB07F70CFB06F105FB0CFC11EB074143
:1014600044EB17444FEA124711EB0C4144EB1C4488
:1014700022EA074C05FB07F206FB07F70CFB06F612
:1014800005FB0CFC16EB074642EB174216EB0C462D
:1014900042EB1C456A1854F1000148BF7047B61969
:1014A000524141EB0101A3F10103704795F0000F98
:1014B00037D04FEA11424FEA144721EA024624EAA4
:1014C000074C02FB07F106FB07F70CFB06F402FBD7
:1014D0000CFC14EB074441EB17414FEA154714EBA2
:1014E0000C4441EB1C4125EA074C02FB07F506FBC7
:1014F00007F70CFB06F602FB0CFC16EB074645EB68
:10150000174516EB0C4645EB1C42121951F1000130
:1015100048BF7047B619524141EB0101A3F10103E5
:1015200070474FEA14454FEA114724EA054621EA7D
:10153000074C05FB07F106FB07F70CFB06F24FF023
:10154000000605FB0CFC12EB074241EB174112EBC6
:101550000C4251EB1C4148BF7047921841EB01010E
:10156000A3F10103704700002DE9F0410146124844
:10157000182202260660114F4515114C07F1040888
:10158000AB016361080201D53D6001E0C8F800507D
:1015900001F096FC2361490001F092FC521E12F00A
:1015A000FF02EED1636101F08BFC0348001D066071
:1015B000BDE8F04101F084BC10140140100C014062
:1015C000001001400029816802D041F0010101E0D2
:1015D00021F00101816070470029816802D041F447
:1015E000807101E021F48071816070470146002024
:1015F0008968490700D501207047014600208968A5
:10160000090700D50120704710B542680E4B0C79D0
:101610001A400B6842EA04221343436082680B4B72
:101620001A40D1E9024323434C7942EA440213436E
:101630008360C26A097C22F47002491EC9B242EA80
:101640000151C16210BD0000FFFEF0FFFDF7F1FF88
:1016500070B5072609290AD9C568A1F10A0404EB67
:101660004404A640B543A3401D43C56007E0056997
:1016700001EB4104A640B543A3401D4305611F2370
:10168000072A09D2446B521E02EB820293409C430C
:1016900091400C43446370BD0D2A09D2046BD21FE4
:1016A00002EB820293409C4391400C43046370BD63
:1016B000C46A0D3A02EB820293409C4391400C4372
:1016C000C46270BD816841F00801816070470029E3
:1016D000816802D041F4A00101E021F4A001816001
:1016E0007047816841F004018160704770B501F076
:1016F00097FF374D40F6E4414143E881090BE98209
:10170000AA8A12B94FF4FA72AA82A0F5A060DC3856
:1017100000D54042642801DA012070BD084604F07B
:1017200053FC00222B4B04F075FA03F00BFD002252
:10173000294B04F05DFC04F001FCA98A0022081A80
:1017400004B20121A12C0DDA687910B1A87918B181
:1017500003E0A024AA7115E0A971A879401EA87120
:101760006E340EE04FF434739C420BDB6879022830
:101770000FD0A879012800D9A971A879401CA871B7
:101780006E3C24B2A87940B101280CD0022816D1B1
:101790000EE002201C46A871F4E7B4F5167F0EDDBA
:1017A000A9716E3C0AE0B4F5EB7F08DAAA7104E097
:1017B00040F25320844202DAA9716E3424B2A8792F
:1017C00002F0DAFBA0B204F08FF8A882A4E70000D0
:1017D0000000002000C0924000406F4010B5002083
:1017E00001F018FD00EBC00101EB0010044901EB12
:1017F00080007721B0FBF1F002490863C0B210BD50
:1018000060DDFEFF0000002010B501F0C3FF0120E5
:1018100002F054F8212002F027F80028FAD0002026
:1018200002F042F8002002F059F84FF4806002F014
:101830004BF84FF4004001F067FF022001F0BAFBC3
:10184000102001F091FB00210422084601F0C8FBA2
:101850004FF46011002002F051F8012002F048F826
:10186000392002F001F80028FAD0022002F050F8E6
:1018700002F012F80828FBD110BD000038B5012194
:101880003D2001F06FFF01211F4801F093FC012171
:10189000C80301F08FFC03248DF8024010208DF85E
:1018A000030048F21C70194DADF800006946284647
:1018B00001F032FC41F63B70ADF800006946144877
:1018C00001F02AFC4FF46040ADF800006946114871
:1018D00001F022FCADF8004069460F4801F01CFC05
:1018E00048208DF80300A814ADF80000694628468A
:1018F00001F012FC00208DF80300ADF800406946AD
:10190000284601F009FC38BD000230000008014003
:10191000000C0140001001400014014010B586B0D9
:10192000A020ADF8140003208DF8160018201C4CE0
:101930008DF8170005A9204601F0EEFB4021ADF817
:10194000141004218DF8171005A9204601F0E4FBBE
:101950000121080301F006FF0020ADF800004FF45C
:101960008271ADF802100121ADF808104902ADF8FE
:101970000A101021ADF80C10ADF80400ADF8060007
:10198000ADF80E000720074CADF810006946204660
:1019900001F0E2FF0121204601F0D4FF06B010BDA6
:1019A000000801400030014030B587B04FF42040BE
:1019B000ADF8140003208DF8160018201D4D8DF889
:1019C000170005A9284601F0A7FB4FF48044ADF8A5
:1019D000144004218DF8171005A9284601F09CFB3E
:1019E0000121204601F0A6FE4FF44040ADF8000072
:1019F0004FF48270ADF802000020ADF8040002211F
:101A0000ADF80610ADF808000902ADF80A10102173
:101A1000ADF80C10ADF80E000720074CADF8100023
:101A20006946204601F098FF0121204601F08AFF17
:101A300007B030BD000C01400038004070B50121F6
:101A400004468D0386B0284601F08CFE012128460D
:101A500001F094FE0021284601F090FE01210420AF
:101A600001F0A8FB8020ADF810000421244E8DF871
:101A7000131004A9304601F04FFB4020ADF81000D0
:101A800018208DF8130003258DF8125004A9304654
:101A900001F042FB0020ADF804000094ADF8060010
:101AA000ADF80800ADF80C000C20164CADF80A009B
:101AB0006946204602F040FFE021204602F020FE69
:101AC000114A01212020C2F8800225208DF814003F
:101AD0008DF815508DF816108DF8171005A801F027
:101AE000E9FC012240F22551204602F00DFF0121C0
:101AF000204602F008FE054800F00AF806B070BD66
:101B0000000C01400038014004E000E01C200020EF
:101B100030B5164D04468BB0284601F08DF81448B8
:101B2000CDE90004102002901920039000208021AC
:101B3000CDE904014FF44051CDE90801069007902A
:101B40000A906946284601F001F9094C0122241F38
:101B50008021204602F0D0FE0121284601F060F8E5
:101B60000121204602F0CFFD0BB030BD4400024001
:101B70000438014070B51D4DA878002834D000F01D
:101B8000DFFE1B4C4FF48770E18A61B1618B61B15C
:101B9000A18B61B1E18B49F6404021B1218C21B18B
:101BA000618C21B108E0002102E0012100E0022166
:101BB00000F0E0FE608CB8B10120207602F0D0F990
:101BC0000020A87068702872688102F0D5F942F28E
:101BD0001074204602F0DEFF06A003F025FB20462D
:101BE00002F0D8FF01F0A2FC012070BD000000202F
:101BF000CC1F00203D3D3D3D3D3D3D3D3D3D3D3DFE
:101C00003D3D3D3D3DB1EAB6A8B3C9B9A63D3D3D18
:101C10003D3D3D3D3D3D3D3D3D3D3D3D3D3D0A0A5A
:101C20000000000010B5007A0C4600B1012000F061
:101C3000C5FF0120A07010BD0020C870034890F8B7
:101C4000390008710220887070470000CC1F002006
:101C50000020C870034890F838000871022088708E
:101C600070470000CC1F00200020C870034890F887
:101C7000280008710220887070470000CC1F0020E7
:101C800010B50C4601220349E01C01F088FB04203A
:101C9000A07010BDCC1F002004488288120ACA70B0
:101CA000007908710220887070470000CC1F002066
:101CB000034A007A82F83900087002F051B9000036
:101CC000CC1F0020017A034801B1012180F83810AF
:101CD00002F046B9CC1F0020017A034801B101216E
:101CE00080F8281002F03CB9CC1F002038B50C4613
:101CF000C11D0122684601F052FB0098B0F5165F45
:101D000012D0B0F5164F0FD0B0F5E13F0CD0B0F5C2
:101D10007A3F09D0B0F5612F06D0607840F080009E
:101D200060700420A07038BD05490A688242FAD06C
:101D3000086002F015F90098FFF780FE38BD00003A
:101D4000CC1F0020017A0448012900D0002180F82E
:101D50003B1002F005B90000CC1F002038B50C463E
:101D6000C11D0122684601F00DFBBDF80000411EB7
:101D7000B1F57A7F12D20D4988804A890C49A2F5C3
:101D80001C43403B07D04FF47A62B2FBF0F008806E
:101D900002F0E6F838BD44F62062F6E7607840F0DD
:101DA000800060700420A07038BD0000CC1F0020AF
:101DB0004400002008B5C11D0122684601F0E2FA86
:101DC0000349BDF80000888102F0CAF808BD000090
:101DD000CC1F0020024902200870002000F0EEBE57
:101DE0000800002010B50B480C460178012908D0E6
:101DF00001210170084802781AB90170002000F032
:101E0000DDFE01220549E01C01F0C9FA0420A070A2
:101E100010BD0000080000205A000020280000200B
:101E200038B50C460D4A012105461170084600F0F0
:101E3000C5FE0122E91D684601F0A4FABDF80000C4
:101E400030B1607840F0800060700420A07038BD30
:101E50000349002008700349087038BD5A0000206B
:101E6000080000200400002010B50849012806D011
:101E7000002081F83800BDE8104002F071B8012060
:101E800081F8380002A003F0CFF9F4E7CC1F00205E
:101E9000C9CFBBFAD7D4B6AFC1ACD0F8B2E2C1BF9C
:101EA000B3C9B9A6A3A10A000248C18802A003F0E1
:101EB000BBB90000CC1F002025640A000EB502A8A3
:101EC00001F0C6F90F489DF80A109DF8083090F807
:101ED0003A004FF0020201289DF80900CDE9000107
:101EE0004FF003010CD008A003F5FA6303F09CF94E
:101EF0000CA003F099F942F2107002F04BFE0EBDF7
:101F000011A0F1E7CC1F002056657273696F6E3A1D
:101F10004825642D5325642D25642F25642F2564C1
:101F20000A000000474D505F56312E312E302847B1
:101F3000656E6572616C50756C73654D6561737526
:101F400072696E67290D0A00B0E6B1BED0C5CFA296
:101F50003A4825642D5325642D25642F25642F25AB
:101F6000640A000010B5012000F028FEBDE8104012
:101F700001A003F059B900004D533A6F6B210A00DC
:101F800010B5002000F01AFEBDE8104001A003F0DB
:101F90004BB900004D533A6F6B210A00024890F88C
:101FA000391002A003F040B9CC1F002025640A00BC
:101FB00070B542F21075284602F0ECFD4F4C94F8D3
:101FC0003A1001297ED04EA003F02EF9284602F0E7
:101FD000E1FDE18956A003F027F9284602F0DAFD79
:101FE000218A59A003F020F9284602F0D3FD618A26
:101FF0005BA003F019F9284602F0CCFDB4F91610E5
:102000005DA003F011F9284602F0C4FDB4F91A10DE
:102010005EA003F009F9284602F0BCFDB4F91C10DB
:102020005FA003F001F9284602F0B4FDB4F91E10D8
:1020300060A003F0F9F8284602F0ACFDB4F92010D6
:1020400061A003F0F1F8284602F0A4FDB4F92210D3
:1020500062A003F0E9F8284602F09CFDA18D64A07F
:1020600003F0E2F8284602F095FDE18D65A003F04B
:10207000DBF8284602F08EFD218E67A003F0D4F82D
:10208000284602F087FD618E68A003F0CDF828464F
:1020900002F080FDA18E6AA003F0C6F8284602F087
:1020A00079FDE18E6BA003F0BFF8284602F072FDC7
:1020B000A18C6DA003F0B8F8284602F06BFDE08B10
:1020C000002800E006E094F83A0007D0012803D089
:1020D00069A006E06EA077E779A002E001280AD0A7
:1020E0007AA003F0A1F8284602F054FDBDE8704044
:1020F0007CA003F099B887A0F3E70000CC1F002074
:102100003D3D3D3D3D3D3D3D3D3D3D3D43616C697A
:1021100062726174696F6E20696E666F726D617450
:10212000696F6E3D3D3D3D3D3D3D3D3D3D3D0A00C0
:10213000537973536574696E672E415044565F4CF2
:102140004F573A25640A0000537973536574696EDA
:10215000672E415044565F4D49443A25640A0000B9
:10216000537973536574696E672E415044565F48C6
:1021700049473A25640A0000344B687A43616C5F32
:102180004C4F573A2564434D0A000000344B687A9F
:1021900043616C5F4D444C3A2564434D0A00000096
:1021A000344B687A43616C5F4849473A2564434D34
:1021B0000A00000032304B687A43616C5F4C4F5725
:1021C0003A2564434D0A000032304B687A43616C13
:1021D0005F4D444C3A2564434D0A000032304B6851
:1021E0007A43616C5F4849473A2564434D0A0000D1
:1021F000344B687A4761696E5F4C4F573A25640AE1
:1022000000000000344B687A4761696E5F4D444CB2
:102210003A25640A00000000344B687A4761696E11
:102220005F4849473A25640A0000000032304B6895
:102230007A4761696E5F4C4F573A25640A00000087
:1022400032304B687A4761696E5F4D444C3A256481
:102250000A00000032304B687A4761696E5F484976
:10226000473A25640A00000054656D7043616C3A7A
:10227000256631A1E60A000043616C6962726174EF
:10228000696F6E2073756363657373A3A10A0000A1
:102290003D3D3D3D3D3D3D3D3D3D3D3D3D3D3D3D6E
:1022A0003DB1EAB6A8D0C5CFA23D3D3D3D3D3D3D47
:1022B0003D3D3D3D3D3D3D3D3D3D3D3D3D0A0000FB
:1022C000B1EAB6A8B3C9B9A6A3A10A0043616C6973
:1022D00062726174696F6E206661696C757265A364
:1022E000A10A00003D3D3D3D3D3D3D3D3D3D3D3D67
:1022F0003D3D3D3D3D3D3D3D3D3D3D3D3D3D3D3D0E
:102300003D3D3D3D3D3D3D3D3D3D3D3D3D3D3D3DFD
:102310005C6E0A00B1EAB6A8CAA7B0DCA3A10A00A5
:10232000044910B50120087000F0B2FDBDE810406E
:1023300001F088BB46000020094890F8281090F86A
:102340003A0029B1012801D006A004E00BA002E068
:10235000012802D00DA002F067BF11A0FBE700002A
:10236000CC1F00204E6F772069732066726F6E74E9
:102370002062617365A3A10A00000000CFD6D4DA01
:10238000CAC7C7B0BBF9D7BCA3A10A004E6F77205C
:102390006973206261636B2062617365A3A10A00A7
:1023A000CFD6D4DACAC7BAF3BBF9D7BCA3A10A0007
:1023B00010B50446401EFF2802D309A002F034FFE6
:1023C0000B4800F8394F4078012806D009A002F0E8
:1023D0002BFFBDE8104001F0C3BD09A0F7E70000E6
:1023E000536574204661696C6420210A0000000076
:1023F000CC1F0020536574206F6B210A0000000081
:10240000C9E8D6C3B3C9B9A6210A000070B51F4DEB
:10241000044642F21076B0F5965F1DD0B4F5165F13
:102420001AD0B4F5164F17D0B4F5E13F14D0B4F577
:102430007A3F11D0B4F5E12F0ED0B4F5612F0BD057
:10244000304602F0A7FB95F83A0001281BD010A0F7
:10245000BDE8704002F0E8BE2868A04215D02C60AC
:1024600095F83A0001280CD00CA002F0DDFE3046B1
:1024700002F090FB01F074FD2046BDE87040FFF7CC
:10248000DDBA09A0F1E70BA0E2E770BDCC1F002088
:10249000536574206572726F72210A00536574204F
:1024A0006F6B210A00000000C9E8D6C3B3C9B9A602
:1024B000210A0000C9E8D6C3CAA7B0DC210A00007F
:1024C00000EBC00101EB00114FF6FF7202EA81013F
:1024D000094A10B51180094991F83A1001290146BD
:1024E00007D007A002F0A0FEBDE810400D4802F0A2
:1024F00051BB0DA0F6E700001A000020CC1F002001
:10250000536574207468652063616C6962726174DC
:10251000696F6E2064697374616E63652025646DF4
:102520003A0A0000A0860100B1EAB6A8BEE0C0EBFE
:10253000C9E8B6A8CEAA25646D3A0A0030B50446AB
:10254000174899B00078002810D164B11548164D8D
:1025500090FBF4F2521E0F2C0ADC40F2E732501CC2
:1025600090FBF4F005E011A002F05EFE19B030BD62
:10257000002068803F21114802F014FC6421684665
:10258000FDF7F4FF6B8822460DA16846FDF7A4FE17
:10259000684602F049FE1048848001F0E1FCE5E75E
:1025A0000800002040420F0088000020C9E8D6C380
:1025B000B1D8D0EBB4F3D3DA310D0A0000040040F7
:1025C000C9E8D6C3CAE4B3F6C6B5C2CA2564485A38
:1025D0002025640D0A000000CC1F0020114A10B510
:1025E0000F4B518938B149F64044C820A14200D070
:1025F0005481188006E04FF487703224814200D065
:1026000050811C8092F83A00012806D006A002F002
:102610000BFEBDE8104001F0A3BC06A0F7E70000E8
:1026200010000020CC1F0020536574206F6B210A1E
:1026300000000000C9E8D6C3B3C9B9A6210A00004A
:102640000E4A10B5431E92F83A10B3F5C87F0BD26C
:10265000D080012906D00AA002F0E6FDBDE81040B6
:1026600001F07EBC09A0F7E7012904D00AA0BDE86B
:10267000104002F0D9BD0BA0F9E70000CC1F0020EC
:10268000536574206F6B210A00000000C9E8D6C3AF
:10269000B3C9B9A6210A0000536574206572726F30
:1026A00072210A00C9E8D6C3CAA7B0DC210A00001B
:1026B0000B4910B581F8280091F83A1028B101298A
:1026C00001D008A004E00DA002E0012906D010A06E
:1026D00002F0AAFDBDE8104001F042BC11A0F7E7EE
:1026E000CC1F002046726F6E742062617365207388
:1026F0006574206F6BA3A10A00000000C7B0BBF98E
:10270000D7BCC9E8D6C3B3C9B9A6A3A10A000000C3
:102710004261636B206261736520736574206F6B27
:10272000A3A10A00BAF3BBF9D7BCC9E8D6C3B3C9A1
:10273000B9A6A3A10A0000000349022008700349BA
:102740000020087000F03ABA0800002001000020C4
:1027500070B500F09DFB01F075F9184CE08A08B9DE
:10276000E08B60B194F83A00012824D014A002F064
:102770005BFDBDE8704042F2107002F00BBA44F607
:102780002065284602F006FA94F83A10012910D084
:1027900018A002F049FD284602F0FCF91E4901206C
:1027A00008701E4908701E4908701E490A200880DA
:1027B00070BD1DA0EDE725A0D9E70000CC1F0020CB
:1027C0004572726F723A20746865206D6163686942
:1027D0006E652063616C6962726174696F6E2068F6
:1027E0006173206265656E2066696E6973686564F1
:1027F000A3A10A003D3D3D3D3D3D3D3D3D3D737442
:102800006172742063616C6962726174696F6E3D9C
:102810003D3D3D3D3D3D0A000200002001000020FD
:1028200008000020100000203D3D3D3D3D3D3D3D68
:102830003D3D3D3D3DBFAACABCB1EAB6A83D3D3DC8
:102840003D3D3D3D3D3D3D3D3D3D0A00B4EDCEF3BA
:10285000A3BAB8C3BBFAC6F7D2D1B1EAB6A8CDEADB
:10286000B3C9A3A10A00000005480178012906D0D8
:102870000121017003490020087000F09FB97047E2
:10288000080000200100002010B500F0A7FA094858
:1028900090F83A0001280AD007A002F0C5FC01F028
:1028A0005FFBBDE8104044F6206002F073B905A05C
:1028B000F3E70000CC1F0020536574206F6B210AE2
:1028C00000000000C9E8D6C3B3C9B9A6210A0000B8
:1028D00003490020087003490870012000F06EB918
:1028E000080000200400002002490120087002496D
:1028F00008707047010000200800002003490020F4
:102900000870034901200870704700000100002092
:102910000800002070B5094DFF231A4605F58076A2
:1029200005E010F8014B54402A5D5A40335D491EC2
:1029300089B2F6D242EA032070BD00008067000829
:102940000A48017D00290FD18C21C1814FF4827189
:1029500001824FF4BE7141820121017504490020BA
:10296000C882012001F008BB70470000CC1F002086
:10297000000000202DE9F0474C4D80460F4668814D
:10298000084601F0F9FA4A4C002642F2107A6089B2
:10299000401C81B26181B1F5FA7F73D9E089A0F55D
:1029A000A060DC3800D5404232286BDAA08D618B04
:1029B00044F62069401AA084484602F0EBF895F8E6
:1029C0003A00B4F9241001280BD03AA002F02CFCF4
:1029D000484602F0DFF8B4F92400002803DB014682
:1029E00002E03CA0F2E74142B1F5967F15DDA684F6
:1029F0004D46484602F0CEF841463BA002F014FC9A
:102A0000284602F0C7F840A002F00EFC284602F06B
:102A1000C1F8A6706670267230E0B8F5877F05D0E1
:102A2000B7B1012F18D0022F1DD119E027B1012F06
:102A300006D0022F17D107E0E882A08AA88512E00D
:102A40006883A08AE8850EE0A883A08A28860AE029
:102A5000E883A08A688606E02884A08AA88602E027
:102A60006884A08AE886504602F094F8414632A075
:102A700002F0DAFB208EA88401F072FA6681BDE8CC
:102A8000F087FFE7B1F5487FF9D9A6845446504650
:102A900002F080F841462CA002F0C6FB204602F06E
:102AA00079F819A002F0C0FB00F040FDCC1F002017
:102AB000000000200A43616C6962726174696F6E84
:102AC00020646966666572656E6365A3BA256443B2
:102AD0004D0A00000AB1EAB6A8B2EED6B5A3BA25EF
:102AE00064434D0A000000002564485AB1EAB6A8C4
:102AF000CAA7B0DC3A20BEE0C0EBCEF3B2EEB9FD1F
:102B0000B4F3A3A10A0000003D3D3D3D3D3D3D3DE8
:102B10003D3D3D3D3D3DB1EAB6A8CAA7B0DC3D3DD7
:102B20003D3D3D3D3D3D3D3D3D3D3D3D3D3D3D3DD5
:102B30003D3D3D3D0A0A00002564485AB1EAB6A869
:102B4000CDEAB3C9210A00002564485AB1EAB6A803
:102B5000CAA7B0DC3A20D0C5BAC5B2BBD5FDB3A375
:102B6000A3A10A0070B5064610488088400803F00B
:102B70002BFA04460D46304603F07AFC03F02CFC99
:102B80006FF00F0203F006FD22462B4603F030FAE9
:102B9000074A084B03F02CFA0022074B03F032FBE4
:102BA00002F04AFFBDE8704003F042BC5400002030
:102BB000D0BE4DDAAFFA3D4000E07A404FF480617C
:102BC00008B1034801E00248001D016070470000A1
:102BD000100C014010B54FF40054204600F09EF850
:102BE00000280CD00649012081F8CA0001020548DE
:102BF00000F00CFB2046BDE8104000F005B810BD09
:102C0000A8220020000C0140C10002D50249086042
:102C100070470249486070470404024000000240C7
:102C20000029016802D041F0010102E04FF6FE7276
:102C3000114001607047000001684FF6FE721140BC
:102C400001600021016041608160C1603149314A09
:102C50000839904203D1486840F00F0006E02D4A41
:102C60001432904204D1486840F0F0004860704748
:102C7000284A2832904203D1486840F47060F5E752
:102C8000244A3C32904203D1486840F47040EDE75A
:102C9000204A5032904203D1486840F47020E5E762
:102CA0001C4A6432904203D1486840F47000DDE76A
:102CB000184A7832904203D1486840F07060D5E7F6
:102CC000154A111F904203D1086840F00F0006E03A
:102CD000114A1432904204D1086840F0F0000860B4
:102CE00070470D4A2832904203D1086840F4706062
:102CF000F5E7094A3C32904203D1086840F470403D
:102D0000EDE7054A50329042EAD1086840F470205D
:102D1000E5E70000080002400804024002460020E7
:102D2000D10001D5034900E003490968114200D0F0
:102D3000012070470004024000000240002A02689F
:102D400001D00A4300E08A430260704730B5026850
:102D500047F6F0739A430C6A8B682343D1E9044524
:102D60002C4323438C692343CC6923434C6A23437C
:102D70008C6A234313430360CA6842600A68826016
:102D80004968C16030BDF0B50D46044601218BB0E5
:102D90001E461746084600F0C1FC3046FFF74CFFC0
:102DA000102003970094CDE9015000208021CDE947
:102DB00004018901CDE90801069007900A9069464F
:102DC0003046FFF7C3FF01213046FFF729FF0122FC
:102DD00002213046FFF7B2FF0BB0F0BD10B523481B
:102DE0004FF4E1314FF49673016064218180C38018
:102DF000012202814FF48774448181815F21C18166
:102E0000962101824FF4AF71418200210175C18288
:102E100041838183C183018441848185C185018689
:102E200041868186C18601768384C823C38480F865
:102E30002810142480F82940042480F82A4080F8BF
:102E4000381080F8392080F83A1043F69822C0E90B
:102E50000F3280F84410A0F84610A0F84810A0F8EF
:102E60004A10A0F84C10A0F84E1010BDCC1F002046
:102E700070B5064D0324284600F0A4FA641EA4B2DF
:102E8000012801D0002CF6D170BD000000FC000824
:102E900040220249024800F0A8BA00002421002084
:102EA00000FC000810B5FFF7E3FFBDE8104040222A
:102EB0000149024800F0A5BA2421002000FC0008C6
:102EC0003C20401E10F0FF00FBD1704700B50648C3
:102ED000FEF74AFB4FF00210FEF746FB4FF48070FE
:102EE00000F004F8012000BD0730550040F48030A8
:102EF000FEF73ABB70B505464FF43026304600F079
:102F00009FF8042811D1094C206940F0020020618B
:102F10006561206940F040002061304600F090F883
:102F2000216941F6FD721140216170BD002002400F
:102F300008490420CA68D20701D001207047CA6836
:102F4000520701D502207047C968C906FBD5032086
:102F500070470000002002400248016941F08001F2
:102F6000016170470020024004490A6822F0100203
:102F70000A600A6802430A607047000000200240AD
:102F8000F0B506464FF400570D46384600F058F8A5
:102F900004280CD1064C206940F0010020613580E6
:102FA000384600F04DF82169BA1E11402161F0BD8C
:102FB00000200240034A116801F03801014311600A
:102FC0007047000000200240034802494160034965
:102FD000416070472301674500200240AB89EFCD77
:102FE0002DE9F041134C0746114816460D46A060E6
:102FF0001148A0604FF40058404600F021F8042822
:1030000013D1206940F01000206135430B493D4346
:1030100045F0F8000880404600F012F8052804D07A
:10302000216941F6EF7211402161BDE8F081000095
:103030002301674500200240AB89EFCD02F8FF1F56
:1030400000B50346FFF774FF02E0FFF771FF5B1E58
:10305000012803D0002B00D1052000BD002BF4D1A6
:10306000FAE72DE9F0410026354619B133291AD285
:10307000002216E00020BDE8F0810023A1EB020E43
:103080000CE000EB830C50F82370DCF80440A742FE
:1030900003D940F82340CCF804705B1C9E45F0D85F
:1030A000521C8A42E9D3062904D8590800EB810052
:1030B0004068E0E703220023CF1E04E050F82240DE
:1030C000A6195D41521CBA42F8D38A1F002330462C
:1030D0002946FDF789F8CEE7064B10B503440020DA
:1030E00004E013F8014B01F8014B401C9042F8D367
:1030F000012010BD24210020064B10B50344002000
:1031000004E011F8014B03F8014B401C9042F8D346
:10311000012010BD24210020F0B5CC78002204F05D
:103120000F03E40601D58C7823430C784FF00F0C85
:1031300014F0FF0F4FF0010E1BD005680E880EFA39
:1031400002F42640A64210D196000CFA06F725EAB2
:10315000070703FA06F5CE783D43282E02D0482E05
:1031600002D002E0446100E00461521C082AE5D369
:1031700005600A88FF2A1CD94468002202F108066B
:103180000EFA06F50E882E40AE420ED196000CFACD
:1031900006F7BC4303FA06F7CE783C43282E00D14D
:1031A0004561CE78482E00D10561521C082AE5D32E
:1031B0004460F0BDF0B5144C002801DAE36900E08A
:1031C0006368450D2E0185B2C0F30157B540C0F3C9
:1031D0000342032F05D0C6020AD503269640B34307
:1031E00007E023F07062636823F07063636002E0BD
:1031F000AB4343F0706201B12A43002801DAE26177
:10320000F0BD6260F0BD0000000001404161704708
:103210000161704700210D4A00284FF00A000DD0CF
:1032200032F82030401C19442828F9D31E20B1FB65
:10323000F0F04CF640614843000C704702EB80030D
:10324000401C5B8828281944F8D3EFE75C20002055
:10325000F0B589B005461BA424221D496846FDF738
:1032600031F920780C216B46491E01EB41021A44CA
:103270001678864209D156786778BE4205D1927891
:10328000A678B24201D1491C01E00029ECD1607A54
:10329000A37A303800EB80006FF02F0202EB400081
:1032A00018442870697020796179202808D0303856
:1032B00000EB800002EB40000844A87009B0F0BDAC
:1032C0000020F5E741707220313220323031390070
:1032D0005C670008F0B507460024094D094E07E079
:1032E00055F83400394600F093FE012806D0641CDE
:1032F00030788442F4DB4FF0FF30F0BD2046F0BD63
:1033000020660008D866000810B50C4604E02D2B96
:1033100007D05AB1401C521E0378A3F130010A298C
:10332000F5D200F05DFE2060012010BD002010BD30
:10333000FEE7000038B51D208DF8000003208DF851
:10334000010002258DF8025001248DF803406846E3
:1033500000F0B0F80E204FF0E022A103C2F8801276
:103360008DF800008DF801508DF802408DF8034073
:10337000684600F09FF80121014800F042FF38BD87
:103380000004004008E04B7800F8013B11F8023BD4
:10339000521E00F8013B92B2002AF4D170470EE0B1
:1033A000CB7800F8013B8B7800F8013B4B7800F8B4
:1033B000023B11F8043B521E00F8013C92B2002A75
:1033C000EED1704770B50446FFF7FEFD2046FFF7CB
:1033D00091FD0546FFF7C0FD042D02D12068401C79
:1033E00001D0002070BD012070BD10B5002304E0A5
:1033F00030F8134021F8024B5B1C9342F8D30120B4
:1034000010BD2DE9F04116460D460746FFF7DCFDDD
:1034100000240DE035F8021B07EB4400FFF7B0FD78
:10342000042804D0FFF798FD0020BDE8F081641C5B
:10343000B442EFD3FFF790FD0120F6E770B5174CCB
:10344000174D661C01284FF050001FD001F07CFC86
:103450001449802001F088FC1349812001F084FC8C
:103460002146832001F080FC2946822001F07CFC6B
:103470003146842001F078FC2921852001F074FC7C
:10348000BDE870403821862001F06EBC01F05CFC84
:103490000649802001F068FC0549DEE74100002074
:1034A000570000A0122F14002300422112272400ED
:1034B0002300410130B50F23C27801780125F2B114
:1034C000144A126801F1E02102F4E062C2F5E06200
:1034D000120AC2F10404D3404278A24084781C400E
:1034E0001443220181F80024007800F01F018D4070
:1034F0004009800000F1E020C0F8005130BD01F02B
:103500001F0085404809800000F1E020C0F880518C
:1035100030BD00000CED00E002490843024908609C
:10352000704700000000FA050CED00E0BFF34F8F7C
:1035300004480168044A01F4E06111430160BFF3EB
:103540004F8FFEE70CED00E00400FA0510B501F026
:103550008FFBFFF7BBFC02F019FA0E480121016056
:1035600002210160C11401600120FFF727FB0A4816
:10357000B0F90E0000F014F84FF4FA7002F0B4F94C
:1035800040F2AA5002F0BAF9BDE81040034801F039
:1035900001BB0000140C0140CC1F0020A0860100DC
:1035A00007490A88904201DD4A8003E0002800DADA
:1035B0000020488049884FF0804000F037BF00006D
:1035C0005C00002010B500280CD00022026019B168
:1035D00005A1FCF781FE04E00022134604A1FCF7DC
:1035E0007BFE062010BD00002D2D2D0D0A000000D1
:1035F000252E31660D0A000010B5702001F0A4FBE5
:10360000052001F02DFB05490120086000BF00BF27
:1036100000BF0249091D086010BD0000100C0140E8
:1036200070B50120FFF7F6FD05460A2001F0B2FA59
:1036300005494FF400640C60322001F0ABFA0248F7
:10364000001D0460284670BD100C014030B589B0E3
:103650000121032000F06EF801210C2000F082F817
:103660000820ADF81C0018208DF81F0003208DF8ED
:103670001E0007A92248FFF74FFD002440F2CF703B
:10368000ADF81400ADF810404FF08045ADF8124091
:10369000ADF816408DF8184004A9284600F0CAFE7F
:1036A0006020ADF800000120ADF802000420ADF864
:1036B00004008001ADF80C00ADF80840ADF80640FC
:1036C000ADF80A40ADF80E406946284600F072FE9B
:1036D0000821284600F0A0FE0121284600F084FDC4
:1036E0000121284600F090FD0121284600F096FDBA
:1036F00004484FF4FA7144808480018009B030BDE1
:10370000000801405C000020034A516821F4404158
:10371000014351607047000000100240044A002934
:10372000516901D0014300E08143516170470000BD
:1037300000100240044A0029D16901D0014300E091
:103740008143D1617047000000100240044A002903
:10375000116901D0014300E081431161704700000D
:1037600000100240044A0029916901D0014300E0A1
:10377000814391617047000000100240044A002913
:10378000D16801D0014300E08143D160704700005F
:10379000001002400C48016841F0010101604168DD
:1037A0000A4A114041600168094A114001600168FC
:1037B00021F480210160416821F4FE0141604FF451
:1037C0001F01816070470000001002400000FFF8F8
:1037D000FFFFF6FE30B5204A5168204B11F00C0176
:1037E00003D0042901D0082901D0036012E05168F8
:1037F000536801F470114FF0020413F4803F04EB9E
:10380000914102D053689B0301D5154B00E0134B47
:103810005943016051680F2303EA1111114B5C5C9D
:103820000168E14041605468072505EA14241C5DE5
:1038300021FA04F48460546805EAD4241B5DD9405D
:10384000C1605268032303EA9232064B1B1F9A5C45
:10385000B1FBF2F1016130BD0010024000127A00AC
:1038600000093D0074000020034600205909094A60
:1038700001290AD002290AD0516A03F01F0201234C
:1038800093400B4200D0012070471168F5E7116AA0
:10389000F3E70000001002400248406800F00C000E
:1038A0007047000000100240034A516821F0F00107
:1038B0000143516070470000001002400149086058
:1038C0007047000000004242034A516821F4E06161
:1038D000014351607047000000100240034A5168E4
:1038E00021F4605141EAC00050607047001002406E
:1038F000014908667047000000004242034B5A68C5
:10390000084322F47C1210435860704700100240B4
:10391000034A516821F003010143516070470000E0
:103920000010024010B50024B42001F0F1F9044A5F
:10393000010C11F4C06F116000D00124204610BDAD
:10394000400000200029018802D041F0400101E040
:1039500021F040010180704730B502884C8802F4A4
:1039600041530A88CD8822438C882C4322430C89FA
:1039700022434C8922438C892243CC8922431A4317
:103980000280828B22F400628283098A018230BD28
:103990002DE9F04391B0074601208DF83000002456
:1039A0008DF831000B944FF46020CDE90D04022016
:1039B000224D0E468DF83C00994690460BA92846AC
:1039C000FDF722FEF9B2032301222846FDF740FE4F
:1039D000F1B2032301222846FDF73AFE184E304685
:1039E000FFF72AF91548CDF80C904C300090CDE93E
:1039F00001848020CDE904404000069080000790BB
:103A0000202008904FF44050CDE909046946304623
:103A1000FFF79CF901213046FFF702F90121284602
:103A2000FDF7DAFD01212846FDF7CCFD01212846EE
:103A3000FDF74DFE11B0BDE8F08300000024014009
:103A40000800024070B5502271490020FFF744FB86
:103A500070486F4C017800292AD094F83A20002150
:103A60004FF4877642F21075012A017025D06AA0C2
:103A700001F0DAFB284601F08DF875A0216801F00D
:103A8000D3FB284601F086F8A18875A001F0CCFB95
:103A9000284601F07FF8E288218977A001F0C4FB75
:103AA000284601F077F86089B04277D176A076E0B9
:103AB0007B4994F83800087070BD7AA001F0B4FB1F
:103AC000284601F067F884A0216801F0ADFB284684
:103AD00001F060F8A18883A001F0A6FB284601F060
:103AE00059F8E288218983A001F09EFB284601F065
:103AF00051F86089B04201D182A000E086A001F0B7
:103B000093FB284601F046F8618988A001F08CFB00
:103B1000284601F03FF8A18989A001F085FB2846DD
:103B200001F038F8A18C8AA001F07EFB284601F054
:103B300031F894F8292094F82A1089A001F074FB38
:103B4000284601F027F8E08A08B18BA000E08FA09A
:103B500001F06AFB284601F01DF894F8280008B12E
:103B600090A000E094A001F05FFB284601F012F85D
:103B700094F8381009B195A000E09AA001F054FB28
:103B8000284601F007F80020FEF798F999A001F007
:103B90004BFB2846BDE8704000F0FCBFA2A001F03E
:103BA00043FB284600F0F6FFA189A6A001F03CFBEC
:103BB000284600F0EFFFA18CA8A001F035FB2846B5
:103BC00000F0E8FF94F8292094F82A10ABA001F047
:103BD0002BFB284600F0DEFFE08A08B1AFA000E032
:103BE000B5A001F021FB284600F0D4FF94F828008E
:103BF00008B1B8A000E0BFA001F016FB284600F015
:103C0000C9FF94F8381009B1C1A0B7E7CCA0B5E757
:103C1000CC1F0020460000203D3D3D3D3D3D3D3D4B
:103C20003D3D3D3D3D3D3D3D466163746F727920B4
:103C300056657273696F6E3D3D3D3D3D3D3D3D3D79
:103C40003D3D3D3D3D3D3D3D3D3D3D0A00000000CB
:103C50004261756420726174653A25640A0000004F
:103C60004D656173757265206672657175656E6309
:103C7000793A2564485A0A0052616E67653A2564AC
:103C80006D7E25646D0A000050756C736520667248
:103C9000657175656E63793A34303030485A0A0080
:103CA000040000203D3D3D3D3D3D3D3D3D3D3D3D14
:103CB0003D3D3D3D3D3D3DB3F6B3A7D0C5CFA23D13
:103CC0003D3D3D3D3D3D3D3D3D3D3D3D3D3D3D3D24
:103CD0003D3D3D3D3D3D0A00B2A8CCD8C2CA3A2583
:103CE000640A0000B2E2C1BFC6B5C2CA3A25644840
:103CF0005A0A0000C1BFB3CC3A25646D7E25646DBD
:103D00000A000000C2F6B3E5C6B5C2CA3A34303084
:103D100030485A0A00000000C2F6B3E5C6B5C2CA70
:103D20003A3230303030485A0A000000C2F6B3E56B
:103D3000D6D8B8B4C6B5C2CA3A25640A0000000095
:103D4000BFAAB9D8C1BFC3C5CFDE3A25646D0A008A
:103D5000B1EAB6A8CEC2B6C83A256631A1E60A00D5
:103D6000B5E7C1F7BBB7C1BFB3CC3A25646D417E9F
:103D700025646D410A000000B1EAB6A8BDE1B9FBB7
:103D80003AB1EAB6A8CDA8B9FD0A0000B1EAB6A8D2
:103D9000BDE1B9FB3AB1EAB6A8CEB4CDA8B9FD0AE7
:103DA00000000000B1EAB6A8BBF9D7BC3AC7B0BB67
:103DB000F9D7BC0A00000000B1EAB6A8BBF9D7BC2D
:103DC0003ABAF3BBF9D7BC0A00000000BFAABBFA9D
:103DD000D7D4B6AFD4CBD0D0C1ACD0F8B2E2C1BF4B
:103DE0000A000000BFAABBFAB2BBD7D4B6AFD4CB8F
:103DF000D0D00A003D3D3D3D3D3D3D3D3D3D3D3D3D
:103E00003D3D3D3D3D3D3D3D3D3D3D3D3D3D3D3DE2
:103E10003D3D3D3D3D3D3D3D3D3D3D3D3D3D3D3DD2
:103E20003D3D3D3D3D0A000050756C736520667256
:103E3000657175656E63793A3230303030485A0AB0
:103E400000000000537769746368207468726573BA
:103E5000686F6C643A25646D0A00000043616C6908
:103E600062726174696F6E2074656D7065726174E1
:103E70007572653A256631A1E60A000043757272D3
:103E8000656E74206C6F6F702072616E67653A2585
:103E9000646D417E25646D410A00000043616C69D8
:103EA00062726174696F6E20726573756C743A50DA
:103EB0006173730A0000000043616C69627261748F
:103EC000696F6E20726573756C743A4661696C0A2D
:103ED0000000000043616C6962726174696F6E205A
:103EE000626173653A46726F6E7420626173650A2F
:103EF0000000000043616C6962726174696F6E203A
:103F0000626173653A4261636B20626173650A00A6
:103F1000426F6F74206175746F6D61746963616C59
:103F20006C792072756E20636F6E74696E756F7533
:103F300073206D6561737572656D656E740A00003E
:103F4000426F6F7420646F6573206E6F74206175AB
:103F5000746F6D61746963616C6C790A00000000B4
:103F600010B5502203490020FFF7C6F8BDE8104005
:103F7000FEF798BFCC1F0020134910B50A78824283
:103F800001D1002010BD0870104920B1012809D0CE
:103F900002280FD110E0B1F90E00FFF701FB40F24B
:103FA000AA5005E0B1F91000FFF7FAFA40F23250DA
:103FB00001F0A4FC012010BDB1F91200FFF7F0FAE6
:103FC00040F2CE40F4E7000005000020CC1F0020A6
:103FD00064230121014A0020FFF7DABC5C200020A5
:103FE00010B5002102780B462D2A07D1012304E0E9
:103FF00001EB8101490030391144401C0278A2F1E3
:104000003004092CF4D90BB1484210BD084610BD4C
:1040100005E0934201D000207047401C491C037802
:1040200013B10A78002AF4D10120704710B5FEF7C9
:104030002FFFFFF707FD144C2068B0F5165F12D074
:10404000B0F5164F0FD0B0F5E13F0CD0B0F57A3F88
:1040500009D0B0F5E12F06D0B0F5612F03D0FEF7FF
:10406000BDFEFFF77DFF60890849A0F51C42403A7C
:1040700006D032220A802068BDE81040FDF7DEBC81
:10408000C8200880F7E70000CC1F002010000020A7
:104090004FF0E020002181610161704702480188F2
:1040A000491C018070470000860000207047000016
:1040B0001FB5FDF7A9FBFDF7E1FB4FF48060FFF7AB
:1040C0002BFA0121CC022046FFF74CFB01212046B0
:1040D000FFF754FB00212046FFF750FB19208DF815
:1040E0000C0002208DF80D0001208DF80E008DF8D7
:1040F0000F0003A8FFF7DEF94FF47A70ADF8040063
:104100003F20ADF8000000201C4CADF80600ADF8D3
:1041100002006946204600F08DF90121204600F09A
:104120006DF801214802FFF71DFB154C01212046C7
:10413000FDF748FA2046FDF7C5FA2046FDF75DFA7F
:104140000028FAD12046FDF7CCFA2046FDF74EFABA
:104150000028FAD101210846FFF7E0FAFDF7DEFB5F
:10416000FDF722FCFFF772FAFFF792FF04B04FF45D
:10417000E130BDE81040FDF761BC0000002C0140BB
:104180000024014000F096BA114910B5088808B122
:10419000401E08800F48104A0078127802430CD065
:1041A0000E4A12784AB9012807D10D4890F8CA0082
:1041B00018B1088808B9488808800A4C01212046AF
:1041C00000F01CF82046BDE81040012100F019B8AD
:1041D00088000020080000200400002002000020C9
:1041E000A8220020000400400029018802D041F0EC
:1041F000800101E021F0800101807047C943018204
:104200007047C943018270470029018802D041F0FC
:10421000010101E021F0010101807047002930F81F
:10422000441F02D041F4004101E0C1F30E010180BE
:10423000704700004B4910B5884202D10121C414D7
:1042400086E0B0F1804F09D0474988420DD1012165
:104250000220FFF77BFA0021022064E001210846DA
:10426000FFF774FA002101205DE04049884206D141
:1042700001210420FFF76AFA0021042053E03C49A1
:10428000884206D101210820FFF760FA00210820AA
:1042900049E03849884206D101211020FFF756FA3B
:1042A000002110203FE03449884206D1012120201E
:1042B000FFF74CFA0021202035E03049884202D136
:1042C0000121441444E02E49884202D10121CC044A
:1042D0003EE02C49884202D101210C0538E02A49F0
:1042E000884202D101214C0532E02849884206D19A
:1042F00001214020FFF72AFA0021402013E0244941
:10430000884206D101218020FFF720FA0021802079
:1043100009E0204988420AD1841501212046FFF78F
:1043200015FA00212046BDE81040FFF70FBA1A49E0
:10433000884202D101210C040AE01849884202D1C6
:1043400001214C0404E0164988420AD101218C0461
:104350002046FFF713FA2046BDE810400021FFF782
:104360000DBA10BD002C01400004004000080040C0
:10437000000C0040001000400014004000340140D8
:10438000004C014000500140005401400018004022
:10439000001C00400020004000400140004401405B
:1043A00000480140002A828901D00A4300E08A4384
:1043B0008281704770B5028C22F480520284058C91
:1043C0008288838B0C8823F4E6464FF6FF7303EA5A
:1043D0000424344325F400560D8903EA053535439A
:1043E0004E8803EA06362E43094DA84202D0094DF5
:1043F000A84205D122F480458A8903EA82122A4321
:1044000082808483C988A0F84010068470BD0000B3
:10441000002C014000340140828B4FF6FF7322F4E0
:10442000006203EA0121114381837047A0F8401024
:104430007047000030B502881B4C1C4DA0420DD0C7
:10444000A8420BD0B0F1804F08D0194B984205D04C
:10445000184B984202D0184B984203D122F07003B7
:104460004A881A43154B984206D0154B984203D000
:1044700022F44073CA881A4302808A8882850A8897
:104480000285A0420AD0A84208D00E4A904205D028
:104490000D4A904202D00D4A904201D1097A01861C
:1044A0000121818230BD0000002C01400034014018
:1044B0000004004000080040000C004000100040D4
:1044C0000014004000400140004401400048014009
:1044D0002DE9F04101210220FFF72CF94FF4807102
:1044E0003048FEF795FE304D40F2E73632463F2128
:1044F000284600F057FCFEF71DFF2C4A00232C4CE9
:10450000107EFF280DD0012815D002283ED029A00A
:1045100000F08AFEB4F8C810BDE8F041244800F06D
:1045200061BA1376FEF75AFCFFF71AFD2BA120485B
:10453000FBF7D2FE30E00220107691884FF47A70BB
:10454000814202D9908032460DE02E4F0F2904D8C7
:10455000B0FBF1F03246788005E02B487B80B0FB61
:10456000F1F0401E82B23F21284600F01BFC0120E2
:1045700084F8CA0000210E48C834FFF723F82080D1
:104580000B48FBF780FF24F8C809C3E7002108485F
:10459000FFF718F8A4F8C8000548FBF774FFA4F863
:1045A000C800B7E7000C014000040040CC1F002009
:1045B000A8220020B5B1C7B0CEAAB1EAB6A8C4A35C
:1045C000CABDA3ACC7EBB1EAB6A8214141207878B7
:1045D0002078782042420D0A00000000B5B1C7B033
:1045E000CEAAB1EAB6A8C4A3CABDA3ACC7EBB1EAD0
:1045F000B6A8212041412078782078782042420DC9
:104600000A0000008800002040420F0070B52148D9
:104610000088214AC0B292F8811000292DD192F869
:1046200080101E4C0025505492F880001B4B401CFB
:10463000C0B20C3C82F8800080280DD2517803294A
:1046400002D0102903D019E0082805D016E0967989
:10465000A0F109018E4211D1104E4FF6FE71361DA8
:104660003180198821F001011980218821F0010190
:104670002180012182F88110155470BD074818303F
:104680000580188840F001001880208840F0010063
:10469000208070BD04380140262200200C2C0140EF
:1046A0000348002180F8811080F8801070470000D6
:1046B000262200200B494FF6FE700880081F018853
:1046C00021F00101018007481038018821F0010123
:1046D00001800548012180F8811090F88020002198
:1046E00081547047102C0140262200200348008886
:1046F000800601D5FFF78ABF7047000000380140EF
:10470000C943018070470029818902D041F40051DA
:1047100001E021F400518181704700002DE9FC5F28
:104720006F4CA4F18200009082300546019095F80C
:10473000810001287AD121462078DFF8A8B1DFF87E
:10474000A88149784FF0000A4D2801D1532908D09B
:10475000664A92F83920904221D0E0780B281DD18A
:104760001DE08BF800A02046FEF7B4FD4646C8F8D1
:10477000040000280DDB5C4995F880200831601D9D
:10478000FEF7C2FD5A48716800EBC1004168B0688D
:10479000884795F880102046FBF7C6FE97E0504802
:1047A0004F4E0527823E90F880004FF00109032903
:1047B0001ED006F180021029528807D0328070780E
:1047C00040F08000707086F8029052E0217939B98B
:1047D0006379A179B3EB510F02D10931884207D037
:1047E0003280707840F0800070700320B07040E03C
:1047F000611E4FF6FF72415C02EA0121A21E855C38
:10480000801E0D4381B2A8F800502046FEF782F8C2
:10481000A8F8020021883180854208D0707840F0E5
:1048200080007070B77086F880701FE055E000203F
:104830008BF800902F4914E011F83020E3789A4269
:104840000DD16278102A03D122683260A288B2802A
:1048500001EBC0004268DDE90010904706E0401C13
:10486000C0B201EBC0025268002AE5D170780006A0
:1048700002D586F8807007E0607810282BD0B078D9
:1048800028B3401D86F8800016F8800F801E81B284
:1048900013488238FEF73EF8114932788439505473
:1048A000010A0F4816F8802983381154E078072848
:1048B00005D00B4896F88010823800F0C3FF0848F6
:1048C00096F880108238FBF72FFE86F880A0BDE8AE
:1048D000FC5FFFF7E5BE0820D4E7BDE8FC9F0000C1
:1048E000262200205200002064000020CC1F00205F
:1048F00020660008DC660008002A828A01D00A438C
:1049000000E08A438282704710B5C1F3421301F080
:104910001F040121A140012B07D0022B07D0143026
:10492000002A026805D00A4304E00C30F8E7103092
:10493000F6E78A43026010BD30B50446008A85B0B0
:104940000D464CF6FF710840E98801432182A08999
:104950004EF6F3110840A9882A8911436A89024357
:104960001143A181A08A4FF6FF410840A989014364
:10497000A1826846FEF72EFF1948844201D10398B0
:1049800000E00298A189090400EBC00101EB0010CE
:10499000296801D5490000E08900B0FBF1F06422EC
:1049A000B0FBF2F109010B096FF018056B4300EB46
:1049B0008300A3891D044FF0320306D503EBC0002A
:1049C000B0FBF2F000F0070005E003EB0010B0FBD5
:1049D000F2F000F00F000843208105B030BD000068
:1049E0000038014070B5002917D08AB20B4C01463F
:1049F00023460B48FEF7C7F9094D01222D1F8021E0
:104A00002846FFF779FF01212046FEF709F92846DD
:104A1000BDE870400121FFF776BE70BD4400024042
:104A200004380140490050EAC12018BF04204A0D53
:104A300018BF40F0010040F2FF72B2EB515F08BFB7
:104A400040F00200012808BF052070472DE9F04121
:104A50004F1E00EBC7010446D1E9000115461E4672
:104A600037F006020DD02A46334601F0C1FA7F1E08
:104A700004EBC703D3E9002301F010F837F0060276
:104A8000F1D1022F25D0042F13D0062F18BFBDE877
:104A9000F0812A46334601F0ABFAD4E90A2300F04C
:104AA000FDFF2A46334601F0A3FAD4E9082300F0BB
:104AB000F5FF2A46334601F09BFAD4E9062300F0BD
:104AC000EDFF2A46334601F093FAD4E9042300F0BF
:104AD000E5FF2A46334601F08BFAD4E9022300F0C1
:104AE000DDFF2A46334601F083FAD4E90023BDE80E
:104AF000F04100F0D3BF00000022134610460149E8
:104B000001F088B80000F03F012201F043BD00220F
:104B100013461046114601F07DB830380A2801D2FC
:104B2000012070470020704770B515460C460026DE
:104B300029E0252902D000F8011B23E014F8011F09
:104B400066290AD004DC632921D064291AD107E040
:104B500073290FD0782915D108E014F8016F303E81
:104B600002CD324600F02AFE00260BE002CD00F016
:104B700050FE07E002CD02E000F8012B491C0A7844
:104B8000002AF9D1641C21780029D2D170BD15F812
:104B9000041BD0E73CE000BF00BF00BF00BF00BF68
:104BA00000BF00BF00BF00BF00BF00BF00BF00BF0D
:104BB00000BF00BF00BF00BF00BF00BF00BF00BFFD
:104BC00000BF00BF00BF00BF00BF00BF00BF00BFED
:104BD00000BF00BF00BF00BF00BF00BF00BF00BFDD
:104BE00000BF00BF00BF00BF00BF00BF00BF00BFCD
:104BF00000BF00BF00BF00BF00BF00BF00BF00BFBD
:104C000000BF00BF00BF00BF00BF00BF00BF00BFAC
:104C1000401EC0D2704700000A4B30B4D3E90D21CA
:104C200051EA020403D0884203D2986304E09863F7
:104C300001E0904200D95863D3E90D1230BC02A0C4
:104C400000F0F2BA000000204D61783A2566326D1E
:104C50002C204D696E3A2566326D0D0A0000000069
:104C600002E000BF00BF00BF401EFAD27047000044
:104C700010B52048102404606420FFF78BFF1E4B02
:104C800062021A616420FFF785FF5A616420FFF712
:104C900081FF1A616420FFF77DFF18482021016021
:104CA0000460502000F050F84FF42F70FFF772FFAF
:104CB0001349802000F058F81249812000F054F880
:104CC0001149822000F050F84121832000F04CF877
:104CD0000E49842000F048F82921852000F044F88E
:104CE0003821862000F040F8BDE810406420FFF72E
:104CF00051BF00001008014000100140100C01409D
:104D00001227240023004202570000A04200002086
:104D100070B50C4910260E6000BF00BF00F0F8FD12
:104D2000FF2000F0F5FD01240502FF2000F0F0FD5A
:104D30002843641C042CF7D300BF0249091F0E60EE
:104D400070BD00001408014010B5064910240C6025
:104D500000BF00BF00F0DCFD00BF0248001F046080
:104D600010BD00001408014070B50C460C49102518
:104D70000D6000BF00BF00F0CBFD200E00F0C8FDAD
:104D8000C4F3074000F0C4FDC4F3072000F0C0FDE9
:104D9000E0B200F0BDFD00BF0148001F056070BD1E
:104DA00014080140FEB514460D460646FFF742FAC8
:104DB0000021ADF80440ADF80050ADF80610ADF894
:104DC000021069463046FFF735FB01213046FFF7F8
:104DD00015FA012211463046FFF7E4FA0121304668
:104DE000FFF712FAFEBD00002DE9F04DC84A00247D
:104DF00090B0914205DA21F00043934201D805D1E9
:104E000020B110B0BDE8F04DFFF77EBEB1F5801FB8
:104E10001BDA53EA000209D0002911DA0120FBF75E
:104E2000D4FB10B0BDE8F04DFFF771BE0220FBF7D8
:104E3000CCFBFFF761FE10B081F00041BDE8F08DC2
:104E40006FF03504362201F0A5FB04EB2152C1F3CB
:104E50001308B049A2F2FF33414401F4801282F0FA
:104E60007F6103EB225281F04051009241EA080138
:104E70000022A94B01F0C6F9044608F10200A74E32
:104E8000C0F313000D467E44032867D2D6E9002301
:104E9000204601F017F81ED10098002802BFD6E97D
:104EA000000110B0BDE8F08D01F077F807460C4620
:104EB0009B4A9C4B01F09CF806460D469A4A9B4B38
:104EC0003846214601F094F810B032462B46BDE832
:104ED000F04D00F0E3BD4FF05532954B204629468A
:104EE00001F086F80022934B01F080F906460F4648
:104EF00022462B461046194601F07AF832463B46C8
:104F000001F076F8064600980F46F0B101F045F83A
:104F100080468A46824A834B01F06AF832463B4615
:104F200001F064F922462B4601F06CF905460C4667
:104F30007D4A7E4B4046514601F05AF810B02A4651
:104F40002346BDE8F04D01F05DB90B4610B0324686
:104F500020462946BDE8F04D01F054B900224FF03B
:104F60008043204600F09AFD02460B462046294623
:104F700000F050FE06460F46009801F00EF8CDE90D
:104F8000040132463B461046394601F031F80C9098
:104F900069480C9A4044019009910B46104601F073
:104FA00027F88246024665488B46C8F151080B46F1
:104FB00008F5D72803217844FFF748FD52465B46A1
:104FC00001F016F80A905E480D9152465B460421A6
:104FD0007844FFF73BFD099B0C9A01F009F88446E1
:104FE00001980D9B40EA080860460A9A00F056FDB9
:104FF00083460891B8F1000F4EDD4FF0FF32204696
:10500000294601F0C7FA22462B4600F0F1FF804600
:1050100000988A4660B3DDE90401414A414B00F043
:10502000E7FF099100905A4640465146089B00F020
:1050300035FD32463B4600F0DBFF099B009A00F04D
:105040002DFD4246534601F0D1F822462B4601F091
:10505000D9F804460D46DDE90401334A334B00F02C
:10506000C7FF10B022462B46BDE8F04D01F0CAB88C
:105070005A464046089B00F011FD32463B4600F080
:10508000B7FF4246534601F0B1F810B022462B4616
:10509000BDE8F04D01F0AAB8009840B3DDE9040185
:1050A0001F4A204B00F0A4FF80468A465A462046FD
:1050B0002946089B01F0A6F832463B4600F098FFCF
:1050C0004246534601F09EF822462B4601F09AF8DC
:1050D00004460D46DDE90401134A144B00F088FF35
:1050E00010B022462B46BDE8F04D01F08BB80B46C0
:1050F0005A462046294601F085F832463B4600F0E4
:1051000077FF10B022462B46BDE8F04D01F06EB897
:105110000000F07F645F09000000F03FC61B000044
:10512000763C7935EF39EA3D0000E0FE422EE63F5D
:105130005555D53F0000E03F86EBF9FFC61900004A
:10514000C41900002DE9F041044630480025814291
:1051500005DA21F00042824201D805D124B120466F
:10516000BDE8F041FFF7D0BCB1F5801F1BDA52EA71
:10517000040008D000290FDA0120FBF726FABDE869
:10518000F041FFF7C4BC0220FBF71FFAFFF7B4FCA5
:1051900081F00041BDE8F0816FF0350536222046F0
:1051A00001F0F8F9044605EB2150A0F2FF32D00FD0
:1051B00040F2FF331B1A0D4663F31F55104400F0F5
:1051C000ECFE06460F4629462046FFF70DFE104A24
:1051D000104B00F00DFF04460D460F4A0F4B3046B2
:1051E000394600F005FF22462B4600F057FC0546E5
:1051F0000C460B4A0B4B3046394600F0F9FE2A4666
:105200002346BDE8F04100F049BC00000000F07FFB
:105210000EE526157BCBDB3F362BF111F3FE593D16
:1052200000609F501344D33F0FB410B5A0B023AA21
:1052300068462299FFF778FC6946441A802C00DD05
:1052400080242146684600F0FDFA20B0204610BCBC
:105250005DF814FB00252C46FEF72AFFFEF7E6FE5C
:10526000FEF774F9FEF7B4FE0120FDF7A7FCFFF787
:105270002FF9DFF874801D48012798F83B100026AD
:1052800001290FD00670DFF86890484699F8081099
:1052900099F80420114321D0C16B491CC163C17925
:1052A00011B10AE00770EEE786816D1C4682B5F504
:1052B0007A7F02D9002589F8077000F01BF8641C7A
:1052C000062C02D90024FCF711FAB8F80A004CF2B7
:1052D0005031B1FBF0F0FFF75DFC01E089F80760A9
:1052E000FFF71CFAD1E70000CC1F0020520000207D
:1052F000000000202DE9F0478AB000273D460297C4
:105300000397142105A80497FBF730F9C24800F071
:1053100045FBC14EC14A2C3E708AF16A42F820100A
:10532000401C7082B089401C80B2B081318A8842B2
:1053300067D3FCF753FA718AB848FDF792FEFDF780
:1053400011FCF06200F0A0FAB54CF06294F828105D
:1053500009B10C38F062E088B14600EBC00101EB06
:105360000011F06A0322AF4E02AB4FF0040AB0EB1B
:10537000810F6FD2CC4600286CD0CCF82800A189D0
:1053800001EBC10808EB0111B0EB810F00D301273D
:1053900099F80810C846032907D098F8001079B387
:1053A000317829B1012909D027E0FFF735FCB9E0B0
:1053B00001463A469CA0FFF737FF1EE094F83900FB
:1053C0008DF808008DF8092006208DF80A000122CA
:1053D0009149D81CFDF7E3FF8DF80F508DF8107040
:1053E000072102A8FDF796FA8DF81100000A8DF842
:1053F00012000B2102A800F025FA88F8005091E075
:1054000000E006E19CF80110674699B1398B491C10
:1054100089B239830A29CAD9317849B97A79B98ADE
:10542000CDE900120146FA8A82A03B6BFFF7FCFE31
:105430003D8377E0F97871B1F98B44F6206A491C15
:1054400089B2F983642955D24FF487726281632946
:1054500029D067E0A5E0317811B1012908D061E0D9
:10546000217E02295ED0014679A0FFF7DDFE59E0DA
:1054700094F839008DF808008DF809208DF80AA0FD
:1054800001226549D81CFDF78AFF072102A8FDF714
:1054900041FA8DF80F00000A8DF81000092102A8CA
:1054A00000F0D0F93EE0B98B401A00D54042388474
:1054B000E08A08B9E08B88B194F83A00012815D049
:1054C00065A0FFF7B1FE5046FFF764FB94F83A0081
:1054D0003A8CF96A01280BD065A021E094F83A00D3
:1054E000012801D069A0ECE76EA0EAE771A0E8E727
:1054F00073A015E0A1F16402642A1DD249F640426E
:105500006281C7290ED1B98B411A00D549428AB2AE
:10551000A8F8222094F83A10012901460AD06EA07A
:10552000FFF782FE98F808004446022826D001289A
:105530002FD068E06FA0F3E756465046FFF72AFBEE
:10554000388C0A280AD2788C0A2807D294F83A00B4
:10555000012801D06EA006E077A004E094F83A009C
:10556000012809D07EA0FFF75FFE3046FFF712FB4F
:10557000FD70FD833D7246E083A0F4E7307818B9F2
:1055800033A0A16AFFF750FE25720120FDF716FB3C
:1055900039E03078B8BB2EA0D8F82810FFF744FEC9
:1055A00031E0C9F8285099F808004946022800D18E
:1055B0000D72307810B1012807D024E0207E022837
:1055C00021D07CA0FFF730FE1DE094F839008DF863
:1055D00008008DF809208DF80AA04FF07F40C9F827
:1055E0002C0001220C49D81CFDF7D9FE072102A886
:1055F000FDF790F98DF80F00000A8DF810000921D1
:1056000002A800F01FF9FCF7B5FAA9F81250A9F8A2
:105610000C500AB0BDE8F0872C0000208C00002060
:10562000CC1F0020520000202566326D207C2025F2
:10563000640D0A002566326D2C25646D762C256676
:1056400031A1E62C25642C25646C760D0A0000003F
:105650002566326D0D0A000043616C6962726174E7
:10566000696F6E2073756363657373A3A10A00008D
:10567000344B485AA3BA2566326D20646576696159
:1056800074696F6EA3BA2564636D0A0043616C6927
:1056900062726174696F6E206661696C757265A370
:1056A000A10A0000B1EAB6A8CEB4CDA8B9FDA3A165
:1056B0000A000000B1EAB6A8CDA8B9FDA3A10A006E
:1056C000344B485AA3BA2566326D20C6ABB2EEA35E
:1056D000BA2564636D0A000032304B485AA3BA25DC
:1056E00066326D206572726F72A3BA2564636D0AAB
:1056F0000000000032304B485AA3BA2566326D20B4
:10570000C6ABB2EEA3BA2564636D0D0A00000000BB
:105710003D3D3D3D3D3D3D3D3D3D3D3D3D3D51439F
:105720002050415353A3A13D3D3D3D3D3D3D3D3DB9
:105730003D3D3D0A0A0000003D3D3D3D3D3D3D3DB6
:105740003D3D3D3D3D3DC6B7BCECCDA8B9FDA3A157
:105750003D3D3D3D3D3D3D3D3D3D3D3D0A0A000059
:105760003D3D3D3D3D3D3D3D3D3D3D3D3D3D51434F
:10577000204641494CA3A13D3D3D3D3D3D3D3D3D84
:105780003D3D3D0A0A0000003D3D3D3D3D3D3D3D66
:105790003D3D3D3D3D3DC6B7BCECCEB4CDA8B9FDC9
:1057A000A3A13D3D3D3D3D3D3D3D3D3D3D3D0A0AC5
:1057B000000000002D2D2D0D0A000000FEB5002375
:1057C000002903DA49422D2400F8014B0A274FF043
:1057D0002E0C6E4691FBF7F4654205EB850501EB57
:1057E00045013031F15421465B1C3AB1934204D15A
:1057F00006F803C003F10103ECE7EBD90029E9D176
:1058000004E0A3F10103F15C00F8011B002BF8D1C7
:10581000FEBD3EB500226D4601F00F03092B01D9F4
:10582000372400E030242344AB54521CD2B209097F
:10583000F2D104E0521ED2B2A95C00F8011B002A8A
:10584000F8D13EBD2DE9F0410D4F0C4605464FF411
:10585000807631463846FDF7DBFC0A4B0020191FE5
:1058600005E02A5C1A800A885206FCD5401CA0423A
:10587000F7DB31463846BDE8F041FDF7C7BC000014
:10588000000C014004380140154A10B501469278D9
:1058900000200AB1084610BD124A114B54895B79A9
:1058A000B4F5877F07D0ABB1012B16D0022BF2D114
:1058B000B2F922000CE033B1012B07D0022BEAD160
:1058C000B2F91C0004E0B2F9160001E0B2F91A00C6
:1058D000081A10BDB2F91E00FAE7B2F92000F7E786
:1058E00000000020CC1F002010B5034C014620888A
:1058F00000F03AF8608810BD5400002010B5034C49
:10590000618800F031F8208810BD000054000020AC
:1059100005490A899207FCD588810889C007FCD00F
:105920008889C0B270470000003001400C4910B5B2
:105930004FF480530B600B490A889207FCD5094C41
:10594000020A241D22800A889207FCD5C0B220805A
:1059500008880006FCD40248001F0360002010BD28
:10596000140C01400838004070B5074C05462080F3
:10597000618041F48050FFF7D9FF45F40040FFF704
:10598000D5FF608870BD00005400002002494FF42C
:105990008050086070470000100C01402DE9F04174
:1059A00004460120FDF74AFDFDF726FE144D286848
:1059B000FDF7B8FF134E002768B127600220FDF7FE
:1059C0003DFDFDF719FE2868FDF7ACFF78B1012019
:1059D0002760BDE8F081B020FFF79AF94FF44871D5
:1059E0002060B18008498842E8D20020F1E7B02069
:1059F000FFF78EF920604FF4C870B080F5E7000023
:105A000008080140540000205821010010B5002969
:105A10000AD00878002807D005487844FBF794F9A5
:105A2000002801D0002010BD0248784410BD0000BD
:105A30009E1100009611000021F00042A2F1605278
:105A4000B2F5801F01F0004328BFD2F17F6C0BD963
:105A50005FEA001C43EAC20242EB507018BF704775
:105A600028BF20F001007047B2F5801FBCBF184668
:105A700070474FEA410C1CF5001F02D2084600F0A7
:105A800050BD70B500F05EFB00000089FFF7F6BF67
:105A90004FF00040A0F580007047000010B591EA7B
:105AA000030F48BF83F0004300F1B483841A71EB05
:105AB000030C05D2121943EB0C03001B61EB0C0124
:105AC000DFF824E14FEA1154A4EB135C1EEA430F04
:105AD00018BF9EEA445F73D023EA0E03DCF1200E68
