:020000040800F2
:10000000D0290020A9010008B1010008C53400086A
:10001000B5010008B7010008B901000800000000A0
:10002000000000000000000000000000BB0100080C
:10003000BD01000800000000BF01000831420008B7
:10004000C3010008C3010008C3010008C301000880
:10005000C3010008C3010008C3010008C301000870
:10006000C3010008C3010008C3010008C301000860
:10007000C3010008C3010008552D0008C301000892
:10008000C3010008C3010008C3010008C301000840
:10009000C3010008C3010008C3010008C301000830
:1000A000C301000815430008C3010008C30100088C
:1000B000C301000819430008C3010008C301000878
:1000C000C3010008C3010008C3010008C301000800
:1000D000C3010008F1480008C3010008C30100087B
:1000E000C3010008C3010008C301000800F002F8C2
:1000F00000F04AF80AA090E8000C82448344AAF178
:100100000107DA4501D100F03FF8AFF2090EBAE875
:100110000F0013F0010F18BFFB1A43F0010318473B
:10012000006C0000206C0000103A24BF78C878C131
:10013000FAD8520724BF30C830C144BF04680C60ED
:10014000704700000023002400250026103A28BF35
:1001500078C1FBD8520728BF30C148BF0B60704739
:10016000662906F08782642900F0CA800020704763
:100170001FB500F0B7FC04000020002105F0EAFCE8
:10018000E0601FBD10B510BD00F0B0FD1146FFF7D7
:10019000EFFF05F05BF900F0CEFD03B4FFF7F2FFCF
:1001A00003BC00F011FE00000948804709480047E1
:1001B000FEE7FEE7FEE7FEE7FEE7FEE7FEE7FEE717
:1001C000FEE7FEE704480549054A064B7047000074
:1001D00041420008ED000008D0230020D029002073
:1001E000D0250020D025002053EA020C00F06980C1
:1001F0002DE9F04B4FF00006002B1FBFB3FA83F53B
:1002000003FA05F424FA05F65E4012BF1643B2FA6B
:1002100082F502FA05F4C5F120051EBF22FA05FC9D
:1002200044EA0C04203556EA044C4FEA144418BF43
:10023000641C4FF000084FF00009904271EB030C72
:1002400039D3002919BFB1FA81F701FA07F6B0FADC
:1002500080F700FA07F6C7F120071EBF20FA07FC57
:1002600046EA0C062037B6FBF4FCA7EB0507103F67
:1002700007F01F0BCBF120060CFA0BFB2CFA06F64D
:1002800044BFB3460026202FA4BF5E464FF0000BAC
:100290005BEA060C08BF4FF0010B19EB0B09ABFB37
:1002A000027C48EB0608C01B06FB02CC0BFB03CC10
:1002B00071EB0C01C1E70B46024641464846BDE8DA
:1002C000F08B13B54FF000004FF00001AFF300804A
:1002D000BDE81C40704700000FB41CB5074B06AAD0
:1002E0007B4469460090059800F0E3FB00206946D6
:1002F00000F0F2FB1CBC5DF814FB0000F5070000E9
:100300002DE9F0410646002410687529314616A5EE
:1003100010D0AFF30080002802DA404213A507E0B6
:1003200031688A0701D512A502E0490704D511A555
:10033000012401E0AFF3008000210A2206F1240726
:1003400009E0B0FBF2FCB0FBF2F302FB1C00303022
:1003500078541846491C0028F3D123462A463046D3
:10036000BDE8F04100F037B9000000002D000000AA
:100370002B000000200000002DE9F0474FF0000A9C
:1003800089460446C0F820A02046E1688847002836
:1003900076D0252806D0D4E901219047206A401C58
:1003A0002062F1E7E168204600258847C4F81CA0D8
:1003B00006460027C4F818A02A2E09D0304604F0BB
:1003C000A6FC38B304EB8708303EC8F8186019E083
:1003D00059F8041B204604EB87029161E1688847C5
:1003E000012F064618D1E069002820DA25F0200503
:1003F0001DE0D8F8180000EB800006EB4000303814
:10040000C8F818002046E1688847064604F07FFCDB
:100410000028EED1012F0AD02E2E08D12046E16807
:1004200088477F1C0646022F45F02005C4DBA069E3
:10043000002803DA404245F00105A061E80701D039
:1004400025F01005B6B1A6F14100192802D82036D2
:1004500045F400654A463146204625604D46FFF783
:100460007FFE58B1012806D0ED1D25F0070000F1F0
:10047000080989E704E005F1040985E730468AE7C1
:10048000206ABDE8F08710B5431C02E010F8011B9C
:1004900071B18107FAD14FF0013202C88C1A8C4336
:1004A00014EAC211F9D0C01A0A0603D0C01E10BD4A
:1004B000C01A10BD0A0401D0801E10BD0902FCD074
:1004C000401E10BD10B5203AC0F00B80B1E81850A6
:1004D000203AA0E81850B1E81850A0E81850BFF42E
:1004E000F5AF5FEA027C24BFB1E81850A0E81850CD
:1004F00044BF18C918C0BDE810405FEA827C24BF21
:1005000051F8043B40F8043B08BF7047D20728BFAE
:1005100031F8023B48BF11F8012B28BF20F8023BFD
:1005200048BF00F8012B70474FF000020429C0F0CB
:10053000128010F0030C00F01B80CCF1040CBCF115
:10054000020F18BF00F8012BA8BF20F8022BA1EB67
:100550000C0100F00DB85FEAC17C24BF00F8012B4C
:1005600000F8012B48BF00F8012B70474FF0000244
:1005700000B5134694469646203922BFA0E80C5099
:10058000A0E80C50B1F12001BFF4F7AF090728BF74
:10059000A0E80C5048BF0CC05DF804EB890028BFF0
:1005A00040F8042B08BF704748BF20F8022B11F019
:1005B000804F18BF00F8012B704770477047704795
:1005C00010B500F093FA006810BD10B5044600F0B5
:1005D0008DFA046010BD2DE9F0470D46994692460C
:1005E000044600F124080168880604D5E06921F07A
:1005F0001001216000E00120A84201DD471B00E05E
:100600000027A1697A1902EB0900081AA061207875
:10061000C00602D42046AFF30080002608E0D4E9EB
:1006200001211AF806009047206A401C761C2062BF
:100630004E45F4DB2078C0060AD52046AFF3008093
:1006400006E0D4E9012130209047206A401C206256
:10065000381EA7F10107F4DC07E0D4E9012118F8FE
:1006600005009047206A401C2062281EA5F1010564
:10067000F3DC2046AFF300802078000602D502208C
:10068000BDE8F0870120FBE770472DE9FF4F0C46DE
:100690001E464FF0FF378BB0D2E90001DDF86080D5
:1006A0000A908A46C1F30A5505B93D46002108461D
:1006B0004FF00000BAF1000F00F4400005DA00EB43
:1006C00080004FF4400101EA50004FEA9059B9F11F
:1006D000010F00DDB9460A9850EA4A000ED044F6F0
:1006E0001050A5F2FF3545432F14B8F1000F1ED06E
:1006F0007542291E1EDDC9F100021CE0B8F1010F90
:100700004FF0000001D0302103E0F24305E0215416
:10071000401CB042FBDB30460022002121540B99E3
:10072000C1F80880C1E900200FB0BDE8F08FBD1B03
:100730006D1CDEE74A4600DA694206A800F060FA5E
:1007400006AB93E8070003AB83E8070050460A991D
:1007500000F041FB8DE80700A0F500501F38009025
:100760000398002D0ADD42F21F014A460844002387
:1007700003A90390684600F0AAFD09E0A0F5005027
:100780004A461F38002303A90390684600F0B4FDD1
:100790008DE807000004000C03D04FF0FF30410843
:1007A00000E01046B8F1000F03D000220092154679
:1007B0001EE0751E05D400F09DF9303262556D1EA5
:1007C000F9D5B3460122084302D000227F1C04E081
:1007D0002078302801D100227F1E002A099784D07A
:1007E0001DE0112D07DA00F085F9303262556D1CDD
:1007F00050EA0102F5D1084302D00098C8B10EE0DA
:100800000021681E05E0235C625C63542254401E94
:10081000491C8142F7DBAB46A81B401E0990002013
:1008200004F80B000B98099AC0F80880C0E9002B67
:100830007AE711264FF0000857E72DE9F04F884678
:100840000446D21D22F0070191B0D1E90001CDE9A3
:100850000A0104F0E1F902460B98C00F01D02D20E7
:1008600007E02068810701D52B2002E0202101EA62
:10087000C000032A099001D0072A05DB0346414640
:10088000204600F07DF90BE12078800601D5E06973
:1008900000E00620B8F1650F814606D0B8F1660F7A
:1008A00018D0B8F1670F70D131E00020B9F1110F05
:1008B000009001DB112301E009F101030AAA01A95B
:1008C0000CA8FFF7E2FEDDE90C70002609F1010536
:1008D000834647E001204B4600904FF000470AAAAC
:1008E00001A90CA8FFF7D1FEDDE90DB00C995D461A
:1008F000002610B909F101000D18B9EB050003D469
:10090000C0F1FF3609F10105A5EB09002BE0B9F1B3
:10091000010F01DA4FF001090020B9F1110F009029
:10092000484601DD112300E003460AAA01A90CA8EC
:10093000FFF7ABFEDDE90C704D46002683462078BC
:1009400000070AD4AB4500DA5D4601A8012D04DD9D
:10095000411911F8011C302907D04F4502DA17F16F
:10096000040F04DA012082460FE06D1EEEE7002F2F
:1009700002DCED1B3E4403E0781CA84200DD7D1C38
:10098000B81B00F1010A4FF000472078000703D49C
:10099000AA4501DB4FF0FF3A0021B7F1004F0DF1FE
:1009A00043088DF8431024D002202B23002F01DAB6
:1009B0007F422D230A21021EA0F1010000DC5FB15D
:1009C00097FBF1FC97FBF1F201FB1C7C17460CF145
:1009D000300C08F801CDEEE7A8F101000370218882
:1009E000090501D5452100E06521A0F1010800F8C5
:1009F000011C09980FA9A1EB0807FF1D00B10120F8
:100A0000411901EBEA70A1693844081A401EA0613F
:100A10002078C00602D42046AFF30080099828B1A0
:100A2000D4E901219047206A401C20622078C0064A
:100A300022D52046AFF300801EE0002E04DBB34534
:100A400002DD01A8805D00E03020D4E9012190475B
:100A5000206A401C2062761CAAF101005FEA000AAD
:100A60000AD100F03FF8C0680168405CD4E9012178
:100A70009047206A401C2062281EA5F10105DCDC9D
:100A800007E0D4E9012118F8010B9047206A401CC7
:100A90002062381EA7F10107F3DC2046AFF3008087
:100AA000032011B041E6000001694A1C0261087888
:100AB000704700B58FB0CDE901310021059105499E
:100AC0007944CDE9031011466846FFF755FC0FB095
:100AD00000BD0000E5FFFFFF0A6802F8010B0A6095
:100AE000704700000048704790230020004870477E
:100AF0007023002030B5B0F10A024FEA900E71F178
:100B000000034EEA817EB0EB0E0061EB91014FEAEB
:100B1000101E4EEA017E10EB0E0041EB11114FEA60
:100B2000102E4EEA016E10EB0E0041EB11214FEA40
:100B3000104E4EEA014E10EB0E0041EB11414018F1
:100B400041F100014FEAD00040EA41704FEAD10183
:100B500010EB80054FEA810444EA907444EB0104F1
:100B60006D1944EB0404521BA3414FF0000348BF2E
:100B70000A3200D530BD401C41F1000130BD0000FB
:100B80002DE9F0411F46044603260168072A01F4B7
:100B9000006004DB08B116A505E016A503E008B166
:100BA00015A500E015A521F010002060A069C01E69
:100BB000A0610FB1401EA0612046AFF300804FB18D
:100BC000D4E9012138469047206A401C2062C01CAD
:100BD000206206E0206AFAE7D4E9012115F8010B4A
:100BE0009047761EF8D22046AFF30080BDE8F08132
:100BF0004E414E006E616E00494E4600696E6600C1
:100C00002DE9F047814616468AB0354878440DC82C
:100C10008DE80D0032487844801C03AC0DC884E890
:100C20000D0041F69B300844372190FBF1F290FB18
:100C3000F1F5A5F1800501FB12041B3C02D56442CD
:100C4000012000E00020DFF898A080460027FA4449
:100C5000AAF1BE0A0EE0E0070AD03246684607EB6A
:100C6000470101230AEB810100F046FB8DE80700F4
:100C700064107F1C002CEED1194F7F44AE3F19E069
:100C8000E80715D007EB04100DF1180A90E80E00E4
:100C90008AE80E00C068F04201D1981908903246E7
:100CA000012306A903A800F027FB03AB83E8070094
:100CB0006D10641C002DE3D14FF0010332466946EC
:100CC000B8F1000F03A802D000F001FB01E000F032
:100CD00013FBC9E90001C9F808200AB0BDE8F08794
:100CE000AC5F000000487047702300207546FFF796
:100CF000F9FFAE4605006946534620F007008546D9
:100D000018B020B5FFF75EFABDE820404FF00006AE
:100D10004FF000074FF000084FF0000B21F00701E3
:100D2000AC46ACE8C009ACE8C009ACE8C009ACE826
:100D3000C0098D46704710B50446AFF300802046C9
:100D4000BDE81040FFF729BA4FF0013C50F8042BE2
:100D500051F8043B9A4221D1A2EB0C03934313EACE
:100D6000CC1317D150F8042B51F8043B9A4215D1FB
:100D7000A2EB0C03934313EACC130BD150F8042BD2
:100D800051F8043B9A4209D1A2EB0C03934313EAB6
:100D9000CC13DBD04FF00000704700BFD01A01BA6F
:100DA000B1FA81F101F0180122FA01F0CB40C1F152
:100DB0002001DBB2C0B2C01A2CFA01F3D11A914360
:100DC00011EAC311E6D1704701491820ABBEFEE716
:100DD0002600020070475FEA400C08BF91F0000F48
:100DE0004FEA8C234FEAC12243EA51514FEA1C508B
:100DF00018BF00F5F0404FEA300018BF41F0004145
:100E00005FEA6C5C00F02980BCF1FF3F08BF40F056
:100E100080407047130C06BF12044FF0100C4FF0C7
:100E2000000C130E04BF12020CF1080C130F04BFC8
:100E300012010CF1040C930F04BF92000CF1020C90
:100E4000D30F04BF52000CF1010C11464FF0000209
:100E5000A0F11F00A0EB0C00704711F0004F08BF7D
:100E6000704731F000413FF4D5AF0B0C06BF0904C9
:100E70004FF0100C4FF0000C0B0E04BF09020CF1E8
:100E8000080C0B0F04BF09010CF1040C8B0F04BFFD
:100E900089000CF1020CCB0F04BF49000CF1010CCE
:100EA000CCF12003A0EB0C0022FA03F302FA0CF2BF
:100EB00041EA030100F10100704720F07F4C80EA15
:100EC000030023F07F47ACEB070303F57C5300F0EE
:100ED000004003F1FF032DE980494FEA154B09B4A7
:100EE0004FEA144325EA0B4E24EA03480FF2042686
:100EF00006EB132749083E785FEA320203FB0667D8
:100F0000C7F5000707FB06F64FEA54374FEAD64607
:100F100006F1020607FB066CCCF1005C4FEA1C47A9
:100F20002CEA074C07FB06F40CFB06F504EB154610
:100F30004FEA961634BF00204FF000404FEAD137F9
:100F400006FB07FC4FEA1C4C0CFB0BF7D21B03FB08
:100F50000CF761EB07010CFB0EF7B0EB074072EBEF
:100F600017420CFB08F734BFA2EB0742B2EB074273
:100F700061EB17414FEA0C444FEA910706FB07FC6F
:100F80004FEA1C4C0CFB0BF7B0EBC74072EB57322F
:100F900003FB0CF734BFA2EBC742B2EBC74261EBD5
:100FA00057310CFB0EF7B0EBC70072EB57720CFB1E
:100FB00008F734BFA2EBC702B2EBC70261EB57716F
:100FC000039F4FEA816141EA921104EBCC044FEA9E
:100FD000D1374FEA826206FB07FC42EA90124FEAE1
:100FE00080604FEA1C4C0CFB0BF7D21B03FB0CF789
:100FF00061EB07010CFB0EF7B0EB074072EB1742F9
:101000000CFB08F734BFA2EB0742B2EB074261EBDF
:1010100017414FEA8C554FEA910704EB9C2406FBDD
:1010200007FC4FEA1C4C0CFB0BF7B0EBC74072EB14
:10103000573203FB0CF734BFA2EBC742B2EBC742F7
:1010400061EB57310CFB0EF7B0EBC70072EB577238
:101050000CFB08F734BFA2EBC702B2EBC70261EB8F
:10106000577115EB4C254FEA816141EA92114FEA25
:1010700082624FEAD13742EA901206FB07FC44F144
:1010800000044FEA80604FEA1C4C0CFB0BF7D21BAC
:1010900003FB0CF761EB07010CFB0EF7B0EB07400D
:1010A00072EB17420CFB08F734BFA2EB0742B2EB1E
:1010B000074261EB174115EB1C154FEA813141EAFC
:1010C00092414FEA823242EA90424FEA80304FEA40
:1010D0000C7644F1000448EA03434EEA0B484FF013
:1010E000000EB2EB080C71EB030724BF62463946D1
:1010F0004EEB0E0E4FF0000B0018524149414BEBE6
:101100000B0BB2EB080C71EB03077BF1000B24BF58
:10111000624639464EEB0E0E4FF0000B001852415E
:1011200049414BEB0B0BB2EB080C71EB03077BF166
:10113000000B24BF624639464EEB0E0E51EA020701
:1011400018BF46F0010616EB0E7655F1000254F179
:10115000000103D5BDE88901BDE80088BDE889012B
:10116000BDE80048B619524141EB0101A3F101036A
:10117000704780807F7E7D7C7B7A79787776767504
:101180007473727171706F6E6E6D6C6C6B6A6A697C
:101190006868676666656464636362616160605F16
:1011A0005F5E5E5D5D5C5C5B5B5A5A59595858578F
:1011B00057565655555554545353525252515150F7
:1011C00050504F4F4F4E4E4D4D4D4C4C4C4B4B4B4A
:1011D0004A4A4A4949494848484747474746464690
:1011E00045454544444444434343434242424241CB
:1011F0004141002B9C4630D477002BD01CB54FEAE0
:10120000370703B44FF010004FF01001BAF1000F90
:1012100006D0BCF1000FDCBF40F0080040F0080130
:101220004FF000000FBCBDE810400BF1010BBBF10B
:10123000010F08BF5FEA170722BF12F1010211F187
:1012400001014FF0004143F1000300F0004043EA88
:1012500000007047F9D35708D0E746EA064613F175
:10126000400F4FEA16461FDD13F1200FDFBF164374
:101270000A46002120335B42BED0C3F1200746EA74
:10128000064602FA07F74FEA164646EA0706C3F192
:10129000200722FA03F201FA07F721FA03F14FF0CF
:1012A000000342EA0702A7E746EA020646EA0646C4
:1012B0004FEA164646EA0106BCBF46EA0646360C29
:1012C0004FF000034FF000024FF0000194E72DE9CA
:1012D000804C9A46934670B491E8380007C831EACA
:1012E000400C48BF34EA430C03D5FFF7E6FDFFF797
:1012F00080FFF0BCBDE8008C2DE9804C9A469346F7
:1013000070B491E8380007C810F0804F08BF13F0A0
:10131000804F03D100F005F8FFF76BFFF0BCBDE88C
:10132000008C20F07F4780EA030023F07F4C07EB1E
:101330000C03A3F57C5300F00040A3F1FE0392F0F0
:10134000000F00F0B38095F0000F00F077802DE9DA
:1013500001494FEA11404FEA144621EA004800FBD8
:1013600006FC24EA064708FB06F607FB08F800FB24
:1013700007F718EB06484CEB164C4FEA124B18EBEC
:1013800007484FEA15464CEB174022EA0B4E0BFB81
:1013900006FC25EA06470EFB06F607FB0EFE0BFBD6
:1013A00007F71EEB064E4CEB164C4FF000061EEBFB
:1013B000074E4CEB174B18EB0B0840F1000018EBF5
:1013C0000E0B58EB000840F100008F1A4FF000019F
:1013D0003CBFC943661B14BFB5EB040C00213CBFE6
:1013E000C943F61B4FEA17444EEA8E0E27EA04451E
:1013F0004FEA1C4704FB07622CEA074C05FB07F782
:101400000CFB05F604FB0CFC16EB074642EB1742FF
:1014100016EB0C4642EB1C421BEB060658EB020295
:10142000414146EA9E0601D5BDE80189B6195241FF
:1014300041EB0101A3F10103BDE801894FEA144525
:101440004FEA114724EA054621EA074C05FB07F459
:1014500006FB07F70CFB06F105FB0CFC11EB074143
:1014600044EB17444FEA124711EB0C4144EB1C4488
:1014700022EA074C05FB07F206FB07F70CFB06F612
:1014800005FB0CFC16EB074642EB174216EB0C462D
:1014900042EB1C456A1854F1000148BF7047B61969
:1014A000524141EB0101A3F10103704795F0000F98
:1014B00037D04FEA11424FEA144721EA024624EAA4
:1014C000074C02FB07F106FB07F70CFB06F402FBD7
:1014D0000CFC14EB074441EB17414FEA154714EBA2
:1014E0000C4441EB1C4125EA074C02FB07F506FBC7
:1014F00007F70CFB06F602FB0CFC16EB074645EB68
:10150000174516EB0C4645EB1C42121951F1000130
:1015100048BF7047B619524141EB0101A3F10103E5
:1015200070474FEA14454FEA114724EA054621EA7D
:10153000074C05FB07F106FB07F70CFB06F24FF023
:10154000000605FB0CFC12EB074241EB174112EBC6
:101550000C4251EB1C4148BF7047921841EB01010E
:10156000A3F10103704700002DE9F0410146124844
:10157000182202250560114F4615114C07F1040889
:10158000AB036361080201D53E6001E0C8F800606A
:1015900001F056FD2361490001F052FD521E12F088
:1015A000FF02EED1636101F04BFD0348001D0560B1
:1015B000BDE8F04101F044BD10140140100C0140A1
:1015C000001001400029816802D041F0010101E0D2
:1015D00021F00101816070470029816802D041F447
:1015E000807101E021F48071816070470146002024
:1015F0008968490700D501207047014600208968A5
:10160000090700D50120704710B542680E4B0C79D0
:101610001A400B6842EA04221343436083680B4A72
:101620001340D1E9024222434C7943EA44031A436E
:101630008260C26A097C22F47002491EC9B242EA81
:101640000151C16210BD0000FFFEF0FFFDF7F1FF88
:1016500070B5072409290AD9C568A1F10A0606EB65
:101660004606B440A543B3401D43C56007E0056985
:1016700001EB4106B440A543B3401D4305611F2360
:10168000072A09D2446B521E02EB820293409C430C
:1016900091400C43446370BD0D2A09D2046BD21FE4
:1016A00002EB820293409C4391400C43046370BD63
:1016B000C46A0D3A02EB820293409C4391400C4372
:1016C000C46270BD816841F00801816070470029E3
:1016D000816802D041F4A00101E021F4A001816001
:1016E0007047816841F004018160704770B540F235
:1016F000DC5402F063F8424D40F6E4414143E88196
:10170000090BE982AB784FF4FA72A3B1011B00D543
:10171000494289B2322918D3914201D9142100E0FB
:101720000221A04201D9484200E0084604F0A8F98D
:10173000A882002070BDAB8A03B9AA82A0F5A06080
:10174000DC3800D54042642801DA012070BD08462B
:1017500004F0DEFC00222B4B04F000FB03F0EEFD56
:101760000022294B04F0E8FC04F08CFCA98A081A3A
:1017700004B200210120A12C0DDA6A7912B1AA79F4
:101780001AB103E0A024A97115E0A871AA79521E2C
:10179000AA716E340EE04FF4347294420BDB6B7915
:1017A000022B0FD0AA79012A00D9A871AA79521C5C
:1017B000AA716E3C24B2AA7942B1012A0CD0022A45
:1017C00016D10EE014460222AA71F4E7B4F5167F92
:1017D0000EDDA8716E3C0AE0B4F5EB7F08DAA97162
:1017E00004E040F253218C4202DAA8716E3424B234
:1017F000A87902F08DFCA0B204F002F9A882A4E757
:101800000000002000C0924000406F4010B5002052
:1018100001F0CAFD00EBC00101EB0010044901EB2F
:1018200080007721B0FBF1F002490863C0B210BD1F
:1018300060DDFEFF0000002010B502F079F8012005
:1018400002F008F9212002F0DBF80028FAD000208D
:1018500002F0F6F8002002F00DF94FF4806002F07B
:10186000FFF84FF4004002F01DF8022001F062FC86
:10187000102001F039FC00210422084601F070FC20
:101880004FF46011002002F005F9012002F0FCF88D
:10189000392002F0B5F80028FAD0022002F004F94D
:1018A00002F0C6F80828FBD110BD000038B50121B0
:1018B0003D2002F025F801211F4801F045FD0121DE
:1018C000C80301F041FD03248DF8024010208DF87B
:1018D000030048F21C70194DADF800006946284617
:1018E00001F0E0FC41F63B70ADF800006946144899
:1018F00001F0D8FC4FF46040ADF800006946114893
:1019000001F0D0FCADF8004069460F4801F0CAFC78
:1019100048208DF80300A814ADF800006946284659
:1019200001F0C0FC00208DF80300ADF800406946CE
:10193000284601F0B7FC38BD000230000008014025
:10194000000C0140001001400014014010B586B0A9
:10195000A020ADF8140003208DF8160018201C4CB0
:101960008DF8170005A9204601F09CFC4020ADF839
:10197000140004208DF8170005A9204601F092FC00
:101980000121080301F0BCFF0020ADF800004FF476
:101990008271ADF802100121ADF808104902ADF8CE
:1019A0000A101021ADF80C10ADF80400ADF80600D7
:1019B000ADF80E000720074CADF810006946204630
:1019C00002F096F80121204602F088F806B010BD1A
:1019D000000801400030014030B587B04FF420408E
:1019E000ADF8140003208DF8160018201D4D8DF859
:1019F000170005A9284601F055FC4FF48044ADF8C6
:101A0000144004208DF8170005A9284601F04AFC6F
:101A10000121204601F05CFF4FF44040ADF800008A
:101A20004FF48270ADF802000020ADF804000221EE
:101A3000ADF80610ADF808000902ADF80A10102143
:101A4000ADF80C10ADF80E000720074CADF81000F3
:101A50006946204602F04CF80121204602F03EF88B
:101A600007B030BD000C01400038004070B50121C6
:101A700005468C0386B0204601F042FF0121204636
:101A800001F04AFF0021204601F046FF0121042019
:101A900001F05AFC8020ADF810000420244E8DF88F
:101AA000130004A9304601F0FDFB4020ADF8100002
:101AB00018208DF8130003248DF8124004A9304635
:101AC00001F0F0FB0020ADF804000095ADF8060031
:101AD000ADF80800ADF80C000C20164DADF80A006A
:101AE0006946284603F022F8E021284602F00AFF62
:101AF000114A01212020C2F8800225208DF814000F
:101B00008DF815408DF816108DF8171005A801F006
:101B10009FFD012240F22551284602F0EFFF0121EE
:101B2000284602F0F2FE054800F00AF806B070BD43
:101B3000000C01400038014004E000E018200020C3
:101B400030B5164D04468BB0284601F035F91448DF
:101B5000CDE900041020029019200390002080217C
:101B6000CDE904014FF44051CDE9080106900790FA
:101B70000A906946284601F0A9F9094C0122241F60
:101B80008021204602F0B2FF0121284601F008F929
:101B90000121204602F0B9FE0BB030BD44000240E6
:101BA0000438014070B51D4DA878002834D000F0ED
:101BB00087FF1B4C4FF48770E18A61B1618B61B183
:101BC000A18B61B1E18B49F6404021B1218C21B15B
:101BD000618C21B108E0002102E0012100E0022136
:101BE00000F088FF608CB8B10120207602F084FA02
:101BF0000020A87068702872688102F089FA42F2A9
:101C00001074204603F0C2F806A003F009FC204639
:101C100003F0BCF801F058FD012070BD0000002069
:101C2000C81F00203D3D3D3D3D3D3D3D3D3D3D3DD1
:101C30003D3D3D3D3DB1EAB6A8B3C9B9A63D3D3DE8
:101C40003D3D3D3D3D3D3D3D3D3D3D3D3D3D0A0A2A
:101C50000000000070B5007A0C46012530B101206B
:101C600001F06CF80020E070A57070BD002001F05C
:101C700065F8E570F8E700000020C870034890F8A8
:101C8000390008710220887070470000C81F0020CA
:101C90000020C870034890F838000871022088704E
:101CA00070470000C81F00200020C870034890F84B
:101CB000280008710220887070470000C81F0020AB
:101CC00010B50C4601220349E01C01F032FC04204F
:101CD000A07010BDC81F002010B50C460222034999
:101CE000E01C01F026FC0820A07010BD042000209C
:101CF00004488288120ACA7000790871022088702C
:101D000070470000C81F0020084A0020C870528990
:101D1000A2F51C43403B03D0B2F5877F01D001E020
:101D2000012008710220887070470000C81F002041
:101D30000349012008700349022008707047000021
:101D4000000000200800002004488289120ACA709E
:101D5000007B08710220887070470000C81F0020B7
:101D600038B50C46684601F03DFB0320E0700220C8
:101D700020719DF8000060719DF80100A0719DF830
:101D80000200E071002020720620A07038BD000023
:101D9000034A007A82F83900087002F0ADB90000F9
:101DA000C81F0020017A034801B1012180F83810D2
:101DB00002F0A2B9C81F0020017A034801B1012135
:101DC00080F8281002F098B9C81F002038B50C46DA
:101DD000C11D0122684601F0ACFB0098B0F5165F0A
:101DE00012D0B0F5164F0FD0B0F5E13F0CD0B0F5E2
:101DF0007A3F09D0B0F5612F06D0607840F08000BE
:101E000060700420A07038BD05490A688242FAD08B
:101E1000086002F071F90098FFF728FE38BD000055
:101E2000C81F00207CB50C460546C11D012268462E
:101E300001F07FFB012205F10B0101A801F079FB04
:101E4000DDE900218A4208D20748C3888B4204D3C7
:101E5000C0E90F2102F050F97CBD607840F08000AD
:101E600060700420A0707CBDC81F002038B50C46EF
:101E7000C11D0122684601F04FFBBDF80000411E64
:101E8000B1F57A7F13D20D4988804A890C49A2F5B1
:101E90001C43403B08D04FF47A6200BFB2FBF0F025
:101EA000088002F029F938BD44F62062F6E7607830
:101EB00040F0800060700420A07038BDC81F002072
:101EC0004400002030B4047A0C480D4903884A8944
:101ED0003CB149F64044A2420CD04C8103EB830153
:101EE00007E04FF48774A24204D04C810521B3FB74
:101EF000F1F1018030BC02F0FFB800004400002086
:101F0000C81F002038B50C46C11D0122684601F0EB
:101F100003FBBDF8000040F2E732411E914204D2BB
:101F20000549C88002F0E8F838BD607840F08000CC
:101F300060700420A07038BDC81F002008B5C11D06
:101F40000122684601F0E8FA0349BDF800008881E3
:101F500002F0D2F808BD0000C81F0020014902208D
:101F6000087070470800002010B50C460A49087830
:101F7000012808D00120087008490A781AB90870A9
:101F8000002000F0DBFE01220549E01C01F0D1FA3F
:101F90000420A07010BD0000080000205A0000209E
:101FA0002800002038B50C460C4905460120087071
:101FB00000F0C4FE0122E91D684601F0ADFABDF84B
:101FC000000030B1607840F0800060700420A070A4
:101FD00038BD03490020087038BD00005A000020B9
:101FE00008000020064810B5002180F838100221B2
:101FF000017602F081F8BDE8104002A003F010BAAB
:10200000C81F0020B1BEC8EDBCFECEAACDA8D1B677
:10201000D0ADD2E9B6A8D6C6B0E6B1BE76312E3084
:102020000D0A00000248C18802A003F0F9B90000BF
:10203000C81F002025640A000EB502A801F0D2F9DD
:102040000F489DF80A109DF8083090F83A004FF0BC
:10205000020201289DF80900CDE900014FF00301BB
:102060000CD008A003F5FA6303F0DAF90CA003F032
:10207000D7F942F2107002F089FE0EBD11A0F1E70F
:10208000C81F002056657273696F6E3A4825642D2B
:102090005325642D25642F25642F25640A00000034
:1020A000474D505F56312E312E302847656E657290
:1020B000616C50756C73654D6561737572696E679F
:1020C000290D0A00B0E6B1BED0C5CFA23A482564BA
:1020D0002D5325642D25642F25642F25640A0000C7
:1020E00010B5012000F02AFEBDE8104001A003F069
:1020F00097B900004D533A6F6B210A0010B50020CC
:1021000000F01CFEBDE8104001A003F089B90000FA
:102110004D533A6F6B210A00024890F8391002A023
:1021200003F07EB9C81F002025640A0070B542F292
:102130001075284602F02AFE4F4C94F83A00012808
:102140007ED04EA003F06CF9284602F01FFEE18914
:1021500056A003F065F9284602F018FE218A59A01E
:1021600003F05EF9284602F011FE618A5BA003F0DD
:1021700057F9284602F00AFEB4F916105DA003F0E4
:102180004FF9284602F002FEB4F91A105EA003F0DF
:1021900047F9284602F0FAFDB4F91C105FA003F0DD
:1021A0003FF9284602F0F2FDB4F91E1060A003F0DA
:1021B00037F9284602F0EAFDB4F9201061A003F0D7
:1021C0002FF9284602F0E2FDB4F9221062A003F0D4
:1021D00027F9284602F0DAFDA18D64A003F020F96A
:1021E000284602F0D3FDE18D65A003F019F92846D9
:1021F00002F0CCFD218E67A003F012F9284602F010
:10220000C5FD618E68A003F00BF9284602F0BEFD03
:10221000A18E6AA003F004F9284602F0B7FDE18E12
:102220006BA003F0FDF8284602F0B0FDA18C6DA074
:1022300003F0F6F8284602F0A9FDE08B002800E044
:1022400006E094F83A0007D0012803D069A006E020
:102250006EA077E779A002E001280AD07AA003F007
:10226000DFF8284602F092FDBDE870407CA003F044
:10227000D7B887A0F3E70000C81F00203D3D3D3DD3
:102280003D3D3D3D3D3D3D3D43616C696272617444
:10229000696F6E20696E666F726D6174696F6E3DF5
:1022A0003D3D3D3D3D3D3D3D3D3D0A005379735330
:1022B0006574696E672E415044565F4C4F573A25FE
:1022C000640A0000537973536574696E672E415038
:1022D00044565F4D49443A25640A000053797353CC
:1022E0006574696E672E415044565F4849473A25E8
:1022F000640A0000344B687A43616C5F4C4F573A74
:102300002564434D0A000000344B687A43616C5FDA
:102310004D444C3A2564434D0A000000344B687A22
:1023200043616C5F4849473A2564434D0A00000009
:1023300032304B687A43616C5F4C4F573A256443A7
:102340004D0A000032304B687A43616C5F4D444C5B
:102350003A2564434D0A000032304B687A43616C81
:102360005F4849473A2564434D0A0000344B687A78
:102370004761696E5F4C4F573A25640A00000000C0
:10238000344B687A4761696E5F4D444C3A25640A64
:1023900000000000344B687A4761696E5F48494726
:1023A0003A25640A0000000032304B687A476169C0
:1023B0006E5F4C4F573A25640A00000032304B687C
:1023C0007A4761696E5F4D444C3A25640A0000000B
:1023D00032304B687A4761696E5F4849473A2564F5
:1023E0000A00000054656D7043616C3A256631A1A6
:1023F000E60A000043616C6962726174696F6E2065
:1024000073756363657373A3A10A00003D3D3D3D91
:102410003D3D3D3D3D3D3D3D3D3D3D3D3DB1EAB652
:10242000A8D0C5CFA23D3D3D3D3D3D3D3D3D3D3D5F
:102430003D3D3D3D3D3D3D3D3D0A0000B1EAB6A874
:10244000B3C9B9A6A3A10A0043616C696272617441
:10245000696F6E206661696C757265A3A10A0000E0
:102460003D3D3D3D3D3D3D3D3D3D3D3D3D3D3D3D9C
:102470003D3D3D3D3D3D3D3D3D3D3D3D3D3D3D3D8C
:102480003D3D3D3D3D3D3D3D3D3D3D3D5C6E0A009C
:10249000B1EAB6A8CAA7B0DCA3A10A00044910B5E6
:1024A0000120087000F0B4FDBDE8104001F096BBBB
:1024B00046000020094890F8281090F83A0029B109
:1024C000012801D006A004E00BA002E0012802D000
:1024D0000DA002F0A5BF11A0FBE70000C81F00205F
:1024E0004E6F772069732066726F6E74206261731D
:1024F00065A3A10A00000000CFD6D4DACAC7C7B0CE
:10250000BBF9D7BCA3A10A004E6F77206973206284
:1025100061636B2062617365A3A10A00CFD6D4DA30
:10252000CAC7BAF3BBF9D7BCA3A10A0010B50446C9
:10253000401EFF2802D309A002F072FF0B4800F8EA
:10254000394F4078012807D009A000BF02F068FF8A
:10255000BDE8104001F0D0BD08A0F7E75365742036
:102560004661696C6420210A00000000C81F002039
:10257000536574206F6B210A00000000C9E8D6C3C0
:10258000B3C9B9A6210A000070B5204D044642F235
:102590001076B0F5965F1DD0B4F5165F1AD0B4F57D
:1025A000164F17D0B4F5E13F14D0B4F57A3F11D0EF
:1025B000B4F5E12F0ED0B4F5612F0BD0304602F008
:1025C000E5FB95F83A0001281CD011A0BDE8704049
:1025D00002F026BF2868A04216D02C6095F83A0079
:1025E00001280DD00DA000BF02F01AFF304602F006
:1025F000CDFB01F081FD2046BDE87040FFF736BA03
:1026000009A0F1E70BA0E1E770BD0000C81F0020A2
:10261000536574206572726F72210A0053657420CD
:102620006F6B210A00000000C9E8D6C3B3C9B9A680
:10263000210A0000C9E8D6C3CAA7B0DC210A0000FD
:1026400000EBC00101EB00114FF6FF7202EA8101BD
:10265000094A10B51180094991F83A10012901463B
:1026600007D007A002F0DCFEBDE810400D4802F0E4
:102670008DBB0DA0F6E700001A000020C81F002047
:10268000536574207468652063616C69627261745B
:10269000696F6E2064697374616E63652025646D73
:1026A0003A0A0000A0860100B1EAB6A8BEE0C0EB7D
:1026B000C9E8B6A8CEAA25646D3A0A0030B504462A
:1026C000174899B00078002810D164B11548164D0C
:1026D00090FBF4F2521E0F2C0ADC40F2E732501C41
:1026E00090FBF4F005E011A002F09AFE19B030BDA5
:1026F000002068803F21114802F050FC64216846A8
:10270000FDF734FF6B8822460DA16846FDF7E4FD16
:10271000684602F085FE1048848001F0EDFCE5E794
:102720000800002040420F0084000020C9E8D6C302
:10273000B1D8D0EBB4F3D3DA310D0A000004004075
:10274000C9E8D6C3CAE4B3F6C6B5C2CA2564485AB6
:102750002025640D0A000000C81F0020114910B593
:102760000F4A4B8938B149F64040C824834200D013
:102770004881148006E04FF487743220A34200D0D1
:102780004C81108091F83A00012807D006A000BFC4
:1027900002F046FEBDE8104001F0AEBC05A0F7E730
:1027A00010000020C81F0020536574206F6B210AA1
:1027B00000000000C9E8D6C3B3C9B9A6210A0000C9
:1027C0000E4A10B5431E92F83A10B3F5C87F0BD2EB
:1027D000D080012906D00AA002F022FEBDE81040F8
:1027E00001F08ABC09A0F7E7012904D00AA0BDE8DE
:1027F000104002F015BE0BA0F9E70000C81F002032
:10280000536574206F6B210A00000000C9E8D6C32D
:10281000B3C9B9A6210A0000536574206572726FAE
:1028200072210A00C9E8D6C3CAA7B0DC210A000099
:102830000B4910B581F8280091F83A1028B1012908
:1028400001D008A004E00DA002E0012906D010A0EC
:1028500002F0E6FDBDE8104001F04EBC11A0F7E724
:10286000C81F002046726F6E74206261736520730A
:102870006574206F6BA3A10A00000000C7B0BBF90C
:10288000D7BCC9E8D6C3B3C9B9A6A3A10A00000042
:102890004261636B206261736520736574206F6BA6
:1028A000A3A10A00BAF3BBF9D7BCC9E8D6C3B3C920
:1028B000B9A6A3A10A000000034902200870034939
:1028C0000020087000F03ABA080000200100002043
:1028D00070B500F09DFB01F081F9184CE08A08B951
:1028E000E08B68B194F83A00012825D014A000BF0D
:1028F00002F096FDBDE8704042F2107002F046BA58
:1029000044F62065284602F041FA94F83A0001287E
:1029100010D018A002F084FD284602F037FA1E49B4
:10292000012008701D4908701D4908701D490A20C2
:10293000088070BD1CA0EDE724A0D9E7C81F0020C7
:102940004572726F723A20746865206D61636869C0
:102950006E652063616C6962726174696F6E206874
:102960006173206265656E2066696E69736865646F
:10297000A3A10A003D3D3D3D3D3D3D3D3D3D7374C0
:102980006172742063616C6962726174696F6E3D1B
:102990003D3D3D3D3D3D0A0002000020010000207C
:1029A00008000020100000203D3D3D3D3D3D3D3DE7
:1029B0003D3D3D3D3DBFAACABCB1EAB6A83D3D3D47
:1029C0003D3D3D3D3D3D3D3D3D3D0A00B4EDCEF339
:1029D000A3BAB8C3BBFAC6F7D2D1B1EAB6A8CDEA5A
:1029E000B3C9A3A10A00000005480178012906D057
:1029F0000121017003490020087000F09FB9704761
:102A0000080000200100002010B500F0A7FA0948D6
:102A100090F83A0001280BD007A000BF02F000FD9B
:102A200001F06AFBBDE8104044F6206002F0AEB948
:102A300004A0F3E7C81F0020536574206F6B210AC0
:102A400000000000C9E8D6C3B3C9B9A6210A000036
:102A500003490020087003490870012000F06EB996
:102A600008000020040000200249012008700249EB
:102A70000870704701000020080000200349002072
:102A80000870034901200870704700000100002011
:102A90000800002070B5094DFF231A4605F5807621
:102AA00006E000BF10F8014B54402A5D5A40335DE8
:102AB000491E89B2F6D242EA032070BD08690008B7
:102AC0000A48017D00290FD18C21C1814FF4827108
:102AD00001824FF4BE714182012101750449002039
:102AE000C882012001F014BB70470000C81F0020FD
:102AF000000000202DE9F0474C4D80460F466881CC
:102B0000084601F005FB4A4C002642F2107A608923
:102B1000401C81B26181B1F5FA7F73D9E089A0F5DB
:102B2000A060DC3800D5404232286BDAA08D618B82
:102B300044F62069401AA084484602F027F995F827
:102B40003A00B4F9241001280BD03AA002F068FC36
:102B5000484602F01BF9B4F92400002803DB0146C3
:102B600002E03CA0F2E74142B1F5967F15DDA68474
:102B70004D46484602F00AF941463BA002F050FC9F
:102B8000284602F003F940A002F04AFC284602F071
:102B9000FDF8A6706670267230E0B8F5877F05D024
:102BA000B7B1012F18D0022F1DD119E027B1012F85
:102BB00006D0022F17D107E0E882A08AA88512E08C
:102BC0006883A08AE8850EE0A883A08A28860AE0A8
:102BD000E883A08A688606E02884A08AA88602E0A6
:102BE0006884A08AE886504602F0D0F8414632A0B8
:102BF00002F016FC208EA88401F07EFA6681BDE802
:102C0000F087FFE7B1F5487FF9D9A68454465046CE
:102C100002F0BCF841462CA002F002FC204602F073
:102C2000B5F819A002F0FCFB00F04EFDC81F002013
:102C3000000000200A43616C6962726174696F6E02
:102C400020646966666572656E6365A3BA25644330
:102C50004D0A00000AB1EAB6A8B2EED6B5A3BA256D
:102C600064434D0A000000002564485AB1EAB6A842
:102C7000CAA7B0DC3A20BEE0C0EBCEF3B2EEB9FD9D
:102C8000B4F3A3A10A0000003D3D3D3D3D3D3D3D67
:102C90003D3D3D3D3D3DB1EAB6A8CAA7B0DC3D3D56
:102CA0003D3D3D3D3D3D3D3D3D3D3D3D3D3D3D3D54
:102CB0003D3D3D3D0A0A00002564485AB1EAB6A8E8
:102CC000CDEAB3C9210A00002564485AB1EAB6A882
:102CD000CAA7B0DC3A20D0C5BAC5B2BBD5FDB3A3F4
:102CE000A3A10A0070B5054610488088400803F08B
:102CF0000FFA06460C46284603F05EFC03F010FC73
:102D00006FF00F0203F0EAFC3246234603F014FA98
:102D1000074A084B03F010FA0022074B03F016FB9A
:102D200002F02EFFBDE8704003F026BC54000020E6
:102D3000D0BE4DDAAFFA3D4000E07A404FF48061FA
:102D400008B1034801E00248001D0160704700001F
:102D5000100C014010B54FF40054204600F09EF8CE
:102D600000280CD00649012081F8CA00010205485C
:102D700000F016FB2046BDE8104000F005B810BD7D
:102D8000A4220020000C0140C10002D502490860C5
:102D90007047024948607047040402400000024046
:102DA0000029016802D041F0010102E04FF6FE72F5
:102DB000114001607047000001684FF6FE7211403B
:102DC00001600021016041608160C1603149314A88
:102DD0000839904203D1486840F00F0006E02D4AC0
:102DE0001432904204D1486840F0F00048607047C7
:102DF000284A2832904203D1486840F47060F5E7D1
:102E0000244A3C32904203D1486840F47040EDE7D8
:102E1000204A5032904203D1486840F47020E5E7E0
:102E20001C4A6432904203D1486840F47000DDE7E8
:102E3000184A7832904203D1486840F07060D5E774
:102E4000154A111F904203D1086840F00F0006E0B8
:102E5000114A1432904204D1086840F0F000086032
:102E600070470D4A2832904203D1086840F47060E0
:102E7000F5E7094A3C32904203D1086840F47040BB
:102E8000EDE7054A50329042EAD1086840F47020DC
:102E9000E5E7000008000240080402400146002067
:102EA000CA0001D5034A00E0034A12680A4200D072
:102EB000012070470004024000000240002A02681E
:102EC00001D00A4300E08A430260704730B50368CE
:102ED00047F6F07293430C6A8A682243D1E90445AD
:102EE0002C4322438C692243CC6922434C6A2243FF
:102EF0008C6A22431A430260CA6842600A68826090
:102F00004968C16030BDF0B50F46054601218BB060
:102F10001E461446084600F0CFFC3046FFF74CFF33
:102F20001020CDE9020400218020CDE904108001A9
:102F30000691CDE908100A91CDE90057079169463D
:102F40003046FFF7C3FF01213046FFF729FF01227A
:102F500002213046FFF7B2FF0BB0F0BD10B5234899
:102F60004FF4E1314FF49672016064218180C28098
:102F7000012303814FF48774448181815F21C181E2
:102F8000962101824FF4AF71418200210175C18207
:102F900041838183C183018441848185C185018608
:102FA00041868186C18601768284C822C28480F8E7
:102FB0002810142480F82940042480F82A4080F83E
:102FC000381080F8393080F83A10C26343F69822FE
:102FD000026480F84410A0F84610A0F84810A0F849
:102FE0004A10A0F84C10A0F84E1010BDC81F0020C9
:102FF00070B5064D0324284600F0AEFA641EA4B254
:10300000012801D0002CF6D170BD000000FC0008A2
:1030100040220249024800F0B3BA000020210020FB
:1030200000FC000810B5FFF7E3FFBDE810404022A8
:103030000149024800F0B2BA2021002000FC00083B
:103040003C20401E10F0FF00FBD1704700B5064841
:10305000FEF78AFA4FF00210FEF786FA4FF48070FE
:1030600000F004F8012000BD0730550040F4803026
:10307000FEF77ABA70B505464FF43026304600F0B8
:103080009FF8042811D1094C206940F0020020610A
:103090006561206940F040002061304600F090F802
:1030A000216941F6FD721140216170BD002002408E
:1030B00008490420CA68D20701D001207047CA68B5
:1030C000520701D502207047C968C906FBD5032005
:1030D00070470000002002400248016941F0800171
:1030E000016170470020024004490A6822F0100282
:1030F0000A600A6802430A6070470000002002402C
:10310000F0B506464FF400570D46384600F058F823
:1031100004280CD1064C206940F001002061358064
:10312000384600F04DF82169BA1E11402161F0BD0A
:1031300000200240034A116801F038010143116088
:1031400070470000002002400348024941600349E3
:10315000416070472301674500200240AB89EFCDF5
:103160002DE9F041134C0746114816460D46A06064
:103170001148A0604FF40058404600F021F80428A0
:1031800013D1206940F01000206135430B493D43C5
:1031900045F0F8000880404600F012F8052804D0F9
:1031A000216941F6EF7211402161BDE8F081000014
:1031B0002301674500200240AB89EFCD02F8FF1FD5
:1031C00000B50346FFF774FF03E000BFFFF770FF91
:1031D0005B1E012803D0002B00D1052000BD002B71
:1031E000F4D1FAE72DE9F04103460020044619B175
:1031F000332919D2002515E00020BDE8F081002216
:103200004F1B0CE003EB820E53F82260DEF804C083
:10321000664503D943F822C0CEF80460521C974299
:10322000F0D86D1C8D42EAD3062904D8500803EB70
:1032300080004068E1E703220025CE1E05E000BFC4
:1032400053F8227038186C41521CB242F8D38A1FCE
:1032500000232146FCF7C8FFCFE70000074B10B55D
:103260000344002005E000BF13F8014B01F8014BB7
:10327000401C9042F8D3012010BD00002021002006
:10328000074B10B50344002005E000BF11F8014BC7
:1032900003F8014B401C9042F8D3012010BD000000
:1032A00020210020F0B5CA78002502F00F03D206D5
:1032B00001D58A7813430A784FF00F0E12F0FF0FF2
:1032C0004FF001021CD004680F8802FA05F637405F
:1032D000B74211D14FEA850C0EFA0CF724EA070722
:1032E00003FA0CF43C43CF78282F02D0482F02D0A9
:1032F00002E0466100E006616D1C082DE4D3046025
:103300000C88FF2C1ED944685FF0000606F1080700
:1033100002FA07F50F882F40AF420FD14FEA860C13
:103320000EFA0CF7BC4303FA0CF73C43CF78282F76
:1033300000D14561CF78482F00D10561761C082E59
:10334000E4D34460F0BD0000F0B5144C002801DA6D
:10335000E36900E06368420D120185B2C0F30157D2
:103360009540C0F30346032F05D0C2020AD50322BD
:10337000B240934307E023F07062636823F0706308
:10338000636002E0AB4343F0706201B12A4300285E
:1033900001DAE261F0BD6260F0BD000000000140B2
:1033A000416170470161704700210D4A00284FF0CC
:1033B0000A000DD032F82030401C19442828F9D3D7
:1033C0001E20B1FBF0F04CF640614843000C704702
:1033D00002EB8003401C5B8828281944F8D3EFE7F0
:1033E00058200020F0B589B005461BA424221D49B1
:1033F0006846FDF767F822780C216B46491E01EB01
:10340000410018440678964209D146786778BE4252
:1034100005D18078A678B04201D1491C01E000298D
:10342000ECD1607AA37A303800EB80006FF02F0285
:1034300002EB4000184428706970207961792028D7
:1034400008D0303800EB800002EB40000844A87040
:1034500009B0F0BD0020F5E7446563202033203239
:1034600030313800E4680008F0B507460024094E02
:10347000094D07E056F83400394600F095FE012862
:1034800006D0641C28788442F4DB4FF0FF30F0BD96
:103490002046F0BD686700082068000810B50C469B
:1034A00004E02D2B07D05AB1401C521E0378A3F123
:1034B00030010A29F5D200F05FFE2060012010BD26
:1034C000002010BDFEE7000038B51D208DF800007B
:1034D00003208DF8010002258DF8025001248DF89B
:1034E0000340684600F0B4F80E204FF0E022A1033C
:1034F000C2F880128DF800008DF801508DF802405E
:103500008DF80340684600F0A3F80121014800F05F
:103510007AFF38BD0004004008E04B7800F8013B1A
:1035200011F8023B521E00F8013B92B2002AF4D17E
:1035300070470EE0CB7800F8013B8B7800F8013B38
:103540004B7800F8023B11F8043B521E00F8013C96
:1035500092B2002AEED1704770B50446FFF7F4FD31
:103560002046FFF787FD0546FFF7B6FD042D02D183
:103570002068401C01D0002070BD012070BD0000FB
:1035800010B5002305E000BF30F8134021F8024BCE
:103590005B1C9342F8D3012010BD00002DE9F041DF
:1035A00016460D460746FFF7CFFD00240EE000BF8C
:1035B00035F8021B07EB4400FFF7A2FD042804D0F6
:1035C000FFF78AFD0020BDE8F081641CB442EFD310
:1035D000FFF782FD0120F6E770B5174C174D661C0A
:1035E00001284FF050001FD001F0AAFC14498020A0
:1035F00001F0B6FC1349812001F0B2FC2146832082
:1036000001F0AEFC2946822001F0AAFC314684205C
:1036100001F0A6FC2921852001F0A2FCBDE8704044
:103620003821862001F09CBC01F08AFC06498020EC
:1036300001F096FC0549DEE741000020570000A09C
:10364000122F1400230042211227240023004101DD
:1036500070B50F23C47801780122F4B1144C2468AA
:10366000457804F4E064C4F5E064240AC4F1040677
:10367000E3408478B5401C402C4301F1E021230154
:1036800081F80034007800F01F018A404009800072
:1036900000F1E020C0F8002170BD01F01F00824061
:1036A0004809800000F1E020C0F8802170BD0000D2
:1036B0000CED00E002490843024908607047000031
:1036C0000000FA050CED00E0BFF34F8F04480168DD
:1036D000044A01F4E06111430160BFF34F8FFEE73C
:1036E0000CED00E00400FA0510B501F0BDFBFFF79A
:1036F000ADFC02F0EFF90E480121016002210160EA
:10370000C11401600120FFF719FB0A48B0F90E004F
:1037100000F014F84FF4FA7002F072F940F2AA5077
:1037200002F078F9BDE81040034801F02FBB00001B
:10373000140C0140C81F0020A086010007490A8818
:10374000904201DD4A8003E0002800DA0020488032
:1037500049884FF0804000F06BBF00005C00002003
:1037600010B500280CD00022026019B105A1FCF7A9
:10377000B3FD04E00022134604A1FCF7ADFD0620D2
:1037800010BD00002D2D2D0D0A000000252E3166E4
:103790000D0A000010B5702001F0D2FB052001F0E9
:1037A0005BFB05490120086000BF00BF00BF024964
:1037B000091D086010BD0000100C014070B501200B
:1037C000FFF7F2FD05460A2001F0E0FA05484FF444
:1037D00000640460322001F0D9FA0248001D046040
:1037E000284670BD100C014030B589B0012103207E
:1037F00000F06EF801210C2000F082F80820ADF8EE
:103800001C0018208DF81F0003208DF81E0007A94A
:103810002248FFF747FD002440F2CF70ADF81400B6
:10382000ADF810404FF08045ADF81240ADF81640AD
:103830008DF8184004A9284600F0FEFE6020ADF87F
:1038400000000120ADF802000420ADF80400800162
:10385000ADF80C00ADF80840ADF80640ADF80A40F0
:10386000ADF80E406946284600F0A6FE082128461D
:1038700000F0D4FE0121284600F0B8FD01212846C1
:1038800000F0C4FD0121284600F0CAFD04484FF4B1
:10389000FA7144808480018009B030BD0008014085
:1038A0005C000020034A516821F44041014351600B
:1038B0007047000000100240044A0029516901D0FD
:1038C000014300E081435161704700000010024055
:1038D000044A0029D16901D0014300E08143D1614C
:1038E0007047000000100240044A0029116901D00D
:1038F000014300E081431161704700000010024065
:10390000044A0029916901D0014300E0814391619B
:103910007047000000100240044A0029D16801D01D
:10392000014300E08143D160704700000010024075
:103930000C48016841F00101016041680A4A1140E8
:1039400041600168094A11400160016821F4802149
:103950000160416821F4FE0141604FF41F01816064
:1039600070470000001002400000FFF8FFFFF6FE65
:1039700030B51F494A6812F00C031E4A03D0042BCD
:1039800001D0082B21D002604A680F231A4C03EAA9
:103990001212A35C0268DA4042604B68072505EA10
:1039A0001323E35C22FA03F383604B6805EAD32315
:1039B000E35CDA40C2604968032303EA9131231FC4
:1039C000595CB2FBF1F1016130BD4A684B6802F409
:1039D00070124FF0020413F4803F04EB924202D0C5
:1039E0004B689B0301D5054B00E0024B5A43CAE7E5
:1039F0000010024000127A007000002000093D0013
:103A00000246002053090949012B0BD0022B0BD091
:103A1000D1F8241002F01F02012393400B4200D082
:103A2000012070470968F5E7096AF3E700100240D2
:103A30000248406800F00C0070470000001002408F
:103A4000034A516821F0F0010143516070470000C2
:103A50000010024001490860704700000000424227
:103A6000034A516821F4E06101435160704700004E
:103A70000010024003494A6822F4605242EAC00042
:103A80004860704700100240014908667047000016
:103A900000004242034A5368084323F47C1318434E
:103AA0005060704700100240034A516821F0030142
:103AB00001435160704700000010024010B500241F
:103AC000B42001F021FA0449000C10F4C06F086022
:103AD00000D00124204610BD4000002000290188AC
:103AE00002D041F0400101E021F040010180704727
:103AF00030B502884C8802F441530A88CD882243AD
:103B00008C882C4322430C8922434C8922438C8984
:103B10002243CC8922431A430280828B22F4006222
:103B20008283098A018230BD2DE9F04391B00646B7
:103B300001208DF8300000248DF831000B944FF4F3
:103B40006020CDE90D040220224F0D468DF83C0087
:103B5000994690460BA93846FDF756FDF1B203236E
:103B600001223846FDF774FDE9B2032301223846ED
:103B7000FDF76EFD184D2846FFF71EF91548CDF8E4
:103B80000C904C300090CDE901848020CDE90440B8
:103B90004000069080000790202008904FF440508D
:103BA000CDE9090469462846FFF790F90121284626
:103BB000FFF7F6F801213846FDF70EFD01213846E2
:103BC000FDF700FD01213846FDF781FD11B0BDE88C
:103BD000F0830000002401400800024070B550222C
:103BE00071490020FFF73AFB70486F4C01780029BB
:103BF0002AD094F83A2000214FF4877642F21075CB
:103C0000012A017025D06AA001F00AFC284601F0C3
:103C1000BDF875A0216801F003FC284601F0B6F854
:103C2000A18875A001F0FCFB284601F0AFF8E288FE
:103C3000218977A001F0F4FB284601F0A7F86089FC
:103C4000B04277D176A076E07B4994F838000870CE
:103C500070BD7AA001F0E4FB284601F097F884A03B
:103C6000216801F0DDFB284601F090F8A18883A0CF
:103C700001F0D6FB284601F089F8E288218983A06B
:103C800001F0CEFB284601F081F86089B04201D1F5
:103C900082A000E086A001F0C3FB284601F076F880
:103CA000618988A001F0BCFB284601F06FF8A1896A
:103CB00089A001F0B5FB284601F068F8A18C8AA024
:103CC00001F0AEFB284601F061F894F8292094F841
:103CD0002A1089A001F0A4FB284601F057F8E08AD9
:103CE00008B18BA000E08FA001F09AFB284601F0FC
:103CF0004DF894F8280008B190A000E094A001F0DD
:103D00008FFB284601F042F894F8380008B195A0DE
:103D100000E09AA001F084FB284601F037F800206B
:103D2000FEF78AF999A001F07BFB2846BDE87040B8
:103D300001F02CB8A2A001F073FB284601F026F890
:103D4000A189A6A001F06CFB284601F01FF8A18C08
:103D5000A8A001F065FB284601F018F894F8292086
:103D600094F82A10ABA001F05BFB284601F00EF896
:103D7000E08A08B1AFA000E0B5A001F051FB2846F1
:103D800001F004F894F8280008B1B8A000E0BFA042
:103D900001F046FB284600F0F9FF94F8380008B11E
:103DA000C1A0B7E7CCA0B5E7C81F0020460000209F
:103DB0003D3D3D3D3D3D3D3D3D3D3D3D3D3D3D3D33
:103DC000466163746F72792056657273696F6E3DD8
:103DD0003D3D3D3D3D3D3D3D3D3D3D3D3D3D3D3D13
:103DE0003D3D3D0A0000000042617564207261742F
:103DF000653A25640A0000004D656173757265209F
:103E00006672657175656E63793A2564485A0A0071
:103E100052616E67653A25646D7E25646D0A000007
:103E200050756C7365206672657175656E63793A5D
:103E300034303030485A0A00040000203D3D3D3DFA
:103E40003D3D3D3D3D3D3D3D3D3D3D3D3D3D3DB32C
:103E5000F6B3A7D0C5CFA23D3D3D3D3D3D3D3D3DE7
:103E60003D3D3D3D3D3D3D3D3D3D3D3D3D3D0A00F2
:103E7000B2A8CCD8C2CA3A25640A0000B2E2C1BFD7
:103E8000C6B5C2CA3A2564485A0A0000C1BFB3CCBD
:103E90003A25646D7E25646D0A000000C2F6B3E524
:103EA000C6B5C2CA3A34303030485A0A0000000061
:103EB000C2F6B3E5C6B5C2CA3A3230303030485ADD
:103EC0000A000000C2F6B3E5D6D8B8B4C6B5C2CA77
:103ED0003A25640A00000000BFAAB9D8C1BFC3C513
:103EE000CFDE3A25646D0A00B1EAB6A8CEC2B6C8E4
:103EF0003A256631A1E60A00B5E7C1F7BBB7C1BFF5
:103F0000B3CC3A25646D417E25646D410A00000002
:103F1000B1EAB6A8BDE1B9FB3AB1EAB6A8CDA8B9F5
:103F2000FD0A0000B1EAB6A8BDE1B9FB3AB1EAB6B4
:103F3000A8CEB4CDA8B9FD0A00000000B1EAB6A829
:103F4000BBF9D7BC3AC7B0BBF9D7BC0A0000000028
:103F5000B1EAB6A8BBF9D7BC3ABAF3BBF9D7BC0AE9
:103F600000000000BFAABBFAD7D4B6AFD4CBD0D0E4
:103F7000C1ACD0F8B2E2C1BF0A000000BFAABBFAD0
:103F8000B2BBD7D4B6AFD4CBD0D00A003D3D3D3D77
:103F90003D3D3D3D3D3D3D3D3D3D3D3D3D3D3D3D51
:103FA0003D3D3D3D3D3D3D3D3D3D3D3D3D3D3D3D41
:103FB0003D3D3D3D3D3D3D3D3D3D3D3D3D0A0000DE
:103FC00050756C7365206672657175656E63793ABC
:103FD0003230303030485A0A00000000537769749C
:103FE0006368207468726573686F6C643A25646DE9
:103FF0000A00000043616C6962726174696F6E202F
:1040000074656D70657261747572653A256631A16B
:10401000E60A000043757272656E74206C6F6F70F3
:104020002072616E67653A25646D417E25646D413D
:104030000A00000043616C6962726174696F6E20EE
:10404000726573756C743A506173730A00000000F6
:1040500043616C6962726174696F6E207265737519
:104060006C743A4661696C0A0000000043616C6937
:1040700062726174696F6E20626173653A46726F35
:104080006E7420626173650A0000000043616C6910
:1040900062726174696F6E20626173653A42616336
:1040A0006B20626173650A00426F6F7420617574E2
:1040B0006F6D61746963616C6C792072756E2063D9
:1040C0006F6E74696E756F7573206D65617375724F
:1040D000656D656E740A0000426F6F7420646F65D1
:1040E00073206E6F74206175746F6D6174696361A4
:1040F0006C6C790A0000000010B5502203490020C2
:10410000FFF7BEF8BDE81040FEF78CBFC81F0020C7
:10411000134910B50A78824201D1002010BD087001
:10412000104920B1012809D002280FD110E0B1F9BF
:104130000E00FFF703FB40F2AA5005E0B1F91000B2
:10414000FFF7FCFA40F2325001F064FC012010BD90
:10415000B1F91200FFF7F2FA40F2CE40F4E70000A6
:1041600005000020C81F002064230121014A00200F
:10417000FFF7DABC5820002010B5002103780A466A
:104180002D2B07D1012204E001EB810149003039D8
:104190001944401C0378A3F13004092CF4D90AB166
:1041A000484210BD084610BD05E09A4201D00020EB
:1041B0007047401C491C027812B10B78002BF4D1D7
:1041C0000120704710B5FEF723FFFFF707FD134CE2
:1041D0002068B0F5165F12D0B0F5164F0FD0B0F5CD
:1041E000E13F0CD0B0F57A3F09D0B0F5E12F06D011
:1041F000B0F5612F03D0FEF7B1FEFFF77DFF6289B6
:104200000748A2F51C41403906D0322101802068C0
:10421000BDE81040FDF72ABCC821F7E7C81F002001
:10422000100000204FF0E020002181610161704703
:1042300002480188491C018070470000820000206C
:10424000704700001FB5FDF7F7FAFDF72FFB4FF49D
:104250008060FFF72FFA0121CC022046FFF750FBC8
:1042600001212046FFF758FB00212046FFF754FBB1
:1042700019208DF80C0002208DF80D0001208DF81A
:104280000E008DF80F0003A8FFF7E2F93B20ADF810
:1042900004003F20ADF8000000201C4CADF80600E3
:1042A000ADF802006946204600F0C6F9012120461B
:1042B00000F0A6F801214802FFF722FB144C01216F
:1042C0002046FDF77FF92046FDF7FCF92046FDF773
:1042D00094F90028FAD12046FDF703FA2046FDF7AD
:1042E00085F90028FAD101210846FFF7E5FAFDF724
:1042F0002DFBFDF771FBFFF777FAFFF793FF04B093
:104300004FF4E130BDE81040FDF7B0BB002C014098
:104310000024014000F0D0BA10B52548018809B149
:10432000491E01802349244A0978127811432FD06D
:104330002249097861BB224C94F8CA1041B3018824
:1043400031BB418801801F48007E08B31E480078B9
:10435000F0B94FF480711D48FFF724F81C4800683D
:1043600008B301F0D5FE00221A4B01F0F7FC02461B
:104370000B4619A12046FBF7AFFF1148FCF783F865
:1043800081B224F8C81F0020A0700D4800F024FC62
:10439000134C0121204600F033F82046BDE81040C0
:1043A000012100F030B80FA10548FBF795FFE4E7C5
:1043B00084000020080000200400002002000020EB
:1043C000A4220020C81F002052000020000C014041
:1043D0002800002000005940252E32666D0D0A008D
:1043E000000400402D2D2D0D0A0000000029018839
:1043F00002D041F0800101E021F08001018070478E
:10440000C94301827047C94301827047002901886E
:1044100002D041F0010101E021F00101018070476B
:10442000002930F8441F02D041F4004101E0C1F3FB
:104430000E010180704700004B4910B5884202D13F
:104440000121C41486E0B0F1804F09D04749884269
:104450000DD101210220FFF747FA0021022064E07C
:1044600001210846FFF740FA002101205DE04049A4
:10447000884206D101210420FFF736FA00210420EA
:1044800053E03C49884206D101210820FFF72CFA6D
:104490000021082049E03849884206D10121102036
:1044A000FFF722FA002110203FE03449884206D16C
:1044B00001212020FFF718FA0021202035E03049A3
:1044C000884202D10121441444E02E49884202D19D
:1044D0000121CC043EE02C49884202D101210C0587
:1044E00038E02A49884202D101214C0532E02849AE
:1044F000884206D101214020FFF7F6F90021402033
:1045000013E02449884206D101218020FFF7ECF90D
:104510000021802009E0204988420AD18415012128
:104520002046FFF7E1F900212046BDE81040FFF7E3
:10453000DBB91A49884202D101210C040AE018496A
:10454000884202D101214C0404E0164988420AD174
:1045500001218C042046FFF7DFF92046BDE810401A
:104560000021FFF7D9B910BD002C01400004004024
:1045700000080040000C0040001000400014004003
:1045800000340140004C0140005001400054014003
:1045900000180040001C0040002000400040014086
:1045A0000044014000480140002A828901D00A43AA
:1045B00000E08A438281704770B5028C22F48052F9
:1045C0000284048C8288838B0D8823F4E6464FF6A0
:1045D000FF7303EA0525354324F400560C8903EAEA
:1045E000043434434E8803EA06362643094CA0427D
:1045F00002D0094CA04205D122F480448A8903EA02
:104600008212224382808583C988A0F840100684E4
:1046100070BD0000002C014000340140828B4FF639
:10462000FF7322F4006203EA012111438183704782
:10463000A0F840107047000030B502881B4B1C4C9E
:1046400098420DD0A0420BD0B0F1804F08D0194D48
:10465000A84205D0184DA84202D0184DA84203D157
:1046600022F070054A882A43154DA84206D0154D00
:10467000A84203D022F44075CA882A4302808A885F
:1046800082850A88028598420AD0A04208D00E4A44
:10469000904205D00D4A904202D00D4A904201D17D
:1046A000097A01860121818230BD0000002C014081
:1046B000003401400004004000080040000C0040AD
:1046C0000010004000140040004001400044014040
:1046D0000048014070B501210220FFF7F9F84FF4BE
:1046E00080713148FEF75EFE304D40F2E7363246CB
:1046F0003F21284600F052FCFEF7E6FE2C4900223E
:104700002C4C087EFF280ED0012816D002283FD05E
:1047100029A000F085FE00BFB4F8C810BDE87040C5
:10472000244800F059BA0A76FEF718FCFFF7E4FCBB
:104730002BA12048FBF7D0FD30E0022008768888C6
:104740004FF47A73984202D98B8032460DE02E499D
:104750000F2804D8B3FBF0F03246488005E04A80C9
:104760002A49B1FBF0F0401E82B23F21284600F0FA
:1047700015FC012084F8CA0000210E48C834FEF759
:10478000EFFF20800B48FBF77EFE24F8C809C3E743
:1047900000210848FEF7E4FFA4F8C8000548FBF72D
:1047A00072FEA4F8C800B7E7000C01400004004006
:1047B000C81F0020A4220020B5B1C7B0CEAAB1EA1C
:1047C000B6A8C4A3CABDA3ACC7EBB1EAB6A8214141
:1047D000412078782078782042420D0A00000000BD
:1047E000B5B1C7B0CEAAB1EAB6A8C4A3CABDA3AC3E
:1047F000C7EBB1EAB6A8212041412078782078782B
:104800002042420D0A0000008400002040420F00B8
:1048100070B521480088C1B2204890F88120002A54
:104820002DD190F8802000251D4B815490F88010E8
:104830001B4A491CC9B20C3A80F8801080290DD25D
:104840004478032C02D0102C03D019E0082905D09D
:1048500016E08679A1F10904A64211D1104E4FF657
:10486000FE74361D34801C8824F001041C801388DB
:1048700023F001031380012280F88120455470BD8C
:10488000074818300580188840F00100188010880B
:1048900040F00100108070BD043801402222002049
:1048A0000C2C01400348002180F8811080F8801012
:1048B00070470000222200200B494FF6FE7008804E
:1048C000081F018821F00101018007481038018884
:1048D00021F0010101800548012180F8811090F844
:1048E0008020002181547047102C0140222200209A
:1048F00003480088800601D5FFF78ABF7047000093
:1049000000380140C943018070470029818902D0E5
:1049100041F4005101E021F4005181817047000011
:104920002DE9F84F6B4CA4F182002646009096F8D2
:104930008100A346012872D121462078DFF898A192
:1049400049784FF000094D2801D1532908D0634A16
:1049500092F8392090421FD0E0780B281BD11BE041
:104960008AF800902046FEF77FFD5D4D0028286004
:104970000CDB96F88020291D601DFEF78FFD59483D
:10498000296800EBC10041686868884796F8801084
:104990002046FBF7C9FD94E04E484E4D0526823D6A
:1049A00090F880004FF0010803291ED005F1800225
:1049B0001029528807D02A80687840F080006870FB
:1049C00085F802804FE0217939B96379A179B3EB99
:1049D000510F02D10931884207D02A80687840F00F
:1049E000800068700320A8703DE0611E4FF6FF72E2
:1049F000415C02EA0121A21E875C801E0F4381B246
:104A00002046FEF747F821882980874208D0687839
:104A100040F080006870AE7085F8806020E056E05D
:104A200000208AF80080304915E000BF11F83020DE
:104A3000E3789A420DD16278102A03D122682A6065
:104A4000A288AA8001EBC0000099426858469047AE
:104A500006E0401CC0B201EBC0025268002AE5D15A
:104A60006878000602D585F8806007E06078102835
:104A70002BD0A87828B3401D85F8800015F8800F4A
:104A8000801E81B213488238FEF704F811492A7853
:104A900084395054010A0F4815F88029833811547D
:104AA000E078072805D00B4895F88010823800F090
:104AB00053FF084895F880108238FBF735FD85F8DC
:104AC0008090BDE8F84FFFF7EDBE0820D4E7BDE8C1
:104AD000F88F00002222002052000020C81F002072
:104AE000640000206867000824680008002A828AA1
:104AF00001D00A4300E08A438282704710B5C1F3B7
:104B0000421301F01F040121A140012B07D0022B09
:104B100007D01430002A026805D00A4304E00C30A4
:104B2000F8E71030F6E78A43026010BD30B504465E
:104B3000008A85B00D464CF6FF710840E9880143B4
:104B40002182A1894EF6F3100140A8882A891043DA
:104B50006A890A431043A081A08A4FF6FF410840AA
:104B6000A9890143A1826846FEF702FF19488442E1
:104B700001D1039800E00298A189090400EBC0016B
:104B800001EB0010296801D5490000E08900B0FB65
:104B9000F1F06422B0FBF2F109010B096FF0180586
:104BA0006B4300EB8300A3891D044FF0320306D54D
:104BB00003EBC000B0FBF2F000F0070005E003EBF0
:104BC0000010B0FBF2F000F00F000843208105B0A8
:104BD00030BD00000038014070B5002917D08AB2FE
:104BE0000B4C014623460B48FEF78DF9094D012277
:104BF0002D1F80212846FFF779FF01212046FEF76F
:104C0000CFF82846BDE870400121FFF77EBE70BD99
:104C10004400024004380140490050EAC12018BF56
:104C200004204A0D18BF40F0010040F2FF72B2EBC1
:104C3000515F08BF40F00200012808BF05207047FF
:104C40002DE9F0414F1E00EBC7010446D1E90001F8
:104C500015461E4637F006020DD02A46334601F0AF
:104C60006BFA7F1E04EBC703D3E9002300F0BAFF01
:104C700037F00602F1D1022F25D0042F13D0062FD2
:104C800018BFBDE8F0812A46334601F055FAD4E951
:104C90000A2300F0A7FF2A46334601F04DFAD4E973
:104CA000082300F09FFF2A46334601F045FAD4E975
:104CB000062300F097FF2A46334601F03DFAD4E977
:104CC000042300F08FFF2A46334601F035FAD4E979
:104CD000022300F087FF2A46334601F02DFAD4E97B
:104CE0000023BDE8F04100F07DBF00000022134624
:104CF0001046014901F032B80000F03F012201F0F6
:104D0000EDBC002213461046114601F027B830389A
:104D10000A2801D2012070470020704770B515465F
:104D20000C4600262BE0252903D000BF00F8011B0C
:104D300024E014F8011F66290AD004DC632922D07C
:104D400064291BD107E073290FD0782916D108E018
:104D500014F8016F303E02CD324600F0B7FD002658
:104D60000CE002CD00F0DEFD08E002CD03E000BF64
:104D700000F8012B491C0A78002AF9D1641C21781B
:104D80000029D0D170BD15F8041BCFE73CE000BF6F
:104D900000BF00BF00BF00BF00BF00BF00BF00BF1B
:104DA00000BF00BF00BF00BF00BF00BF00BF00BF0B
:104DB00000BF00BF00BF00BF00BF00BF00BF00BFFB
:104DC00000BF00BF00BF00BF00BF00BF00BF00BFEB
:104DD00000BF00BF00BF00BF00BF00BF00BF00BFDB
:104DE00000BF00BF00BF00BF00BF00BF00BF00BFCB
:104DF00000BF00BF00BF00BF00BF00BF00BF00BFBB
:104E000000BF00BF00BF00BF401EC0D270470000FF
:104E10000A4930B4D1E90D2353EA020403D0984281
:104E200003D2886304E0886301E0904200D94863BC
:104E30008A6B496B30BC02A000F0F2BA000000207F
:104E40004D61783A2566326D2C204D696E3A2566A3
:104E5000326D0D0A0000000002E000BF00BF00BF7D
:104E6000401EFAD27047000010B52048102404609C
:104E70006420FFF78BFF1E4B62021A616420FFF76C
:104E800085FF5A616420FFF781FF1A616420FFF7F4
:104E90007DFF1848202101600460502000F050F888
:104EA0004FF42F70FFF772FF1349802000F058F87D
:104EB0001249812000F054F81149822000F050F886
:104EC0004121832000F04CF80E49842000F048F87E
:104ED0002921852000F044F83821862000F040F890
:104EE000BDE810406420FFF751BF000010080140EA
:104EF00000100140100C0140122724002300420240
:104F0000570000A04200002070B50C4910250D602C
:104F100000BF00BF00F088FDFF2000F085FD0124E8
:104F20000602FF2000F080FD3043641C042CF7D300
:104F300000BF0249091F0D6070BD00001408014048
:104F400010B5064910240C6000BF00BF00F06CFDD6
:104F500000BF0248001F046010BD0000140801409B
:104F600070B50C460C4910250D6000BF00BF00F065
:104F70005BFD200E00F058FDC4F3074000F054FD27
:104F8000C4F3072000F050FDE0B200F04DFD00BF7B
:104F90000148001F056070BD14080140FEB51446AD
:104FA0000D460646FFF748FA0021ADF80440ADF87B
:104FB0000050ADF80610ADF8021069463046FFF714
:104FC0003BFB01213046FFF71BFA01221146304618
:104FD000FFF7EAFA01213046FFF718FAFEBD00009C
:104FE0002DE9F04DC84A002490B0914205DA21F035
:104FF0000043934201D805D120B110B0BDE8F04D77
:10500000FFF77CBEB1F5801F1BDA53EA000209D01E
:10501000002911DA0120FBF7D8FA10B0BDE8F04DF5
:10502000FFF76FBE0220FBF7D0FAFFF75FFE10B06C
:1050300081F00041BDE8F08D6FF03504362201F0BB
:105040004DFB04EB2152C1F31308B049A2F2FF3328
:10505000414401F4801282F07F6103EB225281F01F
:105060004051009241EA08010022A94B01F06EF97B
:10507000044608F10200A74EC0F313000D467E441B
:10508000032867D2D6E90023204600F0BFFF1ED1D7
:105090000098002802BFD6E9000110B0BDE8F08DED
:1050A00001F01FF807460C469B4A9C4B01F044F860
:1050B00006460D469A4A9B4B3846214601F03CF87D
:1050C00010B032462B46BDE8F04D00F08BBD4FF0DE
:1050D0005532954B2046294601F02EF80022934B7D
:1050E00001F028F906460F4622462B46104619467F
:1050F00001F022F832463B4601F01EF806460098C1
:105100000F46F0B100F0EDFF80468A46824A834B9D
:1051100001F012F832463B4601F00CF922462B46CC
:1051200001F014F905460C467D4A7E4B4046514637
:1051300001F002F810B02A462346BDE8F04D01F018
:1051400005B90B4610B0324620462946BDE8F04D61
:1051500001F0FCB800224FF08043204600F042FDF1
:1051600002460B462046294600F0F8FD06460F464B
:10517000009800F0B6FFCDE9040132463B461046E8
:10518000394600F0D9FF0C9069480C9A40440190D0
:1051900009910B46104600F0CFFF82460246654853
:1051A0008B46C8F151080B4608F5D72803217844EF
:1051B000FFF746FD52465B4600F0BEFF0A905E4890
:1051C0000D9152465B4604217844FFF739FD099B57
:1051D0000C9A00F0B1FF844601980D9B40EA080844
:1051E00060460A9A00F0FEFC83460891B8F1000F71
:1051F0004EDD4FF0FF322046294601F06FFA22467D
:105200002B4600F099FF804600988A4660B3DDE99E
:105210000401414A414B00F08FFF099100905A462A
:1052200040465146089B00F0DDFC32463B4600F00C
:1052300083FF099B009A00F0D5FC4246534601F0DB
:1052400079F822462B4601F081F804460D46DDE947
:105250000401334A334B00F06FFF10B022462B4657
:10526000BDE8F04D01F072B85A464046089B00F088
:10527000B9FC32463B4600F05FFF4246534601F020
:1052800059F810B022462B46BDE8F04D01F052B857
:10529000009840B3DDE904011F4A204B00F04CFFA9
:1052A00080468A465A4620462946089B01F04EF819
:1052B00032463B4600F040FF4246534601F046F876
:1052C00022462B4601F042F804460D46DDE9040172
:1052D000134A144B00F030FF10B022462B46BDE8B5
:1052E000F04D01F033B80B465A462046294601F0EE
:1052F0002DF832463B4600F01FFF10B022462B46E9
:10530000BDE8F04D01F016B80000F07F645F0900C1
:105310000000F03F561B0000763C7935EF39EA3D3E
:105320000000E0FE422EE63F5555D53F0000E03F2D
:1053300086EBF9FF56190000541900002DE9F041E1
:10534000044630480025814205DA21F000428242BD
:1053500001D805D124B12046BDE8F041FFF7CEBC0D
:10536000B1F5801F1BDA52EA040008D000290FDAD9
:105370000120FBF72AF9BDE8F041FFF7C2BC02208B
:10538000FBF723F9FFF7B2FC81F00041BDE8F081A3
:105390006FF035053622204601F0A0F9044605EBF2
:1053A0002150A0F2FF32D00F40F2FF331B1A0D46FE
:1053B00063F31F55104400F094FE06460F4629463D
:1053C0002046FFF70DFE104A104B00F0B5FE0446D4
:1053D0000D460F4A0F4B3046394600F0ADFE2246CF
:1053E0002B4600F0FFFB05460C460B4A0B4B3046A4
:1053F000394600F0A1FE2A462346BDE8F04100F000
:10540000F1BB00000000F07F0EE526157BCBDB3FF3
:10541000362BF111F3FE593D00609F501344D33FEA
:105420000FB410B5A0B023AA68462299FFF776FC06
:105430006946441A802C00DD80242146684600F02D
:105440008BFA20B0204610BC5DF814FB00263546D0
:10545000FEF7F8FEFEF7B6FEFEF746F9FEF784FE0D
:105460000120FDF76BFCFFF735F9144C0027207A7B
:10547000217908431ED0E06B401CE063E07940B91D
:10548000A781761C6782B6F57A7F02D901200026B3
:10549000E07100F017F86D1C062D02D90025FCF70D
:1054A00025F907484CF250314089B1FBF0F0FFF785
:1054B0006DFC00E0E771FFF733FAD8E70000002049
:1054C000C81F0020F0B58BB000273E460297039717
:1054D000142105A80497FBF749F8934800F002FB54
:1054E000914C924A2C3C608AE16A42F82010401CA0
:1054F0006082A089401C80B2A081218A884274D336
:10550000FCF784F9618A8948FDF76CFEFDF7EAFB38
:10551000E06200F045FA864DE06295F8281009B186
:105520000C38E062E88800EBC00101EB0012E06A91
:105530008049B0EB820F75D2002873D0A062AA898F
:1055400002EBC20303EB0212B0EB820F00D3012780
:10555000227A032A06D0227882B3097829B1012958
:1055600009D029E0FFF754FC9CE001463A4672A0BE
:10557000FFF756FF20E095F839008DF8080003206A
:105580008DF8090006208DF80A00012266490DF108
:105590000B00FDF7CEFF8DF80F608DF8107007211E
:1055A00002A8FDF777FA8DF81100000A8DF81200B5
:1055B0000B2102A800F0D0F9267073E0FFE76278B3
:1055C000A2B1228B521C92B222830A2A6AD909788C
:1055D00049B96279A18ACDE900120146E28A59A04F
:1055E000236BFFF71DFF26835CE09AE0E2786AB147
:1055F000E18B44F62067491C89B2E18364293AD2E1
:105600004FF487726A8163290DD04BE0097809B1A4
:10561000012947D1297E022944D0014650A0FFF735
:10562000FFFE3FE06AE0A18B401A00D54042208493
:10563000E88A08B9E88B90B195F83A00012816D0AD
:1056400049A000BFFFF7ECFE3846FFF79FFB95F837
:105650003A00228CE16A01280BD049A020E095F89D
:105660003A00012801D04DA0ECE752A0EAE755A08E
:10567000E8E757A014E0A1F16402642A18D249F6C1
:1056800040426A81C7290DD1A18B411A00D54942F8
:105690008AB2628495F83A100129014606D052A0D8
:1056A000FFF7BEFE207A022823D036E055A0F7E7A8
:1056B0003846FFF76BFB208C0A280AD2608C0A2838
:1056C00007D295F83A00012801D055A006E05EA067
:1056D00004E095F83A00012809D065A0FFF7A0FE84
:1056E0003846FFF753FBE670E683267215E06AA0A2
:1056F000F4E726720120FDF721FB0EE0A662207A76
:10570000022800D12672087808B1012805D1287E28
:10571000022802D06BA0FFF783FEFCF743FA6682F3
:10572000A6810BB0F0BD00002C00002088000020F6
:10573000C81F0020520000202566326D207C2025E5
:10574000640D0A002566326D2C25646D762C256665
:1057500031A1E62C25642C25646C760D0A0000002E
:105760002566326D0D0A000043616C6962726174D6
:10577000696F6E2073756363657373A3A10A00007C
:10578000344B485AA3BA2566326D20646576696148
:1057900074696F6EA3BA2564636D0A0043616C6916
:1057A00062726174696F6E206661696C757265A35F
:1057B000A10A0000B1EAB6A8CEB4CDA8B9FDA3A154
:1057C0000A000000B1EAB6A8CDA8B9FDA3A10A005D
:1057D000344B485AA3BA2566326D20C6ABB2EEA34D
:1057E000BA2564636D0A000032304B485AA3BA25CB
:1057F00066326D206572726F72A3BA2564636D0A9A
:105800000000000032304B485AA3BA2566326D20A2
:10581000C6ABB2EEA3BA2564636D0D0A00000000AA
:105820003D3D3D3D3D3D3D3D3D3D3D3D3D3D51438E
:105830002050415353A3A13D3D3D3D3D3D3D3D3DA8
:105840003D3D3D0A0A0000003D3D3D3D3D3D3D3DA5
:105850003D3D3D3D3D3DC6B7BCECCDA8B9FDA3A146
:105860003D3D3D3D3D3D3D3D3D3D3D3D0A0A000048
:105870003D3D3D3D3D3D3D3D3D3D3D3D3D3D51433E
:10588000204641494CA3A13D3D3D3D3D3D3D3D3D73
:105890003D3D3D0A0A0000003D3D3D3D3D3D3D3D55
:1058A0003D3D3D3D3D3DC6B7BCECCEB4CDA8B9FDB8
:1058B000A3A13D3D3D3D3D3D3D3D3D3D3D3D0A0AB4
:1058C000000000002D2D2D0D0A000000FEB5002364
:1058D000002903DA49422D2400F8014B0A262E271D
:1058E0004FEA0D0491FBF6F5C5F1000C0CEB8C0CA6
:1058F00001EB4C013031E15429465B1C32B193423B
:1059000003D1E75403F10103ECE7EBD90029E9D116
:1059100005E000BFA3F10103E15C00F8011B002BCF
:10592000F8D1FEBD3EB500224FEA0D0401F00F0391
:10593000092B01D9372500E030252B44A354521CF4
:10594000D2B20909F2D104E0521ED2B2A15C00F831
:10595000011B002AF8D13EBD2DE9F041DFF8388067
:105960000C46054606784FF4807739464046FDF7E9
:1059700019FD0A48011D06E002885206FCD50E807A
:1059800015F8016F641E002CF6D139464046BDE87B
:10599000F041FDF705BD0000000C0140003801405A
:1059A000154A10B50146927800200AB1084610BD8C
:1059B000124A114B54895B79B4F5877F07D0ABB19C
:1059C000012B16D0022BF2D1B2F922000CE033B138
:1059D000012B07D0022BEAD1B2F91C0004E0B2F986
:1059E000160001E0B2F91A00081A10BDB2F91E0043
:1059F000FAE7B2F92000F7E700000020C81F0020F6
:105A000010B5034C0146208800F052F8608810BDA4
:105A10005400002010B5034C618800F049F820883C
:105A200010BD00005400002005490A899207FCD5EA
:105A300088810889C007FCD08889C0B270470000FF
:105A4000003001400C4910B54FF480520A600B49F8
:105A50000B889B07FCD5094B040A1B1D1C800C8876
:105A6000A407FCD5C0B2188008880006FCD4024800
:105A7000001F0260002010BD140C014008380040D7
:105A800010B50A4C6188084480B26080A02802D218
:105A9000A020608004E04FF43471884200D9618016
:105AA0006188208800F004F8608810BD5400002050
:105AB00070B5074C05462080618041F48050FFF7A7
:105AC000C1FF45F40040FFF7BDFF608870BD0000D6
:105AD0005400002002494FF48050086070470000D5
