:100A98008F13C2A57F057E00120A23851380D2A773
:0A0AA8007F057E00120A23C2A72278
:100AB2008F13D2A57F057E00120A23851380D2A749
:0A0AC2007F057E00120A23C2A7225E
:100A7D00C2A67F38120A987F0C120A987F06120AB6
:0B0A8D00987F01120A987F80020A98EF
:100A2300D3EF9400EE940040147D707C00ED1D70B4
:0D0A3300011CED4C70F7EF1F70E61E80E314
:010A40002293
:10068500120A7D1209B9120BAEE4FD7FA6120B38D2
:100695008F081209B97D327FA61209E012072812C8
:1006A50007A312081E120957E526F509E527F50ADD
:1006B500E528F50DE529F50EE52AF50BE52BF50CF5
:1006C500AC0BAD0CEC120206C004C005C006C00799
:1006D500AC09AD0AEC1202068F1A8E198D188C170B
:1006E500D007D006D005D0041208997BE07A2E7980
:1006F5006578421200FBE4FBFA7934784312000A6C
:100705008F128E118D108C0FE4FBFA79207841122F
:1007150000FB8F128E118D108C0F12023F1205C532
:0307250002069732
:060BB50000000000002218
:0E0AFC007F307E02EF1FAC0670011E4C70F6BC
:010B0A0022C8
:0F0B0B00D2A1D2A0120BB5C2A1120BB5C2A0226B
:0C0B8A00C2A1D2A0120BB5D2A1020BB583
:0E0B4700A20092A1D2A0120BB5C2A0020BB563
:0D0B6300D2A0120BB5A2A1C2A0120BB522A8
:100ACC00E4FEEF25E0FF92A1D2A0120BB5C2A0125A
:090ADC000BB50EBE08EC020B6321
:100A4100E4FFD2A1FEEF25E0FFD2A0120BB5A2A1D7
:0D0A5100E4334207C2A0120BB50EBE08E848
:010A5E002275
:100AE500AC07120B0B7F3C120ACCAF04120ACCAF39
:070AF50005120ACC020B8A76
:10095700120B0B7F3C120ACC7F03120ACC120B0B33
:100967007F3D120ACCE4FD120A4174262DF8A60732
:10097700BD0504D2008002C200120B470DBD06E779
:06098700120B8A020AFCBB
:070BAE00E4FD7F02020AE5ED
:1005C500AB07AA067C277D1012041A8F247C277D91
:1005D50010AF03AE0212041AAA04AB057C037DE832
:1005E500AF03AE0212041A8F217C037DE8AF03AE80
:1005F5000212041AAA04AB057C007D64AF03AE02A7
:1006050012041A8F227C007D64AF03AE0212041A15
:10061500AA04AB057C007D0AAF03AE0212041A8F53
:10062500237C007D0AAF03AE0212041A8D257F805C
:10063500120A987F41120AB27F81120A987F3A12F4
:100645000AB27F82120A98E5212430FF120AB27F8E
:1006550083120A98E5222430FF120AB27F84120A17
:1006650098E5232430FF120AB27F85120A987F2E5F
:10067500120AB27F86120A98E5252430FF020AB2D3
:0D0B70000000000000000000000000002256
:0E0B1A007F307E02EF1FAC0670011E4C70F69D
:010B280022AA
:0F0B2900D2A3D2A2120B70C2A3120B70C2A222CF
:0C0B9600C2A3D2A2120B70D2A3020B70FB
:0E0B5500A20092A3D2A2120B70C2A2020B70D9
:0D0B7D00D2A2120B70A2A3C2A2120B702212
:10098D00AC07120B291209A0AF051209A0120B29F1
:03099D00EC04FF68
:1009A000E4FEEF25E0FF92A3D2A2120B70C2A212C6
:0909B0000B700EBE08EC020B7D79
:100A5F00E4FFD2A3FEEF25E0FFD2A2120B70A2A3F8
:0D0A6F00E4334207C2A2120B700EBE08E86D
:010A7C002257
:080A04007FA6120A0C0D7FA66B
:100A0C00AE07AC03120B291209A0AF051209A0AF57
:070A1C00041209A0020B9671
:0E0B380012098D120A5FD200120B55120B9695
:010B4600228C
:1009E00012098DE4FD120A5F742E2DF8A607BD06CC
:1009F00004D2008002C200120B550DBD07E7120B96
:040A000096020B1A35
:1009B9007B0B7D317FA6120A0C7B087D2C120A0461
:1009C9007B800D7FA6120A0CE4FB7D1E120A047BB4
:0709D900050D7FA6020A0CC8
:10090C00AC36AD37EC1202067B9A7A99797978403D
:06091C001200FB12023F75
:100922007C277D1012041AAA04AB057C037DE8AF74
:1009320003AE0212041A8F387C037DE8AF03AE02C5
:1009420012041AAA04AB05AE02AF037C007D641246
:05095200041A8F392298
:10072800E52FFE7C00E4252EF537EC3EF536C36454
:100738008094805017C3E49537F537E49536F5363D
:100748007F8A120A987F2D120AB280057F8A120AC0
:10075800987F20120AB212090C7F88120A987F58D3
:10076800120AB27F89120A987F3A120AB27F8B1254
:100778000A98E5382430FF120AB27F8C120A987F53
:100788002E120AB27F8D120A98E5392430FF120A18
:0B079800B27F8E120A987F67020AB23F
:1007A300E531FE7C00E42530F537EC3EF536C364D5
:1007B3008094805017C3E49537F537E49536F536C2
:1007C3007FC2120A987F2D120AB280057FC2120AD5
:1007D300987F20120AB212090C7FC0120A987F591F
:1007E300120AB27FC1120A987F3A120AB27FC31269
:1007F3000A98E5382430FF120AB27FC4120A987FA0
:100803002E120AB27FC5120A98E5392430FF120A64
:0B081300B27FC6120A987F67020AB28B
:10081E00E533FE7C00E42532F537EC3EF536C36455
:10082E008094805017C3E49537F537E49536F53646
:10083E007FCA120A987F2D120AB280057FCA120A49
:10084E00987F20120AB212090C7FC8120A987F599B
:10085E00120AB27FC9120A987F3A120AB27FCB12DD
:10086E000A98E5382430FF120AB27FCC120A987F1C
:10087E002E120AB27FCD120A98E5392430FF120AE1
:0B088E00B27FCE120A987F67020AB208
:100003000202ABE86480F8E933E83360110460F07E
:10001300ED33EC337009E8FCE9FDEAFEEBFF220463
:1000230060DED3EB9FEA9EE99DE8C2E78CF0C2F75E
:1000330095F0400CE8CCF8E9CDF9EACEFAEBCFFB2A
:1000430012027685D0F05804700320D5B3E804700B
:10005300075002B2D50202B592D5EC0460F7E4CCA6
:10006300C0E0C398F8603B94186008400DD0E0FBF3
:1000730002028DE4FBFAC9FC8028E830E406E4C9F7
:10008300FBE4CAFCE830E305E4C9CACBFCE8540747
:100093006010F8C3E913F9EA13FAEB13FBEC13FC52
:1000A300D8F130F52FC3E49CFCEF9BFFEE9AFEEDF5
:1000B30099FDD0E0FBEF4E4D4C701222DB030202A0
:1000C300B2EC2CFCEF33FFEE33FEED33FDED30E706
:1000D300EB02028DEF2BFFEE3AFEED39FDD0E0FB94
:1000E30050130BBB00030202B5ED13FDEE13FEEF3D
:0800F30013FFEC13FC02028D67
:1000FB00EC4D6011E8497017ED33EC3304600DE4FF
:10010B00FCFFFEFD22E933E8330470F80202AB1268
:10011B00027658046009E4CC248150062850090269
:10012B0002B52840030202B2C0E0EB4A7044B9802A
:10013B0006D0E0FB0202A1EF4E701CBD8008EBFF66
:10014B00EAFEE9FD80EBE98DF0A4FEE5F00201E4A7
:10015B00E9CDF9EAFEEBFFEF89F0A4FCE5F0CE89DF
:10016B00F0A42EFFE435F0CD89F0A42DFEE435F09C
:10017B008067EF4E7005BD80D780C3EF8BF0A4ACCA
:10018B00F0EE8BF0A42CFCE435F0F8EF8AF0A42C05
:10019B00E5F038FCE433CB8DF0A42CFCE5F03BF818
:1001AB00EE8AF0A42CFCE5F038F8E433CF89F0A408
:1001BB002CFCE5F038CF3400CE89F0A42FFFE5F00E
:1001CB003EFEE433C98DF0A42EFEE5F039CD8AF066
:1001DB00A42FFFE5F03EFEE43DFD33D0E0FB5007DE
:1001EB000BBB000F0202B5EC2CFCEF33FFEE33FE22
:0601FB00ED33FD02028D50
:1002010075F020800E75F010800575F0087D007E78
:10021100007F003392D530D50312046FEC334010C8
:10022100EF33FFEE33FEED33FDEC33FCD5F0ED2281
:0E023100E5F0247EA2D513CC92E7CDCEFF22BD
:10023F00EDD2E7CD33EC3392D524814006E4FFFEB7
:10024F00FDFC22FCE4CFCECDCC24E0501174FF8016
:10025F00EDC3CC13CCCD13CDCE13CECF13CF0470B3
:07026F00F030D5DE02046F40
:100899008F168E158D148C13AB1AAA19A918A817BF
:1008A9001202C31204BD8F168E158D148C13E51711
:1008B90030E747ECC0E0EDC0E0EEC0E0EFC0E0E4B7
:1008C900FFFEFDFCAB16AA15A914A8131203607B41
:1008D900DB600250087A0F7949784080067A0F79EF
:1008E9004978C0D0E0FFD0E0FED0E0FDD0E0FC12B6
:1008F900000A8F168E158D148C13AF16AE15AD1414
:03090900AC13220A
:10027600E9D2E7C933E833F892D5EDD2E7CD33ECCE
:0702860033FC5002B2D52247
:10028D00EC30E7100FBF000C0EBE00080DBD0004D2
:10029D000BEB6014A2D5EB13FCED92E7FD2274FF7E
:1002AD00FCFDFEFF22E480F8A2D574FF13FC7D80D7
:0302BD00E480EFEB
:1002C0000202B5EC5D046005E8590470030202AB5C
:1002D000120276580460F6EC4860F2EC7004FDFE01
:1002E000FF22C860DB2481C85009C3986002500611
:1002F0000202B29850CAF582E9294B4A7005AB82D6
:100300000202A175F0007C1A7880C3EF9BEE9AED93
:1003100099400DC3EF9BFFEE9AFEED99FDE842F088
:10032000DC23ACF0D0E0FFD0E0FED0E0FDAB8220DB
:10033000E7101BEB60BAEC2CFCEF33FFEE33FEED65
:1003400033FD02028DE803F830E705C0F075F000D8
:10035000EF2FFFEE33FEED33FD40B830E7C280AA49
:1003600074F8CC6480CCC86480C8F582046043C350
:10037000EB9FF5F0EA9E42F0E99D42F0E89C45F0E3
:1003800060305018E5825FFFE582F42B5582FB5008
:10039000210ABA001D09B90019088016E5825BFB25
:1003A000E582F42F5582FF50090EBE00050DBD00F9
:1003B000010CC3EB9FF5F0EA9E42F0E99D42F0E8A4
:0D03C0009C45F06007CC4820E701B3EC221B
:10049D00BE1249253E4CCCCDBEAAAAAB3F80000072
:1004AD003E7ADBB03EED63383F24BC7D3F490FDB28
:1004BD00ED33ECC2E7CC339200B4FF13ED547F6003
:1004CD00030202AB7FDB7E0F7DC97C3F0205B8C204
:1004DD0001C3947F401E7007EDD2E794904015EF55
:1004ED00FBEEFAEDF9ECF87F007E007D807C3F128B
:1004FD0002C3D201ED33EC33248430E705E4C0E0D0
:10050D00806D04FAEDD2E754F0C333DAFD540734AD
:10051D00002323C0E0CCC0E0F8EDC0E0F9EEC0E070
:10052D00FAEFC0E0FBE412020BEC24FEFC8C1B8DF9
:10053D001C8E1D8F1E1200FB7B007A007980783F88
:10054D0012000AECC51BB2E7FCEDC51CFDEEC51D86
:10055D00FEEFC51EFFD0E0FBD0E0FAD0E0F9D0E011
:10056D00F812000AA81BA91CAA1DAB1E1202C38CEF
:10057D001B8D1C8E1D8F1E90049D74031203CDA820
:10058D001BA91CAA1DAB1E1200FBD0E0600F24A9F5
:10059D00F582E43404F58312048D12000A30010B48
:1005AD007BDB7A0F79C978BF12000AED33EC33602B
:0805BD0006ECA20092E7FC220B
:1003CD00C0E0EFFBEEFAEDF9ECF81200FBD0E0F532
:1003DD00F0EFFBEEFAEDF9ECF812047DA3A3A3A365
:1003ED00E8C0E0E9C0E0EAC0E0EBC0E0C0F0120018
:1003FD00FB12048DA3A3A3A312000AD0F0D0E0FB3F
:0D040D00D0E0FAD0E0F9D0E0F8D5F0D4222C
:03000000020BA24E
:0C0BA200787FE4F6D8FD758139020685E5
:10041A00BC000BBE0029EF8DF084FFADF022E4CCC6
:10042A00F875F008EF2FFFEE33FEEC33FCEE9DEC8F
:10043A00984005FCEE9DFE0FD5F0E9E4CEFD22EDD5
:10044A00F8F5F0EE8420D21CFEADF075F008EF2F1F
:10045A00FFED33FD4007985006D5F0F222C398FD10
:05046A000FD5F0EA22AD
:0E046F00C3E49FFFE49EFEE49DFDE49CFC229E
:10047D00E493FC740193FD740293FE740393FF22C5
:10048D00E493F8740193F9740293FA740393FB22C5
:00000001FF
